{
  "_format": "hh-sol-artifact-1",
  "contractName": "RerroToken",
  "sourceName": "contracts/RerroToken.sol",
  "abi": [
    {
      "inputs": [
        {
          "internalType": "address",
          "name": "trustedForwarder",
          "type": "address"
        },
        {
          "internalType": "address",
          "name": "_arxCertSigner",
          "type": "address"
        }
      ],
      "stateMutability": "nonpayable",
      "type": "constructor"
    },
    {
      "anonymous": false,
      "inputs": [
        {
          "indexed": true,
          "internalType": "address",
          "name": "owner",
          "type": "address"
        },
        {
          "indexed": true,
          "internalType": "address",
          "name": "spender",
          "type": "address"
        },
        {
          "indexed": false,
          "internalType": "uint256",
          "name": "value",
          "type": "uint256"
        }
      ],
      "name": "Approval",
      "type": "event"
    },
    {
      "anonymous": false,
      "inputs": [
        {
          "indexed": true,
          "internalType": "address",
          "name": "previousOwner",
          "type": "address"
        },
        {
          "indexed": true,
          "internalType": "address",
          "name": "newOwner",
          "type": "address"
        }
      ],
      "name": "OwnershipTransferred",
      "type": "event"
    },
    {
      "anonymous": false,
      "inputs": [
        {
          "indexed": true,
          "internalType": "address",
          "name": "from",
          "type": "address"
        },
        {
          "indexed": true,
          "internalType": "address",
          "name": "to",
          "type": "address"
        },
        {
          "indexed": false,
          "internalType": "uint256",
          "name": "value",
          "type": "uint256"
        }
      ],
      "name": "Transfer",
      "type": "event"
    },
    {
      "inputs": [
        {
          "internalType": "address",
          "name": "owner",
          "type": "address"
        },
        {
          "internalType": "address",
          "name": "spender",
          "type": "address"
        }
      ],
      "name": "allowance",
      "outputs": [
        {
          "internalType": "uint256",
          "name": "",
          "type": "uint256"
        }
      ],
      "stateMutability": "view",
      "type": "function"
    },
    {
      "inputs": [
        {
          "internalType": "address",
          "name": "spender",
          "type": "address"
        },
        {
          "internalType": "uint256",
          "name": "amount",
          "type": "uint256"
        }
      ],
      "name": "approve",
      "outputs": [
        {
          "internalType": "bool",
          "name": "",
          "type": "bool"
        }
      ],
      "stateMutability": "nonpayable",
      "type": "function"
    },
    {
      "inputs": [],
      "name": "arxCertSigner",
      "outputs": [
        {
          "internalType": "address",
          "name": "",
          "type": "address"
        }
      ],
      "stateMutability": "view",
      "type": "function"
    },
    {
      "inputs": [
        {
          "internalType": "address",
          "name": "account",
          "type": "address"
        }
      ],
      "name": "balanceOf",
      "outputs": [
        {
          "internalType": "uint256",
          "name": "",
          "type": "uint256"
        }
      ],
      "stateMutability": "view",
      "type": "function"
    },
    {
      "inputs": [
        {
          "internalType": "address[]",
          "name": "chipIds",
          "type": "address[]"
        }
      ],
      "name": "bulkSeed",
      "outputs": [],
      "stateMutability": "nonpayable",
      "type": "function"
    },
    {
      "inputs": [
        {
          "internalType": "address[]",
          "name": "chipIds",
          "type": "address[]"
        },
        {
          "internalType": "uint256[]",
          "name": "mintAmounts",
          "type": "uint256[]"
        }
      ],
      "name": "bulkSetMintAmount",
      "outputs": [],
      "stateMutability": "nonpayable",
      "type": "function"
    },
    {
      "inputs": [
        {
          "internalType": "address",
          "name": "",
          "type": "address"
        }
      ],
      "name": "chipIdOwner",
      "outputs": [
        {
          "internalType": "address",
          "name": "",
          "type": "address"
        }
      ],
      "stateMutability": "view",
      "type": "function"
    },
    {
      "inputs": [],
      "name": "chipIdOwnerMintAmount",
      "outputs": [
        {
          "internalType": "uint256",
          "name": "",
          "type": "uint256"
        }
      ],
      "stateMutability": "view",
      "type": "function"
    },
    {
      "inputs": [
        {
          "internalType": "address",
          "name": "owner",
          "type": "address"
        }
      ],
      "name": "claimOwnership",
      "outputs": [],
      "stateMutability": "nonpayable",
      "type": "function"
    },
    {
      "inputs": [],
      "name": "claimOwnershipPaused",
      "outputs": [
        {
          "internalType": "bool",
          "name": "",
          "type": "bool"
        }
      ],
      "stateMutability": "view",
      "type": "function"
    },
    {
      "inputs": [
        {
          "internalType": "address",
          "name": "owner",
          "type": "address"
        },
        {
          "internalType": "bytes",
          "name": "signature",
          "type": "bytes"
        }
      ],
      "name": "claimOwnershipWithSignature",
      "outputs": [],
      "stateMutability": "nonpayable",
      "type": "function"
    },
    {
      "inputs": [],
      "name": "decimals",
      "outputs": [
        {
          "internalType": "uint8",
          "name": "",
          "type": "uint8"
        }
      ],
      "stateMutability": "view",
      "type": "function"
    },
    {
      "inputs": [
        {
          "internalType": "address",
          "name": "spender",
          "type": "address"
        },
        {
          "internalType": "uint256",
          "name": "subtractedValue",
          "type": "uint256"
        }
      ],
      "name": "decreaseAllowance",
      "outputs": [
        {
          "internalType": "bool",
          "name": "",
          "type": "bool"
        }
      ],
      "stateMutability": "nonpayable",
      "type": "function"
    },
    {
      "inputs": [],
      "name": "defaultClaimedMintAmount",
      "outputs": [
        {
          "internalType": "uint256",
          "name": "",
          "type": "uint256"
        }
      ],
      "stateMutability": "view",
      "type": "function"
    },
    {
      "inputs": [],
      "name": "defaultMintAmount",
      "outputs": [
        {
          "internalType": "uint256",
          "name": "",
          "type": "uint256"
        }
      ],
      "stateMutability": "view",
      "type": "function"
    },
    {
      "inputs": [
        {
          "internalType": "address",
          "name": "spender",
          "type": "address"
        },
        {
          "internalType": "uint256",
          "name": "addedValue",
          "type": "uint256"
        }
      ],
      "name": "increaseAllowance",
      "outputs": [
        {
          "internalType": "bool",
          "name": "",
          "type": "bool"
        }
      ],
      "stateMutability": "nonpayable",
      "type": "function"
    },
    {
      "inputs": [
        {
          "internalType": "address",
          "name": "forwarder",
          "type": "address"
        }
      ],
      "name": "isTrustedForwarder",
      "outputs": [
        {
          "internalType": "bool",
          "name": "",
          "type": "bool"
        }
      ],
      "stateMutability": "view",
      "type": "function"
    },
    {
      "inputs": [],
      "name": "merkleRoot",
      "outputs": [
        {
          "internalType": "bytes32",
          "name": "",
          "type": "bytes32"
        }
      ],
      "stateMutability": "view",
      "type": "function"
    },
    {
      "inputs": [
        {
          "internalType": "address",
          "name": "scanner",
          "type": "address"
        }
      ],
      "name": "mint",
      "outputs": [],
      "stateMutability": "nonpayable",
      "type": "function"
    },
    {
      "inputs": [],
      "name": "mintPaused",
      "outputs": [
        {
          "internalType": "bool",
          "name": "",
          "type": "bool"
        }
      ],
      "stateMutability": "view",
      "type": "function"
    },
    {
      "inputs": [
        {
          "internalType": "address",
          "name": "scanner",
          "type": "address"
        },
        {
          "internalType": "bytes",
          "name": "signature",
          "type": "bytes"
        }
      ],
      "name": "mintWithSignature",
      "outputs": [],
      "stateMutability": "nonpayable",
      "type": "function"
    },
    {
      "inputs": [],
      "name": "name",
      "outputs": [
        {
          "internalType": "string",
          "name": "",
          "type": "string"
        }
      ],
      "stateMutability": "view",
      "type": "function"
    },
    {
      "inputs": [],
      "name": "owner",
      "outputs": [
        {
          "internalType": "address",
          "name": "",
          "type": "address"
        }
      ],
      "stateMutability": "view",
      "type": "function"
    },
    {
      "inputs": [],
      "name": "renounceOwnership",
      "outputs": [],
      "stateMutability": "nonpayable",
      "type": "function"
    },
    {
      "inputs": [
        {
          "internalType": "address",
          "name": "",
          "type": "address"
        },
        {
          "internalType": "address",
          "name": "",
          "type": "address"
        }
      ],
      "name": "scannerMinted",
      "outputs": [
        {
          "internalType": "bool",
          "name": "",
          "type": "bool"
        }
      ],
      "stateMutability": "view",
      "type": "function"
    },
    {
      "inputs": [
        {
          "internalType": "address",
          "name": "",
          "type": "address"
        }
      ],
      "name": "seededChipAmounts",
      "outputs": [
        {
          "internalType": "uint256",
          "name": "",
          "type": "uint256"
        }
      ],
      "stateMutability": "view",
      "type": "function"
    },
    {
      "inputs": [
        {
          "internalType": "address",
          "name": "",
          "type": "address"
        }
      ],
      "name": "seededChips",
      "outputs": [
        {
          "internalType": "bool",
          "name": "",
          "type": "bool"
        }
      ],
      "stateMutability": "view",
      "type": "function"
    },
    {
      "inputs": [
        {
          "internalType": "address",
          "name": "_newSigner",
          "type": "address"
        }
      ],
      "name": "setArxCertSigner",
      "outputs": [],
      "stateMutability": "nonpayable",
      "type": "function"
    },
    {
      "inputs": [
        {
          "internalType": "uint256",
          "name": "_amount",
          "type": "uint256"
        }
      ],
      "name": "setChipIdOwnerMintAmount",
      "outputs": [],
      "stateMutability": "nonpayable",
      "type": "function"
    },
    {
      "inputs": [
        {
          "internalType": "bool",
          "name": "_state",
          "type": "bool"
        }
      ],
      "name": "setClaimOwnershipPausedState",
      "outputs": [],
      "stateMutability": "nonpayable",
      "type": "function"
    },
    {
      "inputs": [
        {
          "internalType": "address",
          "name": "chipId",
          "type": "address"
        },
        {
          "internalType": "uint256",
          "name": "mintAmount",
          "type": "uint256"
        }
      ],
      "name": "setMintAmount",
      "outputs": [],
      "stateMutability": "nonpayable",
      "type": "function"
    },
    {
      "inputs": [
        {
          "internalType": "bool",
          "name": "_state",
          "type": "bool"
        }
      ],
      "name": "setMintPausedState",
      "outputs": [],
      "stateMutability": "nonpayable",
      "type": "function"
    },
    {
      "inputs": [
        {
          "internalType": "uint256",
          "name": "_newCap",
          "type": "uint256"
        }
      ],
      "name": "setTokenCap",
      "outputs": [],
      "stateMutability": "nonpayable",
      "type": "function"
    },
    {
      "inputs": [],
      "name": "symbol",
      "outputs": [
        {
          "internalType": "string",
          "name": "",
          "type": "string"
        }
      ],
      "stateMutability": "view",
      "type": "function"
    },
    {
      "inputs": [],
      "name": "tokenCap",
      "outputs": [
        {
          "internalType": "uint256",
          "name": "",
          "type": "uint256"
        }
      ],
      "stateMutability": "view",
      "type": "function"
    },
    {
      "inputs": [],
      "name": "totalSupply",
      "outputs": [
        {
          "internalType": "uint256",
          "name": "",
          "type": "uint256"
        }
      ],
      "stateMutability": "view",
      "type": "function"
    },
    {
      "inputs": [
        {
          "internalType": "address",
          "name": "to",
          "type": "address"
        },
        {
          "internalType": "uint256",
          "name": "amount",
          "type": "uint256"
        }
      ],
      "name": "transfer",
      "outputs": [
        {
          "internalType": "bool",
          "name": "",
          "type": "bool"
        }
      ],
      "stateMutability": "nonpayable",
      "type": "function"
    },
    {
      "inputs": [
        {
          "internalType": "address",
          "name": "from",
          "type": "address"
        },
        {
          "internalType": "address",
          "name": "to",
          "type": "address"
        },
        {
          "internalType": "uint256",
          "name": "amount",
          "type": "uint256"
        }
      ],
      "name": "transferFrom",
      "outputs": [
        {
          "internalType": "bool",
          "name": "",
          "type": "bool"
        }
      ],
      "stateMutability": "nonpayable",
      "type": "function"
    },
    {
      "inputs": [
        {
          "internalType": "address",
          "name": "newOwner",
          "type": "address"
        }
      ],
      "name": "transferOwnership",
      "outputs": [],
      "stateMutability": "nonpayable",
      "type": "function"
    },
    {
      "inputs": [
        {
          "internalType": "address",
          "name": "chipId",
          "type": "address"
        },
        {
          "internalType": "bytes",
          "name": "signature",
          "type": "bytes"
        }
      ],
      "name": "verifySignature",
      "outputs": [
        {
          "internalType": "bool",
          "name": "",
          "type": "bool"
        }
      ],
      "stateMutability": "view",
      "type": "function"
    }
  ],
  "bytecode": "0x60a06040526001600b60006101000a81548160ff0219169083151502179055506001600b60016101000a81548160ff0219169083151502179055506a0c67d7d5423dfb7d7c0000600c55680d8d726b7177a80000600d55681b1ae4d6e2ef500000600e5568056bc75e2d63100000600f553480156200007d57600080fd5b5060405162004801380380620048018339818101604052810190620000a39190620005ca565b816040518060400160405280600f81526020017f4b4f4e47204c616e6420526572726f00000000000000000000000000000000008152506040518060400160405280600581526020017f524552524f00000000000000000000000000000000000000000000000000000081525081600390816200012191906200088b565b5080600490816200013391906200088b565b5050508073ffffffffffffffffffffffffffffffffffffffff1660808173ffffffffffffffffffffffffffffffffffffffff1681525050506200018b6200017f6200020560201b60201c565b6200022160201b60201c565b80601060006101000a81548173ffffffffffffffffffffffffffffffffffffffff021916908373ffffffffffffffffffffffffffffffffffffffff160217905550620001fd73bdc95ca05cc25342ae9a96fb12cbe937efe2e28c6a013d958e63113f52740000620002e760201b60201c565b505062000bb0565b60006200021c6200045460201b620015091760201c565b905090565b6000600560009054906101000a900473ffffffffffffffffffffffffffffffffffffffff16905081600560006101000a81548173ffffffffffffffffffffffffffffffffffffffff021916908373ffffffffffffffffffffffffffffffffffffffff1602179055508173ffffffffffffffffffffffffffffffffffffffff168173ffffffffffffffffffffffffffffffffffffffff167f8be0079c531659141344cd1fd0a4f28419497f9722a3daafe3b4186f6b6457e060405160405180910390a35050565b600073ffffffffffffffffffffffffffffffffffffffff168273ffffffffffffffffffffffffffffffffffffffff160362000359576040517f08c379a00000000000000000000000000000000000000000000000000000000081526004016200035090620009d3565b60405180910390fd5b6200036d60008383620004ef60201b60201c565b806002600082825462000381919062000a24565b92505081905550806000808473ffffffffffffffffffffffffffffffffffffffff1673ffffffffffffffffffffffffffffffffffffffff168152602001908152602001600020600082825401925050819055508173ffffffffffffffffffffffffffffffffffffffff16600073ffffffffffffffffffffffffffffffffffffffff167fddf252ad1be2c89b69c2b068fc378daa952ba7f163c4a11628f55a4df523b3ef8360405162000434919062000a70565b60405180910390a36200045060008383620004f460201b60201c565b5050565b60008060003690509050600062000470620004f960201b60201c565b905062000483336200051560201b60201c565b8015620004905750808210155b15620004d2576000368284620004a7919062000a8d565b908092620004b89392919062000ad2565b90620004c5919062000b4a565b60601c92505050620004ec565b620004e76200054f60201b6200157e1760201c565b925050505b90565b505050565b505050565b6000620005106200055760201b620015861760201c565b905090565b600060805173ffffffffffffffffffffffffffffffffffffffff168273ffffffffffffffffffffffffffffffffffffffff16149050919050565b600033905090565b60006014905090565b600080fd5b600073ffffffffffffffffffffffffffffffffffffffff82169050919050565b6000620005928262000565565b9050919050565b620005a48162000585565b8114620005b057600080fd5b50565b600081519050620005c48162000599565b92915050565b60008060408385031215620005e457620005e362000560565b5b6000620005f485828601620005b3565b92505060206200060785828601620005b3565b9150509250929050565b600081519050919050565b7f4e487b7100000000000000000000000000000000000000000000000000000000600052604160045260246000fd5b7f4e487b7100000000000000000000000000000000000000000000000000000000600052602260045260246000fd5b600060028204905060018216806200069357607f821691505b602082108103620006a957620006a86200064b565b5b50919050565b60008190508160005260206000209050919050565b60006020601f8301049050919050565b600082821b905092915050565b600060088302620007137fffffffffffffffffffffffffffffffffffffffffffffffffffffffffffffffff82620006d4565b6200071f8683620006d4565b95508019841693508086168417925050509392505050565b6000819050919050565b6000819050919050565b60006200076c62000766620007608462000737565b62000741565b62000737565b9050919050565b6000819050919050565b62000788836200074b565b620007a0620007978262000773565b848454620006e1565b825550505050565b600090565b620007b7620007a8565b620007c48184846200077d565b505050565b5b81811015620007ec57620007e0600082620007ad565b600181019050620007ca565b5050565b601f8211156200083b576200080581620006af565b6200081084620006c4565b8101602085101562000820578190505b620008386200082f85620006c4565b830182620007c9565b50505b505050565b600082821c905092915050565b6000620008606000198460080262000840565b1980831691505092915050565b60006200087b83836200084d565b9150826002028217905092915050565b620008968262000611565b67ffffffffffffffff811115620008b257620008b16200061c565b5b620008be82546200067a565b620008cb828285620007f0565b600060209050601f831160018114620009035760008415620008ee578287015190505b620008fa85826200086d565b8655506200096a565b601f1984166200091386620006af565b60005b828110156200093d5784890151825560018201915060208501945060208101905062000916565b868310156200095d578489015162000959601f8916826200084d565b8355505b6001600288020188555050505b505050505050565b600082825260208201905092915050565b7f45524332303a206d696e7420746f20746865207a65726f206164647265737300600082015250565b6000620009bb601f8362000972565b9150620009c88262000983565b602082019050919050565b60006020820190508181036000830152620009ee81620009ac565b9050919050565b7f4e487b7100000000000000000000000000000000000000000000000000000000600052601160045260246000fd5b600062000a318262000737565b915062000a3e8362000737565b925082820190508082111562000a595762000a58620009f5565b5b92915050565b62000a6a8162000737565b82525050565b600060208201905062000a87600083018462000a5f565b92915050565b600062000a9a8262000737565b915062000aa78362000737565b925082820390508181111562000ac25762000ac1620009f5565b5b92915050565b600080fd5b600080fd5b6000808585111562000ae95762000ae862000ac8565b5b8386111562000afd5762000afc62000acd565b5b6001850283019150848603905094509492505050565b600082905092915050565b60007fffffffffffffffffffffffffffffffffffffffff00000000000000000000000082169050919050565b600062000b58838362000b13565b8262000b65813562000b1e565b9250601482101562000ba85762000ba37fffffffffffffffffffffffffffffffffffffffff00000000000000000000000083601403600802620006d4565b831692505b505092915050565b608051613c3562000bcc6000396000610d140152613c356000f3fe608060405234801561001057600080fd5b50600436106102485760003560e01c80636a6278421161013b578063a457c2d7116100b8578063da92d3ae1161007c578063da92d3ae14610717578063dd54291b14610733578063dd62ed3e14610751578063e49e4d8e14610781578063f2fde38b1461079d57610248565b8063a457c2d714610639578063a9059cbb14610669578063ba8ab6ed14610699578063caab9c91146106c9578063cab737a6146106e757610248565b8063842e876b116100ff578063842e876b146105935780638da5cb5b146105c35780638e08254c146105e15780638e587db5146105ff57806395d89b411461061b57610248565b80636a6278421461050357806370a082311461051f578063715018a61461054f5780637735f54f146105595780637e4831d31461057557610248565b80632854bc7e116101c9578063447d532b1161018d578063447d532b1461045f5780634d24508c1461047d57806350bcb11f14610499578063572b6c05146104b557806364c6fef4146104e557610248565b80632854bc7e146103bb5780632eb4a7ab146103d75780632faac830146103f5578063313ce56714610411578063395093511461042f57610248565b80631497d3c1116102105780631497d3c1146102f157806318160ddd1461030d5780631e3116dd1461032b57806323b872dd1461035b578063258c1ef51461038b57610248565b806305b23f2f1461024d57806306fdde031461026b5780630865912914610289578063095ea7b3146102a55780630f088488146102d5575b600080fd5b6102556107b9565b6040516102629190612615565b60405180910390f35b6102736107bf565b60405161028091906126c0565b60405180910390f35b6102a3600480360381019061029e919061272e565b610851565b005b6102bf60048036038101906102ba91906127e5565b610876565b6040516102cc9190612834565b60405180910390f35b6102ef60048036038101906102ea919061284f565b610899565b005b61030b600480360381019061030691906128e1565b6108ab565b005b6103156109a4565b6040516103229190612615565b60405180910390f35b6103456004803603810190610340919061292e565b6109ae565b6040516103529190612615565b60405180910390f35b6103756004803603810190610370919061295b565b6109c6565b6040516103829190612834565b60405180910390f35b6103a560048036038101906103a09190612ade565b6109f5565b6040516103b29190612834565b60405180910390f35b6103d560048036038101906103d0919061284f565b610a9b565b005b6103df610aad565b6040516103ec9190612b53565b60405180910390f35b61040f600480360381019061040a9190612bc4565b610ab3565b005b610419610c2e565b6040516104269190612c61565b60405180910390f35b610449600480360381019061044491906127e5565b610c37565b6040516104569190612834565b60405180910390f35b610467610c6e565b6040516104749190612615565b60405180910390f35b6104976004803603810190610492919061292e565b610c74565b005b6104b360048036038101906104ae91906127e5565b610cc0565b005b6104cf60048036038101906104ca919061292e565b610d10565b6040516104dc9190612834565b60405180910390f35b6104ed610d68565b6040516104fa9190612834565b60405180910390f35b61051d6004803603810190610518919061292e565b610d7b565b005b6105396004803603810190610534919061292e565b610e21565b6040516105469190612615565b60405180910390f35b610557610e69565b005b610573600480360381019061056e9190612cd2565b610e7d565b005b61057d611016565b60405161058a9190612834565b60405180910390f35b6105ad60048036038101906105a8919061292e565b611029565b6040516105ba9190612834565b60405180910390f35b6105cb611049565b6040516105d89190612d41565b60405180910390f35b6105e9611073565b6040516105f69190612d41565b60405180910390f35b6106196004803603810190610614919061272e565b611099565b005b6106236110be565b60405161063091906126c0565b60405180910390f35b610653600480360381019061064e91906127e5565b611150565b6040516106609190612834565b60405180910390f35b610683600480360381019061067e91906127e5565b6111c7565b6040516106909190612834565b60405180910390f35b6106b360048036038101906106ae919061292e565b6111ea565b6040516106c09190612d41565b60405180910390f35b6106d161121d565b6040516106de9190612615565b60405180910390f35b61070160048036038101906106fc9190612d5c565b611223565b60405161070e9190612834565b60405180910390f35b610731600480360381019061072c919061292e565b611252565b005b61073b6112f8565b6040516107489190612615565b60405180910390f35b61076b60048036038101906107669190612d5c565b6112fe565b6040516107789190612615565b60405180910390f35b61079b60048036038101906107969190612cd2565b611385565b005b6107b760048036038101906107b2919061292e565b611486565b005b600d5481565b6060600380546107ce90612dcb565b80601f01602080910402602001604051908101604052809291908181526020018280546107fa90612dcb565b80156108475780601f1061081c57610100808354040283529160200191610847565b820191906000526020600020905b81548152906001019060200180831161082a57829003601f168201915b5050505050905090565b61085961158f565b80600b60006101000a81548160ff02191690831515021790555050565b60008061088161160d565b905061088e81858561161c565b600191505092915050565b6108a161158f565b80600f8190555050565b6108b361158f565b60005b8282905081101561099f5760008383838181106108d6576108d5612dfc565b5b90506020020160208101906108eb919061292e565b90506001600860008373ffffffffffffffffffffffffffffffffffffffff1673ffffffffffffffffffffffffffffffffffffffff16815260200190815260200160002060006101000a81548160ff021916908315150217905550600d54600960008373ffffffffffffffffffffffffffffffffffffffff1673ffffffffffffffffffffffffffffffffffffffff1681526020019081526020016000208190555050808061099790612e5a565b9150506108b6565b505050565b6000600254905090565b60096020528060005260406000206000915090505481565b6000806109d161160d565b90506109de8582856117e5565b6109e9858585611871565b60019150509392505050565b60008083604051602001610a099190612eea565b6040516020818303038152906040528051906020012090506000610a2c82611ae7565b9050601060009054906101000a900473ffffffffffffffffffffffffffffffffffffffff1673ffffffffffffffffffffffffffffffffffffffff16610a7a8583611b1d90919063ffffffff16565b73ffffffffffffffffffffffffffffffffffffffff16149250505092915050565b610aa361158f565b80600c8190555050565b60065481565b610abb61158f565b818190508484905014610b03576040517f08c379a0000000000000000000000000000000000000000000000000000000008152600401610afa90612f51565b60405180910390fd5b60005b84849050811015610c2757600160086000878785818110610b2a57610b29612dfc565b5b9050602002016020810190610b3f919061292e565b73ffffffffffffffffffffffffffffffffffffffff1673ffffffffffffffffffffffffffffffffffffffff16815260200190815260200160002060006101000a81548160ff021916908315150217905550828282818110610ba357610ba2612dfc565b5b9050602002013560096000878785818110610bc157610bc0612dfc565b5b9050602002016020810190610bd6919061292e565b73ffffffffffffffffffffffffffffffffffffffff1673ffffffffffffffffffffffffffffffffffffffff168152602001908152602001600020819055508080610c1f90612e5a565b915050610b06565b5050505050565b60006012905090565b600080610c4261160d565b9050610c63818585610c5485896112fe565b610c5e9190612f71565b61161c565b600191505092915050565b600e5481565b610c7c61158f565b80601060006101000a81548173ffffffffffffffffffffffffffffffffffffffff021916908373ffffffffffffffffffffffffffffffffffffffff16021790555050565b610cc861158f565b80600960008473ffffffffffffffffffffffffffffffffffffffff1673ffffffffffffffffffffffffffffffffffffffff168152602001908152602001600020819055505050565b60007f000000000000000000000000000000000000000000000000000000000000000073ffffffffffffffffffffffffffffffffffffffff168273ffffffffffffffffffffffffffffffffffffffff16149050919050565b600b60009054906101000a900460ff1681565b6000610d8561160d565b9050600860008273ffffffffffffffffffffffffffffffffffffffff1673ffffffffffffffffffffffffffffffffffffffff16815260200190815260200160002060009054906101000a900460ff16610e13576040517f08c379a0000000000000000000000000000000000000000000000000000000008152600401610e0a90613017565b60405180910390fd5b610e1d8282611b44565b5050565b60008060008373ffffffffffffffffffffffffffffffffffffffff1673ffffffffffffffffffffffffffffffffffffffff168152602001908152602001600020549050919050565b610e7161158f565b610e7b6000611ee3565b565b6000610e8761160d565b9050610ed78184848080601f016020809104026020016040519081016040528093929190818152602001838380828437600081840152601f19601f820116905080830192505050505050506109f5565b610f16576040517f08c379a0000000000000000000000000000000000000000000000000000000008152600401610f0d90613083565b60405180910390fd5b600860008273ffffffffffffffffffffffffffffffffffffffff1673ffffffffffffffffffffffffffffffffffffffff16815260200190815260200160002060009054906101000a900460ff16611006576001600860008373ffffffffffffffffffffffffffffffffffffffff1673ffffffffffffffffffffffffffffffffffffffff16815260200190815260200160002060006101000a81548160ff021916908315150217905550600d54600960008373ffffffffffffffffffffffffffffffffffffffff1673ffffffffffffffffffffffffffffffffffffffff168152602001908152602001600020819055505b6110108482611b44565b50505050565b600b60019054906101000a900460ff1681565b60086020528060005260406000206000915054906101000a900460ff1681565b6000600560009054906101000a900473ffffffffffffffffffffffffffffffffffffffff16905090565b601060009054906101000a900473ffffffffffffffffffffffffffffffffffffffff1681565b6110a161158f565b80600b60016101000a81548160ff02191690831515021790555050565b6060600480546110cd90612dcb565b80601f01602080910402602001604051908101604052809291908181526020018280546110f990612dcb565b80156111465780601f1061111b57610100808354040283529160200191611146565b820191906000526020600020905b81548152906001019060200180831161112957829003601f168201915b5050505050905090565b60008061115b61160d565b9050600061116982866112fe565b9050838110156111ae576040517f08c379a00000000000000000000000000000000000000000000000000000000081526004016111a590613115565b60405180910390fd5b6111bb828686840361161c565b60019250505092915050565b6000806111d261160d565b90506111df818585611871565b600191505092915050565b60076020528060005260406000206000915054906101000a900473ffffffffffffffffffffffffffffffffffffffff1681565b600f5481565b600a6020528160005260406000206020528060005260406000206000915091509054906101000a900460ff1681565b600061125c61160d565b9050600860008273ffffffffffffffffffffffffffffffffffffffff1673ffffffffffffffffffffffffffffffffffffffff16815260200190815260200160002060009054906101000a900460ff166112ea576040517f08c379a00000000000000000000000000000000000000000000000000000000081526004016112e1906131a7565b60405180910390fd5b6112f48183611fa9565b5050565b600c5481565b6000600160008473ffffffffffffffffffffffffffffffffffffffff1673ffffffffffffffffffffffffffffffffffffffff16815260200190815260200160002060008373ffffffffffffffffffffffffffffffffffffffff1673ffffffffffffffffffffffffffffffffffffffff16815260200190815260200160002054905092915050565b600061138f61160d565b90506113df8184848080601f016020809104026020016040519081016040528093929190818152602001838380828437600081840152601f19601f820116905080830192505050505050506109f5565b61141e576040517f08c379a000000000000000000000000000000000000000000000000000000000815260040161141590613083565b60405180910390fd5b6001600860008373ffffffffffffffffffffffffffffffffffffffff1673ffffffffffffffffffffffffffffffffffffffff16815260200190815260200160002060006101000a81548160ff0219169083151502179055506114808185611fa9565b50505050565b61148e61158f565b600073ffffffffffffffffffffffffffffffffffffffff168173ffffffffffffffffffffffffffffffffffffffff16036114fd576040517f08c379a00000000000000000000000000000000000000000000000000000000081526004016114f490613239565b60405180910390fd5b61150681611ee3565b50565b60008060003690509050600061151d6121f4565b905061152833610d10565b80156115345750808210155b1561156e5760003682846115489190613259565b90809261155793929190613297565b906115629190613316565b60601c9250505061157b565b61157661157e565b925050505b90565b600033905090565b60006014905090565b61159761160d565b73ffffffffffffffffffffffffffffffffffffffff166115b5611049565b73ffffffffffffffffffffffffffffffffffffffff161461160b576040517f08c379a0000000000000000000000000000000000000000000000000000000008152600401611602906133c1565b60405180910390fd5b565b6000611617611509565b905090565b600073ffffffffffffffffffffffffffffffffffffffff168373ffffffffffffffffffffffffffffffffffffffff160361168b576040517f08c379a000000000000000000000000000000000000000000000000000000000815260040161168290613453565b60405180910390fd5b600073ffffffffffffffffffffffffffffffffffffffff168273ffffffffffffffffffffffffffffffffffffffff16036116fa576040517f08c379a00000000000000000000000000000000000000000000000000000000081526004016116f1906134e5565b60405180910390fd5b80600160008573ffffffffffffffffffffffffffffffffffffffff1673ffffffffffffffffffffffffffffffffffffffff16815260200190815260200160002060008473ffffffffffffffffffffffffffffffffffffffff1673ffffffffffffffffffffffffffffffffffffffff168152602001908152602001600020819055508173ffffffffffffffffffffffffffffffffffffffff168373ffffffffffffffffffffffffffffffffffffffff167f8c5be1e5ebec7d5bd14f71427d1e84f3dd0314c0f7b2291e5b200ac8c7c3b925836040516117d89190612615565b60405180910390a3505050565b60006117f184846112fe565b90507fffffffffffffffffffffffffffffffffffffffffffffffffffffffffffffffff811461186b578181101561185d576040517f08c379a000000000000000000000000000000000000000000000000000000000815260040161185490613551565b60405180910390fd5b61186a848484840361161c565b5b50505050565b600073ffffffffffffffffffffffffffffffffffffffff168373ffffffffffffffffffffffffffffffffffffffff16036118e0576040517f08c379a00000000000000000000000000000000000000000000000000000000081526004016118d7906135e3565b60405180910390fd5b600073ffffffffffffffffffffffffffffffffffffffff168273ffffffffffffffffffffffffffffffffffffffff160361194f576040517f08c379a000000000000000000000000000000000000000000000000000000000815260040161194690613675565b60405180910390fd5b61195a838383612203565b60008060008573ffffffffffffffffffffffffffffffffffffffff1673ffffffffffffffffffffffffffffffffffffffff168152602001908152602001600020549050818110156119e0576040517f08c379a00000000000000000000000000000000000000000000000000000000081526004016119d790613707565b60405180910390fd5b8181036000808673ffffffffffffffffffffffffffffffffffffffff1673ffffffffffffffffffffffffffffffffffffffff16815260200190815260200160002081905550816000808573ffffffffffffffffffffffffffffffffffffffff1673ffffffffffffffffffffffffffffffffffffffff168152602001908152602001600020600082825401925050819055508273ffffffffffffffffffffffffffffffffffffffff168473ffffffffffffffffffffffffffffffffffffffff167fddf252ad1be2c89b69c2b068fc378daa952ba7f163c4a11628f55a4df523b3ef84604051611ace9190612615565b60405180910390a3611ae1848484612208565b50505050565b60007f19457468657265756d205369676e6564204d6573736167653a0a33320000000060005281601c52603c6000209050919050565b6000806000611b2c858561220d565b91509150611b398161225e565b819250505092915050565b600b60019054906101000a900460ff1615611b94576040517f08c379a0000000000000000000000000000000000000000000000000000000008152600401611b8b90613799565b60405180910390fd5b600a60008273ffffffffffffffffffffffffffffffffffffffff1673ffffffffffffffffffffffffffffffffffffffff16815260200190815260200160002060008373ffffffffffffffffffffffffffffffffffffffff1673ffffffffffffffffffffffffffffffffffffffff16815260200190815260200160002060009054906101000a900460ff1615611c5e576040517f08c379a0000000000000000000000000000000000000000000000000000000008152600401611c559061382b565b60405180910390fd5b6000600960008373ffffffffffffffffffffffffffffffffffffffff1673ffffffffffffffffffffffffffffffffffffffff168152602001908152602001600020549050600c54600f5482611cb16109a4565b611cbb9190612f71565b611cc59190612f71565b1115611d06576040517f08c379a0000000000000000000000000000000000000000000000000000000008152600401611cfd906138bd565b60405180910390fd5b6000600760008473ffffffffffffffffffffffffffffffffffffffff1673ffffffffffffffffffffffffffffffffffffffff16815260200190815260200160002060009054906101000a900473ffffffffffffffffffffffffffffffffffffffff1690506001600a60008573ffffffffffffffffffffffffffffffffffffffff1673ffffffffffffffffffffffffffffffffffffffff16815260200190815260200160002060008673ffffffffffffffffffffffffffffffffffffffff1673ffffffffffffffffffffffffffffffffffffffff16815260200190815260200160002060006101000a81548160ff0219169083151502179055508373ffffffffffffffffffffffffffffffffffffffff168173ffffffffffffffffffffffffffffffffffffffff1614611edd57611e3c84836123c4565b600073ffffffffffffffffffffffffffffffffffffffff168173ffffffffffffffffffffffffffffffffffffffff1614611edc57611edb600760008573ffffffffffffffffffffffffffffffffffffffff1673ffffffffffffffffffffffffffffffffffffffff16815260200190815260200160002060009054906101000a900473ffffffffffffffffffffffffffffffffffffffff16600f546123c4565b5b5b50505050565b6000600560009054906101000a900473ffffffffffffffffffffffffffffffffffffffff16905081600560006101000a81548173ffffffffffffffffffffffffffffffffffffffff021916908373ffffffffffffffffffffffffffffffffffffffff1602179055508173ffffffffffffffffffffffffffffffffffffffff168173ffffffffffffffffffffffffffffffffffffffff167f8be0079c531659141344cd1fd0a4f28419497f9722a3daafe3b4186f6b6457e060405160405180910390a35050565b600b60009054906101000a900460ff1615611ff9576040517f08c379a0000000000000000000000000000000000000000000000000000000008152600401611ff090613929565b60405180910390fd5b600073ffffffffffffffffffffffffffffffffffffffff16600760008473ffffffffffffffffffffffffffffffffffffffff1673ffffffffffffffffffffffffffffffffffffffff16815260200190815260200160002060009054906101000a900473ffffffffffffffffffffffffffffffffffffffff1673ffffffffffffffffffffffffffffffffffffffff16146120c7576040517f08c379a00000000000000000000000000000000000000000000000000000000081526004016120be90613995565b60405180910390fd5b80600760008473ffffffffffffffffffffffffffffffffffffffff1673ffffffffffffffffffffffffffffffffffffffff16815260200190815260200160002060006101000a81548173ffffffffffffffffffffffffffffffffffffffff021916908373ffffffffffffffffffffffffffffffffffffffff160217905550600e54600960008473ffffffffffffffffffffffffffffffffffffffff1673ffffffffffffffffffffffffffffffffffffffff16815260200190815260200160002081905550600c54600e546121996109a4565b6121a39190612f71565b11156121e4576040517f08c379a00000000000000000000000000000000000000000000000000000000081526004016121db906138bd565b60405180910390fd5b6121f081600e546123c4565b5050565b60006121fe611586565b905090565b505050565b505050565b600080604183510361224e5760008060006020860151925060408601519150606086015160001a90506122428782858561251a565b94509450505050612257565b60006002915091505b9250929050565b60006004811115612272576122716139b5565b5b816004811115612285576122846139b5565b5b03156123c1576001600481111561229f5761229e6139b5565b5b8160048111156122b2576122b16139b5565b5b036122f2576040517f08c379a00000000000000000000000000000000000000000000000000000000081526004016122e990613a30565b60405180910390fd5b60026004811115612306576123056139b5565b5b816004811115612319576123186139b5565b5b03612359576040517f08c379a000000000000000000000000000000000000000000000000000000000815260040161235090613a9c565b60405180910390fd5b6003600481111561236d5761236c6139b5565b5b8160048111156123805761237f6139b5565b5b036123c0576040517f08c379a00000000000000000000000000000000000000000000000000000000081526004016123b790613b2e565b60405180910390fd5b5b50565b600073ffffffffffffffffffffffffffffffffffffffff168273ffffffffffffffffffffffffffffffffffffffff1603612433576040517f08c379a000000000000000000000000000000000000000000000000000000000815260040161242a90613b9a565b60405180910390fd5b61243f60008383612203565b80600260008282546124519190612f71565b92505081905550806000808473ffffffffffffffffffffffffffffffffffffffff1673ffffffffffffffffffffffffffffffffffffffff168152602001908152602001600020600082825401925050819055508173ffffffffffffffffffffffffffffffffffffffff16600073ffffffffffffffffffffffffffffffffffffffff167fddf252ad1be2c89b69c2b068fc378daa952ba7f163c4a11628f55a4df523b3ef836040516125029190612615565b60405180910390a361251660008383612208565b5050565b6000807f7fffffffffffffffffffffffffffffff5d576e7357a4501ddfe92f46681b20a08360001c11156125555760006003915091506125f3565b60006001878787876040516000815260200160405260405161257a9493929190613bba565b6020604051602081039080840390855afa15801561259c573d6000803e3d6000fd5b505050602060405103519050600073ffffffffffffffffffffffffffffffffffffffff168173ffffffffffffffffffffffffffffffffffffffff16036125ea576000600192509250506125f3565b80600092509250505b94509492505050565b6000819050919050565b61260f816125fc565b82525050565b600060208201905061262a6000830184612606565b92915050565b600081519050919050565b600082825260208201905092915050565b60005b8381101561266a57808201518184015260208101905061264f565b60008484015250505050565b6000601f19601f8301169050919050565b600061269282612630565b61269c818561263b565b93506126ac81856020860161264c565b6126b581612676565b840191505092915050565b600060208201905081810360008301526126da8184612687565b905092915050565b6000604051905090565b600080fd5b600080fd5b60008115159050919050565b61270b816126f6565b811461271657600080fd5b50565b60008135905061272881612702565b92915050565b600060208284031215612744576127436126ec565b5b600061275284828501612719565b91505092915050565b600073ffffffffffffffffffffffffffffffffffffffff82169050919050565b60006127868261275b565b9050919050565b6127968161277b565b81146127a157600080fd5b50565b6000813590506127b38161278d565b92915050565b6127c2816125fc565b81146127cd57600080fd5b50565b6000813590506127df816127b9565b92915050565b600080604083850312156127fc576127fb6126ec565b5b600061280a858286016127a4565b925050602061281b858286016127d0565b9150509250929050565b61282e816126f6565b82525050565b60006020820190506128496000830184612825565b92915050565b600060208284031215612865576128646126ec565b5b6000612873848285016127d0565b91505092915050565b600080fd5b600080fd5b600080fd5b60008083601f8401126128a1576128a061287c565b5b8235905067ffffffffffffffff8111156128be576128bd612881565b5b6020830191508360208202830111156128da576128d9612886565b5b9250929050565b600080602083850312156128f8576128f76126ec565b5b600083013567ffffffffffffffff811115612916576129156126f1565b5b6129228582860161288b565b92509250509250929050565b600060208284031215612944576129436126ec565b5b6000612952848285016127a4565b91505092915050565b600080600060608486031215612974576129736126ec565b5b6000612982868287016127a4565b9350506020612993868287016127a4565b92505060406129a4868287016127d0565b9150509250925092565b600080fd5b7f4e487b7100000000000000000000000000000000000000000000000000000000600052604160045260246000fd5b6129eb82612676565b810181811067ffffffffffffffff82111715612a0a57612a096129b3565b5b80604052505050565b6000612a1d6126e2565b9050612a2982826129e2565b919050565b600067ffffffffffffffff821115612a4957612a486129b3565b5b612a5282612676565b9050602081019050919050565b82818337600083830152505050565b6000612a81612a7c84612a2e565b612a13565b905082815260208101848484011115612a9d57612a9c6129ae565b5b612aa8848285612a5f565b509392505050565b600082601f830112612ac557612ac461287c565b5b8135612ad5848260208601612a6e565b91505092915050565b60008060408385031215612af557612af46126ec565b5b6000612b03858286016127a4565b925050602083013567ffffffffffffffff811115612b2457612b236126f1565b5b612b3085828601612ab0565b9150509250929050565b6000819050919050565b612b4d81612b3a565b82525050565b6000602082019050612b686000830184612b44565b92915050565b60008083601f840112612b8457612b8361287c565b5b8235905067ffffffffffffffff811115612ba157612ba0612881565b5b602083019150836020820283011115612bbd57612bbc612886565b5b9250929050565b60008060008060408587031215612bde57612bdd6126ec565b5b600085013567ffffffffffffffff811115612bfc57612bfb6126f1565b5b612c088782880161288b565b9450945050602085013567ffffffffffffffff811115612c2b57612c2a6126f1565b5b612c3787828801612b6e565b925092505092959194509250565b600060ff82169050919050565b612c5b81612c45565b82525050565b6000602082019050612c766000830184612c52565b92915050565b60008083601f840112612c9257612c9161287c565b5b8235905067ffffffffffffffff811115612caf57612cae612881565b5b602083019150836001820283011115612ccb57612cca612886565b5b9250929050565b600080600060408486031215612ceb57612cea6126ec565b5b6000612cf9868287016127a4565b935050602084013567ffffffffffffffff811115612d1a57612d196126f1565b5b612d2686828701612c7c565b92509250509250925092565b612d3b8161277b565b82525050565b6000602082019050612d566000830184612d32565b92915050565b60008060408385031215612d7357612d726126ec565b5b6000612d81858286016127a4565b9250506020612d92858286016127a4565b9150509250929050565b7f4e487b7100000000000000000000000000000000000000000000000000000000600052602260045260246000fd5b60006002820490506001821680612de357607f821691505b602082108103612df657612df5612d9c565b5b50919050565b7f4e487b7100000000000000000000000000000000000000000000000000000000600052603260045260246000fd5b7f4e487b7100000000000000000000000000000000000000000000000000000000600052601160045260246000fd5b6000612e65826125fc565b91507fffffffffffffffffffffffffffffffffffffffffffffffffffffffffffffffff8203612e9757612e96612e2b565b5b600182019050919050565b60008160601b9050919050565b6000612eba82612ea2565b9050919050565b6000612ecc82612eaf565b9050919050565b612ee4612edf8261277b565b612ec1565b82525050565b6000612ef68284612ed3565b60148201915081905092915050565b7f4d69736d61746368656420617272617973206c656e6774680000000000000000600082015250565b6000612f3b60188361263b565b9150612f4682612f05565b602082019050919050565b60006020820190508181036000830152612f6a81612f2e565b9050919050565b6000612f7c826125fc565b9150612f87836125fc565b9250828201905080821115612f9f57612f9e612e2b565b5b92915050565b7f43686970206973206e6f74207365656465643b206d696e74696e67206e6f742060008201527f616c6c6f7765642e000000000000000000000000000000000000000000000000602082015250565b600061300160288361263b565b915061300c82612fa5565b604082019050919050565b6000602082019050818103600083015261303081612ff4565b9050919050565b7f496e76616c6964207369676e6174757265000000000000000000000000000000600082015250565b600061306d60118361263b565b915061307882613037565b602082019050919050565b6000602082019050818103600083015261309c81613060565b9050919050565b7f45524332303a2064656372656173656420616c6c6f77616e63652062656c6f7760008201527f207a65726f000000000000000000000000000000000000000000000000000000602082015250565b60006130ff60258361263b565b915061310a826130a3565b604082019050919050565b6000602082019050818103600083015261312e816130f2565b9050919050565b7f43686970206973206e6f74207365656465643b206f776e65727368697020636c60008201527f61696d206e6f7420616c6c6f7765642e00000000000000000000000000000000602082015250565b600061319160308361263b565b915061319c82613135565b604082019050919050565b600060208201905081810360008301526131c081613184565b9050919050565b7f4f776e61626c653a206e6577206f776e657220697320746865207a65726f206160008201527f6464726573730000000000000000000000000000000000000000000000000000602082015250565b600061322360268361263b565b915061322e826131c7565b604082019050919050565b6000602082019050818103600083015261325281613216565b9050919050565b6000613264826125fc565b915061326f836125fc565b925082820390508181111561328757613286612e2b565b5b92915050565b600080fd5b600080fd5b600080858511156132ab576132aa61328d565b5b838611156132bc576132bb613292565b5b6001850283019150848603905094509492505050565b600082905092915050565b60007fffffffffffffffffffffffffffffffffffffffff00000000000000000000000082169050919050565b600082821b905092915050565b600061332283836132d2565b8261332d81356132dd565b9250601482101561336d576133687fffffffffffffffffffffffffffffffffffffffff00000000000000000000000083601403600802613309565b831692505b505092915050565b7f4f776e61626c653a2063616c6c6572206973206e6f7420746865206f776e6572600082015250565b60006133ab60208361263b565b91506133b682613375565b602082019050919050565b600060208201905081810360008301526133da8161339e565b9050919050565b7f45524332303a20617070726f76652066726f6d20746865207a65726f2061646460008201527f7265737300000000000000000000000000000000000000000000000000000000602082015250565b600061343d60248361263b565b9150613448826133e1565b604082019050919050565b6000602082019050818103600083015261346c81613430565b9050919050565b7f45524332303a20617070726f766520746f20746865207a65726f20616464726560008201527f7373000000000000000000000000000000000000000000000000000000000000602082015250565b60006134cf60228361263b565b91506134da82613473565b604082019050919050565b600060208201905081810360008301526134fe816134c2565b9050919050565b7f45524332303a20696e73756666696369656e7420616c6c6f77616e6365000000600082015250565b600061353b601d8361263b565b915061354682613505565b602082019050919050565b6000602082019050818103600083015261356a8161352e565b9050919050565b7f45524332303a207472616e736665722066726f6d20746865207a65726f20616460008201527f6472657373000000000000000000000000000000000000000000000000000000602082015250565b60006135cd60258361263b565b91506135d882613571565b604082019050919050565b600060208201905081810360008301526135fc816135c0565b9050919050565b7f45524332303a207472616e7366657220746f20746865207a65726f206164647260008201527f6573730000000000000000000000000000000000000000000000000000000000602082015250565b600061365f60238361263b565b915061366a82613603565b604082019050919050565b6000602082019050818103600083015261368e81613652565b9050919050565b7f45524332303a207472616e7366657220616d6f756e742065786365656473206260008201527f616c616e63650000000000000000000000000000000000000000000000000000602082015250565b60006136f160268361263b565b91506136fc82613695565b604082019050919050565b60006020820190508181036000830152613720816136e4565b9050919050565b7f53656564696e6720616e64206d696e74696e67206172652063757272656e746c60008201527f792064697361626c65642e000000000000000000000000000000000000000000602082015250565b6000613783602b8361263b565b915061378e82613727565b604082019050919050565b600060208201905081810360008301526137b281613776565b9050919050565b7f5363616e6e65722068617320616c7265616479206d696e74656420746869732060008201527f6368697049642e00000000000000000000000000000000000000000000000000602082015250565b600061381560278361263b565b9150613820826137b9565b604082019050919050565b6000602082019050818103600083015261384481613808565b9050919050565b7f43616e6e6f74206d696e742c206d61792065786365656420746f6b656e20636160008201527f7000000000000000000000000000000000000000000000000000000000000000602082015250565b60006138a760218361263b565b91506138b28261384b565b604082019050919050565b600060208201905081810360008301526138d68161389a565b9050919050565b7f436c61696d696e672069732063757272656e746c792064697361626c65642e00600082015250565b6000613913601f8361263b565b915061391e826138dd565b602082019050919050565b6000602082019050818103600083015261394281613906565b9050919050565b7f4f776e65727368697020616c726561647920636c61696d65642e000000000000600082015250565b600061397f601a8361263b565b915061398a82613949565b602082019050919050565b600060208201905081810360008301526139ae81613972565b9050919050565b7f4e487b7100000000000000000000000000000000000000000000000000000000600052602160045260246000fd5b7f45434453413a20696e76616c6964207369676e61747572650000000000000000600082015250565b6000613a1a60188361263b565b9150613a25826139e4565b602082019050919050565b60006020820190508181036000830152613a4981613a0d565b9050919050565b7f45434453413a20696e76616c6964207369676e6174757265206c656e67746800600082015250565b6000613a86601f8361263b565b9150613a9182613a50565b602082019050919050565b60006020820190508181036000830152613ab581613a79565b9050919050565b7f45434453413a20696e76616c6964207369676e6174757265202773272076616c60008201527f7565000000000000000000000000000000000000000000000000000000000000602082015250565b6000613b1860228361263b565b9150613b2382613abc565b604082019050919050565b60006020820190508181036000830152613b4781613b0b565b9050919050565b7f45524332303a206d696e7420746f20746865207a65726f206164647265737300600082015250565b6000613b84601f8361263b565b9150613b8f82613b4e565b602082019050919050565b60006020820190508181036000830152613bb381613b77565b9050919050565b6000608082019050613bcf6000830187612b44565b613bdc6020830186612c52565b613be96040830185612b44565b613bf66060830184612b44565b9594505050505056fea2646970667358221220adbbab7b84ebcd844bf828811b2f9be134b37d0304118deebba80785cdc1e10864736f6c63430008110033",
  "linkReferences": {},
  "deployedLinkReferences": {}
}