{
  "_format": "hh-sol-artifact-1",
  "contractName": "RerroToken",
  "sourceName": "contracts/RerroToken.sol",
  "abi": [
    {
      "inputs": [
        {
          "internalType": "address",
          "name": "trustedForwarder",
          "type": "address"
        },
        {
          "internalType": "address",
          "name": "_arxCertSigner",
          "type": "address"
        }
      ],
      "stateMutability": "nonpayable",
      "type": "constructor"
    },
    {
      "anonymous": false,
      "inputs": [
        {
          "indexed": true,
          "internalType": "address",
          "name": "owner",
          "type": "address"
        },
        {
          "indexed": true,
          "internalType": "address",
          "name": "spender",
          "type": "address"
        },
        {
          "indexed": false,
          "internalType": "uint256",
          "name": "value",
          "type": "uint256"
        }
      ],
      "name": "Approval",
      "type": "event"
    },
    {
      "anonymous": false,
      "inputs": [
        {
          "indexed": true,
          "internalType": "address",
          "name": "previousOwner",
          "type": "address"
        },
        {
          "indexed": true,
          "internalType": "address",
          "name": "newOwner",
          "type": "address"
        }
      ],
      "name": "OwnershipTransferred",
      "type": "event"
    },
    {
      "anonymous": false,
      "inputs": [
        {
          "indexed": true,
          "internalType": "address",
          "name": "from",
          "type": "address"
        },
        {
          "indexed": true,
          "internalType": "address",
          "name": "to",
          "type": "address"
        },
        {
          "indexed": false,
          "internalType": "uint256",
          "name": "value",
          "type": "uint256"
        }
      ],
      "name": "Transfer",
      "type": "event"
    },
    {
      "inputs": [
        {
          "internalType": "address",
          "name": "owner",
          "type": "address"
        },
        {
          "internalType": "address",
          "name": "spender",
          "type": "address"
        }
      ],
      "name": "allowance",
      "outputs": [
        {
          "internalType": "uint256",
          "name": "",
          "type": "uint256"
        }
      ],
      "stateMutability": "view",
      "type": "function"
    },
    {
      "inputs": [
        {
          "internalType": "address",
          "name": "spender",
          "type": "address"
        },
        {
          "internalType": "uint256",
          "name": "amount",
          "type": "uint256"
        }
      ],
      "name": "approve",
      "outputs": [
        {
          "internalType": "bool",
          "name": "",
          "type": "bool"
        }
      ],
      "stateMutability": "nonpayable",
      "type": "function"
    },
    {
      "inputs": [],
      "name": "arxCertSigner",
      "outputs": [
        {
          "internalType": "address",
          "name": "",
          "type": "address"
        }
      ],
      "stateMutability": "view",
      "type": "function"
    },
    {
      "inputs": [
        {
          "internalType": "address",
          "name": "account",
          "type": "address"
        }
      ],
      "name": "balanceOf",
      "outputs": [
        {
          "internalType": "uint256",
          "name": "",
          "type": "uint256"
        }
      ],
      "stateMutability": "view",
      "type": "function"
    },
    {
      "inputs": [
        {
          "internalType": "address[]",
          "name": "chipIds",
          "type": "address[]"
        },
        {
          "internalType": "uint256[]",
          "name": "mintAmounts",
          "type": "uint256[]"
        },
        {
          "internalType": "address[]",
          "name": "owners",
          "type": "address[]"
        }
      ],
      "name": "bulkClaim",
      "outputs": [],
      "stateMutability": "nonpayable",
      "type": "function"
    },
    {
      "inputs": [
        {
          "internalType": "address[]",
          "name": "chipIds",
          "type": "address[]"
        }
      ],
      "name": "bulkSeed",
      "outputs": [],
      "stateMutability": "nonpayable",
      "type": "function"
    },
    {
      "inputs": [
        {
          "internalType": "address[]",
          "name": "chipIds",
          "type": "address[]"
        },
        {
          "internalType": "uint256[]",
          "name": "mintAmounts",
          "type": "uint256[]"
        }
      ],
      "name": "bulkSetMintAmount",
      "outputs": [],
      "stateMutability": "nonpayable",
      "type": "function"
    },
    {
      "inputs": [
        {
          "internalType": "address",
          "name": "",
          "type": "address"
        }
      ],
      "name": "chipIdOwner",
      "outputs": [
        {
          "internalType": "address",
          "name": "",
          "type": "address"
        }
      ],
      "stateMutability": "view",
      "type": "function"
    },
    {
      "inputs": [],
      "name": "chipIdOwnerMintAmount",
      "outputs": [
        {
          "internalType": "uint256",
          "name": "",
          "type": "uint256"
        }
      ],
      "stateMutability": "view",
      "type": "function"
    },
    {
      "inputs": [
        {
          "internalType": "address",
          "name": "owner",
          "type": "address"
        }
      ],
      "name": "claimOwnership",
      "outputs": [],
      "stateMutability": "nonpayable",
      "type": "function"
    },
    {
      "inputs": [],
      "name": "claimOwnershipPaused",
      "outputs": [
        {
          "internalType": "bool",
          "name": "",
          "type": "bool"
        }
      ],
      "stateMutability": "view",
      "type": "function"
    },
    {
      "inputs": [
        {
          "internalType": "address",
          "name": "owner",
          "type": "address"
        },
        {
          "internalType": "bytes",
          "name": "signature",
          "type": "bytes"
        }
      ],
      "name": "claimOwnershipWithSignature",
      "outputs": [],
      "stateMutability": "nonpayable",
      "type": "function"
    },
    {
      "inputs": [],
      "name": "decimals",
      "outputs": [
        {
          "internalType": "uint8",
          "name": "",
          "type": "uint8"
        }
      ],
      "stateMutability": "view",
      "type": "function"
    },
    {
      "inputs": [
        {
          "internalType": "address",
          "name": "spender",
          "type": "address"
        },
        {
          "internalType": "uint256",
          "name": "subtractedValue",
          "type": "uint256"
        }
      ],
      "name": "decreaseAllowance",
      "outputs": [
        {
          "internalType": "bool",
          "name": "",
          "type": "bool"
        }
      ],
      "stateMutability": "nonpayable",
      "type": "function"
    },
    {
      "inputs": [],
      "name": "defaultClaimedMintAmount",
      "outputs": [
        {
          "internalType": "uint256",
          "name": "",
          "type": "uint256"
        }
      ],
      "stateMutability": "view",
      "type": "function"
    },
    {
      "inputs": [],
      "name": "defaultMintAmount",
      "outputs": [
        {
          "internalType": "uint256",
          "name": "",
          "type": "uint256"
        }
      ],
      "stateMutability": "view",
      "type": "function"
    },
    {
      "inputs": [
        {
          "internalType": "address",
          "name": "spender",
          "type": "address"
        },
        {
          "internalType": "uint256",
          "name": "addedValue",
          "type": "uint256"
        }
      ],
      "name": "increaseAllowance",
      "outputs": [
        {
          "internalType": "bool",
          "name": "",
          "type": "bool"
        }
      ],
      "stateMutability": "nonpayable",
      "type": "function"
    },
    {
      "inputs": [
        {
          "internalType": "address",
          "name": "forwarder",
          "type": "address"
        }
      ],
      "name": "isTrustedForwarder",
      "outputs": [
        {
          "internalType": "bool",
          "name": "",
          "type": "bool"
        }
      ],
      "stateMutability": "view",
      "type": "function"
    },
    {
      "inputs": [],
      "name": "merkleRoot",
      "outputs": [
        {
          "internalType": "bytes32",
          "name": "",
          "type": "bytes32"
        }
      ],
      "stateMutability": "view",
      "type": "function"
    },
    {
      "inputs": [
        {
          "internalType": "address",
          "name": "scanner",
          "type": "address"
        }
      ],
      "name": "mint",
      "outputs": [],
      "stateMutability": "nonpayable",
      "type": "function"
    },
    {
      "inputs": [],
      "name": "mintPaused",
      "outputs": [
        {
          "internalType": "bool",
          "name": "",
          "type": "bool"
        }
      ],
      "stateMutability": "view",
      "type": "function"
    },
    {
      "inputs": [
        {
          "internalType": "address",
          "name": "scanner",
          "type": "address"
        },
        {
          "internalType": "bytes",
          "name": "signature",
          "type": "bytes"
        }
      ],
      "name": "mintWithSignature",
      "outputs": [],
      "stateMutability": "nonpayable",
      "type": "function"
    },
    {
      "inputs": [],
      "name": "name",
      "outputs": [
        {
          "internalType": "string",
          "name": "",
          "type": "string"
        }
      ],
      "stateMutability": "view",
      "type": "function"
    },
    {
      "inputs": [],
      "name": "owner",
      "outputs": [
        {
          "internalType": "address",
          "name": "",
          "type": "address"
        }
      ],
      "stateMutability": "view",
      "type": "function"
    },
    {
      "inputs": [],
      "name": "renounceOwnership",
      "outputs": [],
      "stateMutability": "nonpayable",
      "type": "function"
    },
    {
      "inputs": [
        {
          "internalType": "address",
          "name": "",
          "type": "address"
        },
        {
          "internalType": "address",
          "name": "",
          "type": "address"
        }
      ],
      "name": "scannerMinted",
      "outputs": [
        {
          "internalType": "bool",
          "name": "",
          "type": "bool"
        }
      ],
      "stateMutability": "view",
      "type": "function"
    },
    {
      "inputs": [
        {
          "internalType": "address",
          "name": "",
          "type": "address"
        }
      ],
      "name": "seededChipAmounts",
      "outputs": [
        {
          "internalType": "uint256",
          "name": "",
          "type": "uint256"
        }
      ],
      "stateMutability": "view",
      "type": "function"
    },
    {
      "inputs": [
        {
          "internalType": "address",
          "name": "",
          "type": "address"
        }
      ],
      "name": "seededChips",
      "outputs": [
        {
          "internalType": "bool",
          "name": "",
          "type": "bool"
        }
      ],
      "stateMutability": "view",
      "type": "function"
    },
    {
      "inputs": [
        {
          "internalType": "address",
          "name": "_newSigner",
          "type": "address"
        }
      ],
      "name": "setArxCertSigner",
      "outputs": [],
      "stateMutability": "nonpayable",
      "type": "function"
    },
    {
      "inputs": [
        {
          "internalType": "uint256",
          "name": "_amount",
          "type": "uint256"
        }
      ],
      "name": "setChipIdOwnerMintAmount",
      "outputs": [],
      "stateMutability": "nonpayable",
      "type": "function"
    },
    {
      "inputs": [
        {
          "internalType": "bool",
          "name": "_state",
          "type": "bool"
        }
      ],
      "name": "setClaimOwnershipPausedState",
      "outputs": [],
      "stateMutability": "nonpayable",
      "type": "function"
    },
    {
      "inputs": [
        {
          "internalType": "address",
          "name": "chipId",
          "type": "address"
        },
        {
          "internalType": "uint256",
          "name": "mintAmount",
          "type": "uint256"
        }
      ],
      "name": "setMintAmount",
      "outputs": [],
      "stateMutability": "nonpayable",
      "type": "function"
    },
    {
      "inputs": [
        {
          "internalType": "bool",
          "name": "_state",
          "type": "bool"
        }
      ],
      "name": "setMintPausedState",
      "outputs": [],
      "stateMutability": "nonpayable",
      "type": "function"
    },
    {
      "inputs": [
        {
          "internalType": "uint256",
          "name": "_newCap",
          "type": "uint256"
        }
      ],
      "name": "setTokenCap",
      "outputs": [],
      "stateMutability": "nonpayable",
      "type": "function"
    },
    {
      "inputs": [],
      "name": "symbol",
      "outputs": [
        {
          "internalType": "string",
          "name": "",
          "type": "string"
        }
      ],
      "stateMutability": "view",
      "type": "function"
    },
    {
      "inputs": [],
      "name": "tokenCap",
      "outputs": [
        {
          "internalType": "uint256",
          "name": "",
          "type": "uint256"
        }
      ],
      "stateMutability": "view",
      "type": "function"
    },
    {
      "inputs": [],
      "name": "totalSupply",
      "outputs": [
        {
          "internalType": "uint256",
          "name": "",
          "type": "uint256"
        }
      ],
      "stateMutability": "view",
      "type": "function"
    },
    {
      "inputs": [
        {
          "internalType": "address",
          "name": "to",
          "type": "address"
        },
        {
          "internalType": "uint256",
          "name": "amount",
          "type": "uint256"
        }
      ],
      "name": "transfer",
      "outputs": [
        {
          "internalType": "bool",
          "name": "",
          "type": "bool"
        }
      ],
      "stateMutability": "nonpayable",
      "type": "function"
    },
    {
      "inputs": [
        {
          "internalType": "address",
          "name": "from",
          "type": "address"
        },
        {
          "internalType": "address",
          "name": "to",
          "type": "address"
        },
        {
          "internalType": "uint256",
          "name": "amount",
          "type": "uint256"
        }
      ],
      "name": "transferFrom",
      "outputs": [
        {
          "internalType": "bool",
          "name": "",
          "type": "bool"
        }
      ],
      "stateMutability": "nonpayable",
      "type": "function"
    },
    {
      "inputs": [
        {
          "internalType": "address",
          "name": "newOwner",
          "type": "address"
        }
      ],
      "name": "transferOwnership",
      "outputs": [],
      "stateMutability": "nonpayable",
      "type": "function"
    },
    {
      "inputs": [
        {
          "internalType": "address",
          "name": "chipId",
          "type": "address"
        },
        {
          "internalType": "bytes",
          "name": "signature",
          "type": "bytes"
        }
      ],
      "name": "verifySignature",
      "outputs": [
        {
          "internalType": "bool",
          "name": "",
          "type": "bool"
        }
      ],
      "stateMutability": "view",
      "type": "function"
    }
  ],
  "bytecode": "0x60a06040526001600b60006101000a81548160ff0219169083151502179055506001600b60016101000a81548160ff0219169083151502179055506a0c67d7d5423dfb7d7c0000600c55680d8d726b7177a80000600d55681b1ae4d6e2ef500000600e5568015af1d78b58c40000600f553480156200007d57600080fd5b5060405162004db038038062004db08339818101604052810190620000a39190620005ca565b816040518060400160405280600f81526020017f4b4f4e47204c616e6420526572726f00000000000000000000000000000000008152506040518060400160405280600581526020017f524552524f00000000000000000000000000000000000000000000000000000081525081600390816200012191906200088b565b5080600490816200013391906200088b565b5050508073ffffffffffffffffffffffffffffffffffffffff1660808173ffffffffffffffffffffffffffffffffffffffff1681525050506200018b6200017f6200020560201b60201c565b6200022160201b60201c565b80601060006101000a81548173ffffffffffffffffffffffffffffffffffffffff021916908373ffffffffffffffffffffffffffffffffffffffff160217905550620001fd73bdc95ca05cc25342ae9a96fb12cbe937efe2e28c6a013d958e63113f52740000620002e760201b60201c565b505062000bb0565b60006200021c6200045460201b620018741760201c565b905090565b6000600560009054906101000a900473ffffffffffffffffffffffffffffffffffffffff16905081600560006101000a81548173ffffffffffffffffffffffffffffffffffffffff021916908373ffffffffffffffffffffffffffffffffffffffff1602179055508173ffffffffffffffffffffffffffffffffffffffff168173ffffffffffffffffffffffffffffffffffffffff167f8be0079c531659141344cd1fd0a4f28419497f9722a3daafe3b4186f6b6457e060405160405180910390a35050565b600073ffffffffffffffffffffffffffffffffffffffff168273ffffffffffffffffffffffffffffffffffffffff160362000359576040517f08c379a00000000000000000000000000000000000000000000000000000000081526004016200035090620009d3565b60405180910390fd5b6200036d60008383620004ef60201b60201c565b806002600082825462000381919062000a24565b92505081905550806000808473ffffffffffffffffffffffffffffffffffffffff1673ffffffffffffffffffffffffffffffffffffffff168152602001908152602001600020600082825401925050819055508173ffffffffffffffffffffffffffffffffffffffff16600073ffffffffffffffffffffffffffffffffffffffff167fddf252ad1be2c89b69c2b068fc378daa952ba7f163c4a11628f55a4df523b3ef8360405162000434919062000a70565b60405180910390a36200045060008383620004f460201b60201c565b5050565b60008060003690509050600062000470620004f960201b60201c565b905062000483336200051560201b60201c565b8015620004905750808210155b15620004d2576000368284620004a7919062000a8d565b908092620004b89392919062000ad2565b90620004c5919062000b4a565b60601c92505050620004ec565b620004e76200054f60201b620018e91760201c565b925050505b90565b505050565b505050565b6000620005106200055760201b620018f11760201c565b905090565b600060805173ffffffffffffffffffffffffffffffffffffffff168273ffffffffffffffffffffffffffffffffffffffff16149050919050565b600033905090565b60006014905090565b600080fd5b600073ffffffffffffffffffffffffffffffffffffffff82169050919050565b6000620005928262000565565b9050919050565b620005a48162000585565b8114620005b057600080fd5b50565b600081519050620005c48162000599565b92915050565b60008060408385031215620005e457620005e362000560565b5b6000620005f485828601620005b3565b92505060206200060785828601620005b3565b9150509250929050565b600081519050919050565b7f4e487b7100000000000000000000000000000000000000000000000000000000600052604160045260246000fd5b7f4e487b7100000000000000000000000000000000000000000000000000000000600052602260045260246000fd5b600060028204905060018216806200069357607f821691505b602082108103620006a957620006a86200064b565b5b50919050565b60008190508160005260206000209050919050565b60006020601f8301049050919050565b600082821b905092915050565b600060088302620007137fffffffffffffffffffffffffffffffffffffffffffffffffffffffffffffffff82620006d4565b6200071f8683620006d4565b95508019841693508086168417925050509392505050565b6000819050919050565b6000819050919050565b60006200076c62000766620007608462000737565b62000741565b62000737565b9050919050565b6000819050919050565b62000788836200074b565b620007a0620007978262000773565b848454620006e1565b825550505050565b600090565b620007b7620007a8565b620007c48184846200077d565b505050565b5b81811015620007ec57620007e0600082620007ad565b600181019050620007ca565b5050565b601f8211156200083b576200080581620006af565b6200081084620006c4565b8101602085101562000820578190505b620008386200082f85620006c4565b830182620007c9565b50505b505050565b600082821c905092915050565b6000620008606000198460080262000840565b1980831691505092915050565b60006200087b83836200084d565b9150826002028217905092915050565b620008968262000611565b67ffffffffffffffff811115620008b257620008b16200061c565b5b620008be82546200067a565b620008cb828285620007f0565b600060209050601f831160018114620009035760008415620008ee578287015190505b620008fa85826200086d565b8655506200096a565b601f1984166200091386620006af565b60005b828110156200093d5784890151825560018201915060208501945060208101905062000916565b868310156200095d578489015162000959601f8916826200084d565b8355505b6001600288020188555050505b505050505050565b600082825260208201905092915050565b7f45524332303a206d696e7420746f20746865207a65726f206164647265737300600082015250565b6000620009bb601f8362000972565b9150620009c88262000983565b602082019050919050565b60006020820190508181036000830152620009ee81620009ac565b9050919050565b7f4e487b7100000000000000000000000000000000000000000000000000000000600052601160045260246000fd5b600062000a318262000737565b915062000a3e8362000737565b925082820190508082111562000a595762000a58620009f5565b5b92915050565b62000a6a8162000737565b82525050565b600060208201905062000a87600083018462000a5f565b92915050565b600062000a9a8262000737565b915062000aa78362000737565b925082820390508181111562000ac25762000ac1620009f5565b5b92915050565b600080fd5b600080fd5b6000808585111562000ae95762000ae862000ac8565b5b8386111562000afd5762000afc62000acd565b5b6001850283019150848603905094509492505050565b600082905092915050565b60007fffffffffffffffffffffffffffffffffffffffff00000000000000000000000082169050919050565b600062000b58838362000b13565b8262000b65813562000b1e565b9250601482101562000ba85762000ba37fffffffffffffffffffffffffffffffffffffffff00000000000000000000000083601403600802620006d4565b831692505b505092915050565b6080516141e462000bcc6000396000610d3b01526141e46000f3fe608060405234801561001057600080fd5b50600436106102535760003560e01c80636a62784211610146578063a457c2d7116100c3578063cab737a611610087578063cab737a61461070e578063da92d3ae1461073e578063dd54291b1461075a578063dd62ed3e14610778578063e49e4d8e146107a8578063f2fde38b146107c457610253565b8063a457c2d714610644578063a7e09c8d14610674578063a9059cbb14610690578063ba8ab6ed146106c0578063caab9c91146106f057610253565b8063842e876b1161010a578063842e876b1461059e5780638da5cb5b146105ce5780638e08254c146105ec5780638e587db51461060a57806395d89b411461062657610253565b80636a6278421461050e57806370a082311461052a578063715018a61461055a5780637735f54f146105645780637e4831d31461058057610253565b80632854bc7e116101d4578063447d532b11610198578063447d532b1461046a5780634d24508c1461048857806350bcb11f146104a4578063572b6c05146104c057806364c6fef4146104f057610253565b80632854bc7e146103c65780632eb4a7ab146103e25780632faac83014610400578063313ce5671461041c578063395093511461043a57610253565b80631497d3c11161021b5780631497d3c1146102fc57806318160ddd146103185780631e3116dd1461033657806323b872dd14610366578063258c1ef51461039657610253565b806305b23f2f1461025857806306fdde03146102765780630865912914610294578063095ea7b3146102b05780630f088488146102e0575b600080fd5b6102606107e0565b60405161026d9190612980565b60405180910390f35b61027e6107e6565b60405161028b9190612a2b565b60405180910390f35b6102ae60048036038101906102a99190612a99565b610878565b005b6102ca60048036038101906102c59190612b50565b61089d565b6040516102d79190612b9f565b60405180910390f35b6102fa60048036038101906102f59190612bba565b6108c0565b005b61031660048036038101906103119190612c4c565b6108d2565b005b6103206109cb565b60405161032d9190612980565b60405180910390f35b610350600480360381019061034b9190612c99565b6109d5565b60405161035d9190612980565b60405180910390f35b610380600480360381019061037b9190612cc6565b6109ed565b60405161038d9190612b9f565b60405180910390f35b6103b060048036038101906103ab9190612e49565b610a1c565b6040516103bd9190612b9f565b60405180910390f35b6103e060048036038101906103db9190612bba565b610ac2565b005b6103ea610ad4565b6040516103f79190612ebe565b60405180910390f35b61041a60048036038101906104159190612f2f565b610ada565b005b610424610c55565b6040516104319190612fcc565b60405180910390f35b610454600480360381019061044f9190612b50565b610c5e565b6040516104619190612b9f565b60405180910390f35b610472610c95565b60405161047f9190612980565b60405180910390f35b6104a2600480360381019061049d9190612c99565b610c9b565b005b6104be60048036038101906104b99190612b50565b610ce7565b005b6104da60048036038101906104d59190612c99565b610d37565b6040516104e79190612b9f565b60405180910390f35b6104f8610d8f565b6040516105059190612b9f565b60405180910390f35b61052860048036038101906105239190612c99565b610da2565b005b610544600480360381019061053f9190612c99565b610e48565b6040516105519190612980565b60405180910390f35b610562610e90565b005b61057e6004803603810190610579919061303d565b610ea4565b005b61058861103d565b6040516105959190612b9f565b60405180910390f35b6105b860048036038101906105b39190612c99565b611050565b6040516105c59190612b9f565b60405180910390f35b6105d6611070565b6040516105e391906130ac565b60405180910390f35b6105f461109a565b60405161060191906130ac565b60405180910390f35b610624600480360381019061061f9190612a99565b6110c0565b005b61062e6110e5565b60405161063b9190612a2b565b60405180910390f35b61065e60048036038101906106599190612b50565b611177565b60405161066b9190612b9f565b60405180910390f35b61068e600480360381019061068991906130c7565b6111ee565b005b6106aa60048036038101906106a59190612b50565b611532565b6040516106b79190612b9f565b60405180910390f35b6106da60048036038101906106d59190612c99565b611555565b6040516106e791906130ac565b60405180910390f35b6106f8611588565b6040516107059190612980565b60405180910390f35b6107286004803603810190610723919061317b565b61158e565b6040516107359190612b9f565b60405180910390f35b61075860048036038101906107539190612c99565b6115bd565b005b610762611663565b60405161076f9190612980565b60405180910390f35b610792600480360381019061078d919061317b565b611669565b60405161079f9190612980565b60405180910390f35b6107c260048036038101906107bd919061303d565b6116f0565b005b6107de60048036038101906107d99190612c99565b6117f1565b005b600d5481565b6060600380546107f5906131ea565b80601f0160208091040260200160405190810160405280929190818152602001828054610821906131ea565b801561086e5780601f106108435761010080835404028352916020019161086e565b820191906000526020600020905b81548152906001019060200180831161085157829003601f168201915b5050505050905090565b6108806118fa565b80600b60006101000a81548160ff02191690831515021790555050565b6000806108a8611978565b90506108b5818585611987565b600191505092915050565b6108c86118fa565b80600f8190555050565b6108da6118fa565b60005b828290508110156109c65760008383838181106108fd576108fc61321b565b5b90506020020160208101906109129190612c99565b90506001600860008373ffffffffffffffffffffffffffffffffffffffff1673ffffffffffffffffffffffffffffffffffffffff16815260200190815260200160002060006101000a81548160ff021916908315150217905550600d54600960008373ffffffffffffffffffffffffffffffffffffffff1673ffffffffffffffffffffffffffffffffffffffff168152602001908152602001600020819055505080806109be90613279565b9150506108dd565b505050565b6000600254905090565b60096020528060005260406000206000915090505481565b6000806109f8611978565b9050610a05858285611b50565b610a10858585611bdc565b60019150509392505050565b60008083604051602001610a309190613309565b6040516020818303038152906040528051906020012090506000610a5382611e52565b9050601060009054906101000a900473ffffffffffffffffffffffffffffffffffffffff1673ffffffffffffffffffffffffffffffffffffffff16610aa18583611e8890919063ffffffff16565b73ffffffffffffffffffffffffffffffffffffffff16149250505092915050565b610aca6118fa565b80600c8190555050565b60065481565b610ae26118fa565b818190508484905014610b2a576040517f08c379a0000000000000000000000000000000000000000000000000000000008152600401610b2190613370565b60405180910390fd5b60005b84849050811015610c4e57600160086000878785818110610b5157610b5061321b565b5b9050602002016020810190610b669190612c99565b73ffffffffffffffffffffffffffffffffffffffff1673ffffffffffffffffffffffffffffffffffffffff16815260200190815260200160002060006101000a81548160ff021916908315150217905550828282818110610bca57610bc961321b565b5b9050602002013560096000878785818110610be857610be761321b565b5b9050602002016020810190610bfd9190612c99565b73ffffffffffffffffffffffffffffffffffffffff1673ffffffffffffffffffffffffffffffffffffffff168152602001908152602001600020819055508080610c4690613279565b915050610b2d565b5050505050565b60006012905090565b600080610c69611978565b9050610c8a818585610c7b8589611669565b610c859190613390565b611987565b600191505092915050565b600e5481565b610ca36118fa565b80601060006101000a81548173ffffffffffffffffffffffffffffffffffffffff021916908373ffffffffffffffffffffffffffffffffffffffff16021790555050565b610cef6118fa565b80600960008473ffffffffffffffffffffffffffffffffffffffff1673ffffffffffffffffffffffffffffffffffffffff168152602001908152602001600020819055505050565b60007f000000000000000000000000000000000000000000000000000000000000000073ffffffffffffffffffffffffffffffffffffffff168273ffffffffffffffffffffffffffffffffffffffff16149050919050565b600b60009054906101000a900460ff1681565b6000610dac611978565b9050600860008273ffffffffffffffffffffffffffffffffffffffff1673ffffffffffffffffffffffffffffffffffffffff16815260200190815260200160002060009054906101000a900460ff16610e3a576040517f08c379a0000000000000000000000000000000000000000000000000000000008152600401610e3190613436565b60405180910390fd5b610e448282611eaf565b5050565b60008060008373ffffffffffffffffffffffffffffffffffffffff1673ffffffffffffffffffffffffffffffffffffffff168152602001908152602001600020549050919050565b610e986118fa565b610ea2600061224e565b565b6000610eae611978565b9050610efe8184848080601f016020809104026020016040519081016040528093929190818152602001838380828437600081840152601f19601f82011690508083019250505050505050610a1c565b610f3d576040517f08c379a0000000000000000000000000000000000000000000000000000000008152600401610f34906134a2565b60405180910390fd5b600860008273ffffffffffffffffffffffffffffffffffffffff1673ffffffffffffffffffffffffffffffffffffffff16815260200190815260200160002060009054906101000a900460ff1661102d576001600860008373ffffffffffffffffffffffffffffffffffffffff1673ffffffffffffffffffffffffffffffffffffffff16815260200190815260200160002060006101000a81548160ff021916908315150217905550600d54600960008373ffffffffffffffffffffffffffffffffffffffff1673ffffffffffffffffffffffffffffffffffffffff168152602001908152602001600020819055505b6110378482611eaf565b50505050565b600b60019054906101000a900460ff1681565b60086020528060005260406000206000915054906101000a900460ff1681565b6000600560009054906101000a900473ffffffffffffffffffffffffffffffffffffffff16905090565b601060009054906101000a900473ffffffffffffffffffffffffffffffffffffffff1681565b6110c86118fa565b80600b60016101000a81548160ff02191690831515021790555050565b6060600480546110f4906131ea565b80601f0160208091040260200160405190810160405280929190818152602001828054611120906131ea565b801561116d5780601f106111425761010080835404028352916020019161116d565b820191906000526020600020905b81548152906001019060200180831161115057829003601f168201915b5050505050905090565b600080611182611978565b905060006111908286611669565b9050838110156111d5576040517f08c379a00000000000000000000000000000000000000000000000000000000081526004016111cc90613534565b60405180910390fd5b6111e28286868403611987565b60019250505092915050565b6111f66118fa565b81819050868690501461123e576040517f08c379a0000000000000000000000000000000000000000000000000000000008152600401611235906135a0565b60405180910390fd5b838390508686905014611286576040517f08c379a000000000000000000000000000000000000000000000000000000000815260040161127d90613632565b60405180910390fd5b60005b868690508110156115295760008787838181106112a9576112a861321b565b5b90506020020160208101906112be9190612c99565b905060008484848181106112d5576112d461321b565b5b90506020020160208101906112ea9190612c99565b9050600073ffffffffffffffffffffffffffffffffffffffff16600760008473ffffffffffffffffffffffffffffffffffffffff1673ffffffffffffffffffffffffffffffffffffffff16815260200190815260200160002060009054906101000a900473ffffffffffffffffffffffffffffffffffffffff1673ffffffffffffffffffffffffffffffffffffffff16146113ba576040517f08c379a00000000000000000000000000000000000000000000000000000000081526004016113b1906136c4565b60405180910390fd5b6001600860008b8b878181106113d3576113d261321b565b5b90506020020160208101906113e89190612c99565b73ffffffffffffffffffffffffffffffffffffffff1673ffffffffffffffffffffffffffffffffffffffff16815260200190815260200160002060006101000a81548160ff02191690831515021790555080600760008473ffffffffffffffffffffffffffffffffffffffff1673ffffffffffffffffffffffffffffffffffffffff16815260200190815260200160002060006101000a81548173ffffffffffffffffffffffffffffffffffffffff021916908373ffffffffffffffffffffffffffffffffffffffff1602179055508686848181106114ca576114c961321b565b5b90506020020135600960008473ffffffffffffffffffffffffffffffffffffffff1673ffffffffffffffffffffffffffffffffffffffff168152602001908152602001600020819055505050808061152190613279565b915050611289565b50505050505050565b60008061153d611978565b905061154a818585611bdc565b600191505092915050565b60076020528060005260406000206000915054906101000a900473ffffffffffffffffffffffffffffffffffffffff1681565b600f5481565b600a6020528160005260406000206020528060005260406000206000915091509054906101000a900460ff1681565b60006115c7611978565b9050600860008273ffffffffffffffffffffffffffffffffffffffff1673ffffffffffffffffffffffffffffffffffffffff16815260200190815260200160002060009054906101000a900460ff16611655576040517f08c379a000000000000000000000000000000000000000000000000000000000815260040161164c90613756565b60405180910390fd5b61165f8183612314565b5050565b600c5481565b6000600160008473ffffffffffffffffffffffffffffffffffffffff1673ffffffffffffffffffffffffffffffffffffffff16815260200190815260200160002060008373ffffffffffffffffffffffffffffffffffffffff1673ffffffffffffffffffffffffffffffffffffffff16815260200190815260200160002054905092915050565b60006116fa611978565b905061174a8184848080601f016020809104026020016040519081016040528093929190818152602001838380828437600081840152601f19601f82011690508083019250505050505050610a1c565b611789576040517f08c379a0000000000000000000000000000000000000000000000000000000008152600401611780906134a2565b60405180910390fd5b6001600860008373ffffffffffffffffffffffffffffffffffffffff1673ffffffffffffffffffffffffffffffffffffffff16815260200190815260200160002060006101000a81548160ff0219169083151502179055506117eb8185612314565b50505050565b6117f96118fa565b600073ffffffffffffffffffffffffffffffffffffffff168173ffffffffffffffffffffffffffffffffffffffff1603611868576040517f08c379a000000000000000000000000000000000000000000000000000000000815260040161185f906137e8565b60405180910390fd5b6118718161224e565b50565b60008060003690509050600061188861255f565b905061189333610d37565b801561189f5750808210155b156118d95760003682846118b39190613808565b9080926118c293929190613846565b906118cd91906138c5565b60601c925050506118e6565b6118e16118e9565b925050505b90565b600033905090565b60006014905090565b611902611978565b73ffffffffffffffffffffffffffffffffffffffff16611920611070565b73ffffffffffffffffffffffffffffffffffffffff1614611976576040517f08c379a000000000000000000000000000000000000000000000000000000000815260040161196d90613970565b60405180910390fd5b565b6000611982611874565b905090565b600073ffffffffffffffffffffffffffffffffffffffff168373ffffffffffffffffffffffffffffffffffffffff16036119f6576040517f08c379a00000000000000000000000000000000000000000000000000000000081526004016119ed90613a02565b60405180910390fd5b600073ffffffffffffffffffffffffffffffffffffffff168273ffffffffffffffffffffffffffffffffffffffff1603611a65576040517f08c379a0000000000000000000000000000000000000000000000000000000008152600401611a5c90613a94565b60405180910390fd5b80600160008573ffffffffffffffffffffffffffffffffffffffff1673ffffffffffffffffffffffffffffffffffffffff16815260200190815260200160002060008473ffffffffffffffffffffffffffffffffffffffff1673ffffffffffffffffffffffffffffffffffffffff168152602001908152602001600020819055508173ffffffffffffffffffffffffffffffffffffffff168373ffffffffffffffffffffffffffffffffffffffff167f8c5be1e5ebec7d5bd14f71427d1e84f3dd0314c0f7b2291e5b200ac8c7c3b92583604051611b439190612980565b60405180910390a3505050565b6000611b5c8484611669565b90507fffffffffffffffffffffffffffffffffffffffffffffffffffffffffffffffff8114611bd65781811015611bc8576040517f08c379a0000000000000000000000000000000000000000000000000000000008152600401611bbf90613b00565b60405180910390fd5b611bd58484848403611987565b5b50505050565b600073ffffffffffffffffffffffffffffffffffffffff168373ffffffffffffffffffffffffffffffffffffffff1603611c4b576040517f08c379a0000000000000000000000000000000000000000000000000000000008152600401611c4290613b92565b60405180910390fd5b600073ffffffffffffffffffffffffffffffffffffffff168273ffffffffffffffffffffffffffffffffffffffff1603611cba576040517f08c379a0000000000000000000000000000000000000000000000000000000008152600401611cb190613c24565b60405180910390fd5b611cc583838361256e565b60008060008573ffffffffffffffffffffffffffffffffffffffff1673ffffffffffffffffffffffffffffffffffffffff16815260200190815260200160002054905081811015611d4b576040517f08c379a0000000000000000000000000000000000000000000000000000000008152600401611d4290613cb6565b60405180910390fd5b8181036000808673ffffffffffffffffffffffffffffffffffffffff1673ffffffffffffffffffffffffffffffffffffffff16815260200190815260200160002081905550816000808573ffffffffffffffffffffffffffffffffffffffff1673ffffffffffffffffffffffffffffffffffffffff168152602001908152602001600020600082825401925050819055508273ffffffffffffffffffffffffffffffffffffffff168473ffffffffffffffffffffffffffffffffffffffff167fddf252ad1be2c89b69c2b068fc378daa952ba7f163c4a11628f55a4df523b3ef84604051611e399190612980565b60405180910390a3611e4c848484612573565b50505050565b60007f19457468657265756d205369676e6564204d6573736167653a0a33320000000060005281601c52603c6000209050919050565b6000806000611e978585612578565b91509150611ea4816125c9565b819250505092915050565b600b60019054906101000a900460ff1615611eff576040517f08c379a0000000000000000000000000000000000000000000000000000000008152600401611ef690613d48565b60405180910390fd5b600a60008273ffffffffffffffffffffffffffffffffffffffff1673ffffffffffffffffffffffffffffffffffffffff16815260200190815260200160002060008373ffffffffffffffffffffffffffffffffffffffff1673ffffffffffffffffffffffffffffffffffffffff16815260200190815260200160002060009054906101000a900460ff1615611fc9576040517f08c379a0000000000000000000000000000000000000000000000000000000008152600401611fc090613dda565b60405180910390fd5b6000600960008373ffffffffffffffffffffffffffffffffffffffff1673ffffffffffffffffffffffffffffffffffffffff168152602001908152602001600020549050600c54600f548261201c6109cb565b6120269190613390565b6120309190613390565b1115612071576040517f08c379a000000000000000000000000000000000000000000000000000000000815260040161206890613e6c565b60405180910390fd5b6000600760008473ffffffffffffffffffffffffffffffffffffffff1673ffffffffffffffffffffffffffffffffffffffff16815260200190815260200160002060009054906101000a900473ffffffffffffffffffffffffffffffffffffffff1690506001600a60008573ffffffffffffffffffffffffffffffffffffffff1673ffffffffffffffffffffffffffffffffffffffff16815260200190815260200160002060008673ffffffffffffffffffffffffffffffffffffffff1673ffffffffffffffffffffffffffffffffffffffff16815260200190815260200160002060006101000a81548160ff0219169083151502179055508373ffffffffffffffffffffffffffffffffffffffff168173ffffffffffffffffffffffffffffffffffffffff1614612248576121a7848361272f565b600073ffffffffffffffffffffffffffffffffffffffff168173ffffffffffffffffffffffffffffffffffffffff161461224757612246600760008573ffffffffffffffffffffffffffffffffffffffff1673ffffffffffffffffffffffffffffffffffffffff16815260200190815260200160002060009054906101000a900473ffffffffffffffffffffffffffffffffffffffff16600f5461272f565b5b5b50505050565b6000600560009054906101000a900473ffffffffffffffffffffffffffffffffffffffff16905081600560006101000a81548173ffffffffffffffffffffffffffffffffffffffff021916908373ffffffffffffffffffffffffffffffffffffffff1602179055508173ffffffffffffffffffffffffffffffffffffffff168173ffffffffffffffffffffffffffffffffffffffff167f8be0079c531659141344cd1fd0a4f28419497f9722a3daafe3b4186f6b6457e060405160405180910390a35050565b600b60009054906101000a900460ff1615612364576040517f08c379a000000000000000000000000000000000000000000000000000000000815260040161235b90613ed8565b60405180910390fd5b600073ffffffffffffffffffffffffffffffffffffffff16600760008473ffffffffffffffffffffffffffffffffffffffff1673ffffffffffffffffffffffffffffffffffffffff16815260200190815260200160002060009054906101000a900473ffffffffffffffffffffffffffffffffffffffff1673ffffffffffffffffffffffffffffffffffffffff1614612432576040517f08c379a000000000000000000000000000000000000000000000000000000000815260040161242990613f44565b60405180910390fd5b80600760008473ffffffffffffffffffffffffffffffffffffffff1673ffffffffffffffffffffffffffffffffffffffff16815260200190815260200160002060006101000a81548173ffffffffffffffffffffffffffffffffffffffff021916908373ffffffffffffffffffffffffffffffffffffffff160217905550600e54600960008473ffffffffffffffffffffffffffffffffffffffff1673ffffffffffffffffffffffffffffffffffffffff16815260200190815260200160002081905550600c54600e546125046109cb565b61250e9190613390565b111561254f576040517f08c379a000000000000000000000000000000000000000000000000000000000815260040161254690613e6c565b60405180910390fd5b61255b81600e5461272f565b5050565b60006125696118f1565b905090565b505050565b505050565b60008060418351036125b95760008060006020860151925060408601519150606086015160001a90506125ad87828585612885565b945094505050506125c2565b60006002915091505b9250929050565b600060048111156125dd576125dc613f64565b5b8160048111156125f0576125ef613f64565b5b031561272c576001600481111561260a57612609613f64565b5b81600481111561261d5761261c613f64565b5b0361265d576040517f08c379a000000000000000000000000000000000000000000000000000000000815260040161265490613fdf565b60405180910390fd5b6002600481111561267157612670613f64565b5b81600481111561268457612683613f64565b5b036126c4576040517f08c379a00000000000000000000000000000000000000000000000000000000081526004016126bb9061404b565b60405180910390fd5b600360048111156126d8576126d7613f64565b5b8160048111156126eb576126ea613f64565b5b0361272b576040517f08c379a0000000000000000000000000000000000000000000000000000000008152600401612722906140dd565b60405180910390fd5b5b50565b600073ffffffffffffffffffffffffffffffffffffffff168273ffffffffffffffffffffffffffffffffffffffff160361279e576040517f08c379a000000000000000000000000000000000000000000000000000000000815260040161279590614149565b60405180910390fd5b6127aa6000838361256e565b80600260008282546127bc9190613390565b92505081905550806000808473ffffffffffffffffffffffffffffffffffffffff1673ffffffffffffffffffffffffffffffffffffffff168152602001908152602001600020600082825401925050819055508173ffffffffffffffffffffffffffffffffffffffff16600073ffffffffffffffffffffffffffffffffffffffff167fddf252ad1be2c89b69c2b068fc378daa952ba7f163c4a11628f55a4df523b3ef8360405161286d9190612980565b60405180910390a361288160008383612573565b5050565b6000807f7fffffffffffffffffffffffffffffff5d576e7357a4501ddfe92f46681b20a08360001c11156128c057600060039150915061295e565b6000600187878787604051600081526020016040526040516128e59493929190614169565b6020604051602081039080840390855afa158015612907573d6000803e3d6000fd5b505050602060405103519050600073ffffffffffffffffffffffffffffffffffffffff168173ffffffffffffffffffffffffffffffffffffffff16036129555760006001925092505061295e565b80600092509250505b94509492505050565b6000819050919050565b61297a81612967565b82525050565b60006020820190506129956000830184612971565b92915050565b600081519050919050565b600082825260208201905092915050565b60005b838110156129d55780820151818401526020810190506129ba565b60008484015250505050565b6000601f19601f8301169050919050565b60006129fd8261299b565b612a0781856129a6565b9350612a178185602086016129b7565b612a20816129e1565b840191505092915050565b60006020820190508181036000830152612a4581846129f2565b905092915050565b6000604051905090565b600080fd5b600080fd5b60008115159050919050565b612a7681612a61565b8114612a8157600080fd5b50565b600081359050612a9381612a6d565b92915050565b600060208284031215612aaf57612aae612a57565b5b6000612abd84828501612a84565b91505092915050565b600073ffffffffffffffffffffffffffffffffffffffff82169050919050565b6000612af182612ac6565b9050919050565b612b0181612ae6565b8114612b0c57600080fd5b50565b600081359050612b1e81612af8565b92915050565b612b2d81612967565b8114612b3857600080fd5b50565b600081359050612b4a81612b24565b92915050565b60008060408385031215612b6757612b66612a57565b5b6000612b7585828601612b0f565b9250506020612b8685828601612b3b565b9150509250929050565b612b9981612a61565b82525050565b6000602082019050612bb46000830184612b90565b92915050565b600060208284031215612bd057612bcf612a57565b5b6000612bde84828501612b3b565b91505092915050565b600080fd5b600080fd5b600080fd5b60008083601f840112612c0c57612c0b612be7565b5b8235905067ffffffffffffffff811115612c2957612c28612bec565b5b602083019150836020820283011115612c4557612c44612bf1565b5b9250929050565b60008060208385031215612c6357612c62612a57565b5b600083013567ffffffffffffffff811115612c8157612c80612a5c565b5b612c8d85828601612bf6565b92509250509250929050565b600060208284031215612caf57612cae612a57565b5b6000612cbd84828501612b0f565b91505092915050565b600080600060608486031215612cdf57612cde612a57565b5b6000612ced86828701612b0f565b9350506020612cfe86828701612b0f565b9250506040612d0f86828701612b3b565b9150509250925092565b600080fd5b7f4e487b7100000000000000000000000000000000000000000000000000000000600052604160045260246000fd5b612d56826129e1565b810181811067ffffffffffffffff82111715612d7557612d74612d1e565b5b80604052505050565b6000612d88612a4d565b9050612d948282612d4d565b919050565b600067ffffffffffffffff821115612db457612db3612d1e565b5b612dbd826129e1565b9050602081019050919050565b82818337600083830152505050565b6000612dec612de784612d99565b612d7e565b905082815260208101848484011115612e0857612e07612d19565b5b612e13848285612dca565b509392505050565b600082601f830112612e3057612e2f612be7565b5b8135612e40848260208601612dd9565b91505092915050565b60008060408385031215612e6057612e5f612a57565b5b6000612e6e85828601612b0f565b925050602083013567ffffffffffffffff811115612e8f57612e8e612a5c565b5b612e9b85828601612e1b565b9150509250929050565b6000819050919050565b612eb881612ea5565b82525050565b6000602082019050612ed36000830184612eaf565b92915050565b60008083601f840112612eef57612eee612be7565b5b8235905067ffffffffffffffff811115612f0c57612f0b612bec565b5b602083019150836020820283011115612f2857612f27612bf1565b5b9250929050565b60008060008060408587031215612f4957612f48612a57565b5b600085013567ffffffffffffffff811115612f6757612f66612a5c565b5b612f7387828801612bf6565b9450945050602085013567ffffffffffffffff811115612f9657612f95612a5c565b5b612fa287828801612ed9565b925092505092959194509250565b600060ff82169050919050565b612fc681612fb0565b82525050565b6000602082019050612fe16000830184612fbd565b92915050565b60008083601f840112612ffd57612ffc612be7565b5b8235905067ffffffffffffffff81111561301a57613019612bec565b5b60208301915083600182028301111561303657613035612bf1565b5b9250929050565b60008060006040848603121561305657613055612a57565b5b600061306486828701612b0f565b935050602084013567ffffffffffffffff81111561308557613084612a5c565b5b61309186828701612fe7565b92509250509250925092565b6130a681612ae6565b82525050565b60006020820190506130c1600083018461309d565b92915050565b600080600080600080606087890312156130e4576130e3612a57565b5b600087013567ffffffffffffffff81111561310257613101612a5c565b5b61310e89828a01612bf6565b9650965050602087013567ffffffffffffffff81111561313157613130612a5c565b5b61313d89828a01612ed9565b9450945050604087013567ffffffffffffffff8111156131605761315f612a5c565b5b61316c89828a01612bf6565b92509250509295509295509295565b6000806040838503121561319257613191612a57565b5b60006131a085828601612b0f565b92505060206131b185828601612b0f565b9150509250929050565b7f4e487b7100000000000000000000000000000000000000000000000000000000600052602260045260246000fd5b6000600282049050600182168061320257607f821691505b602082108103613215576132146131bb565b5b50919050565b7f4e487b7100000000000000000000000000000000000000000000000000000000600052603260045260246000fd5b7f4e487b7100000000000000000000000000000000000000000000000000000000600052601160045260246000fd5b600061328482612967565b91507fffffffffffffffffffffffffffffffffffffffffffffffffffffffffffffffff82036132b6576132b561324a565b5b600182019050919050565b60008160601b9050919050565b60006132d9826132c1565b9050919050565b60006132eb826132ce565b9050919050565b6133036132fe82612ae6565b6132e0565b82525050565b600061331582846132f2565b60148201915081905092915050565b7f4d69736d61746368656420617272617973206c656e6774680000000000000000600082015250565b600061335a6018836129a6565b915061336582613324565b602082019050919050565b600060208201905081810360008301526133898161334d565b9050919050565b600061339b82612967565b91506133a683612967565b92508282019050808211156133be576133bd61324a565b5b92915050565b7f43686970206973206e6f74207365656465643b206d696e74696e67206e6f742060008201527f616c6c6f7765642e000000000000000000000000000000000000000000000000602082015250565b60006134206028836129a6565b915061342b826133c4565b604082019050919050565b6000602082019050818103600083015261344f81613413565b9050919050565b7f496e76616c6964207369676e6174757265000000000000000000000000000000600082015250565b600061348c6011836129a6565b915061349782613456565b602082019050919050565b600060208201905081810360008301526134bb8161347f565b9050919050565b7f45524332303a2064656372656173656420616c6c6f77616e63652062656c6f7760008201527f207a65726f000000000000000000000000000000000000000000000000000000602082015250565b600061351e6025836129a6565b9150613529826134c2565b604082019050919050565b6000602082019050818103600083015261354d81613511565b9050919050565b7f4d69736d617463686564206f776e65727320617272617973206c656e67746800600082015250565b600061358a601f836129a6565b915061359582613554565b602082019050919050565b600060208201905081810360008301526135b98161357d565b9050919050565b7f4d69736d617463686564206d696e74416d6f756e7420617272617973206c656e60008201527f6774680000000000000000000000000000000000000000000000000000000000602082015250565b600061361c6023836129a6565b9150613627826135c0565b604082019050919050565b6000602082019050818103600083015261364b8161360f565b9050919050565b7f4f776e65727368697020616c726561647920636c61696d656420666f72206f6e60008201527f65206f72206d6f72652063686970732e00000000000000000000000000000000602082015250565b60006136ae6030836129a6565b91506136b982613652565b604082019050919050565b600060208201905081810360008301526136dd816136a1565b9050919050565b7f43686970206973206e6f74207365656465643b206f776e65727368697020636c60008201527f61696d206e6f7420616c6c6f7765642e00000000000000000000000000000000602082015250565b60006137406030836129a6565b915061374b826136e4565b604082019050919050565b6000602082019050818103600083015261376f81613733565b9050919050565b7f4f776e61626c653a206e6577206f776e657220697320746865207a65726f206160008201527f6464726573730000000000000000000000000000000000000000000000000000602082015250565b60006137d26026836129a6565b91506137dd82613776565b604082019050919050565b60006020820190508181036000830152613801816137c5565b9050919050565b600061381382612967565b915061381e83612967565b92508282039050818111156138365761383561324a565b5b92915050565b600080fd5b600080fd5b6000808585111561385a5761385961383c565b5b8386111561386b5761386a613841565b5b6001850283019150848603905094509492505050565b600082905092915050565b60007fffffffffffffffffffffffffffffffffffffffff00000000000000000000000082169050919050565b600082821b905092915050565b60006138d18383613881565b826138dc813561388c565b9250601482101561391c576139177fffffffffffffffffffffffffffffffffffffffff000000000000000000000000836014036008026138b8565b831692505b505092915050565b7f4f776e61626c653a2063616c6c6572206973206e6f7420746865206f776e6572600082015250565b600061395a6020836129a6565b915061396582613924565b602082019050919050565b600060208201905081810360008301526139898161394d565b9050919050565b7f45524332303a20617070726f76652066726f6d20746865207a65726f2061646460008201527f7265737300000000000000000000000000000000000000000000000000000000602082015250565b60006139ec6024836129a6565b91506139f782613990565b604082019050919050565b60006020820190508181036000830152613a1b816139df565b9050919050565b7f45524332303a20617070726f766520746f20746865207a65726f20616464726560008201527f7373000000000000000000000000000000000000000000000000000000000000602082015250565b6000613a7e6022836129a6565b9150613a8982613a22565b604082019050919050565b60006020820190508181036000830152613aad81613a71565b9050919050565b7f45524332303a20696e73756666696369656e7420616c6c6f77616e6365000000600082015250565b6000613aea601d836129a6565b9150613af582613ab4565b602082019050919050565b60006020820190508181036000830152613b1981613add565b9050919050565b7f45524332303a207472616e736665722066726f6d20746865207a65726f20616460008201527f6472657373000000000000000000000000000000000000000000000000000000602082015250565b6000613b7c6025836129a6565b9150613b8782613b20565b604082019050919050565b60006020820190508181036000830152613bab81613b6f565b9050919050565b7f45524332303a207472616e7366657220746f20746865207a65726f206164647260008201527f6573730000000000000000000000000000000000000000000000000000000000602082015250565b6000613c0e6023836129a6565b9150613c1982613bb2565b604082019050919050565b60006020820190508181036000830152613c3d81613c01565b9050919050565b7f45524332303a207472616e7366657220616d6f756e742065786365656473206260008201527f616c616e63650000000000000000000000000000000000000000000000000000602082015250565b6000613ca06026836129a6565b9150613cab82613c44565b604082019050919050565b60006020820190508181036000830152613ccf81613c93565b9050919050565b7f53656564696e6720616e64206d696e74696e67206172652063757272656e746c60008201527f792064697361626c65642e000000000000000000000000000000000000000000602082015250565b6000613d32602b836129a6565b9150613d3d82613cd6565b604082019050919050565b60006020820190508181036000830152613d6181613d25565b9050919050565b7f5363616e6e65722068617320616c7265616479206d696e74656420746869732060008201527f6368697049642e00000000000000000000000000000000000000000000000000602082015250565b6000613dc46027836129a6565b9150613dcf82613d68565b604082019050919050565b60006020820190508181036000830152613df381613db7565b9050919050565b7f43616e6e6f74206d696e742c206d61792065786365656420746f6b656e20636160008201527f7000000000000000000000000000000000000000000000000000000000000000602082015250565b6000613e566021836129a6565b9150613e6182613dfa565b604082019050919050565b60006020820190508181036000830152613e8581613e49565b9050919050565b7f436c61696d696e672069732063757272656e746c792064697361626c65642e00600082015250565b6000613ec2601f836129a6565b9150613ecd82613e8c565b602082019050919050565b60006020820190508181036000830152613ef181613eb5565b9050919050565b7f4f776e65727368697020616c726561647920636c61696d65642e000000000000600082015250565b6000613f2e601a836129a6565b9150613f3982613ef8565b602082019050919050565b60006020820190508181036000830152613f5d81613f21565b9050919050565b7f4e487b7100000000000000000000000000000000000000000000000000000000600052602160045260246000fd5b7f45434453413a20696e76616c6964207369676e61747572650000000000000000600082015250565b6000613fc96018836129a6565b9150613fd482613f93565b602082019050919050565b60006020820190508181036000830152613ff881613fbc565b9050919050565b7f45434453413a20696e76616c6964207369676e6174757265206c656e67746800600082015250565b6000614035601f836129a6565b915061404082613fff565b602082019050919050565b6000602082019050818103600083015261406481614028565b9050919050565b7f45434453413a20696e76616c6964207369676e6174757265202773272076616c60008201527f7565000000000000000000000000000000000000000000000000000000000000602082015250565b60006140c76022836129a6565b91506140d28261406b565b604082019050919050565b600060208201905081810360008301526140f6816140ba565b9050919050565b7f45524332303a206d696e7420746f20746865207a65726f206164647265737300600082015250565b6000614133601f836129a6565b915061413e826140fd565b602082019050919050565b6000602082019050818103600083015261416281614126565b9050919050565b600060808201905061417e6000830187612eaf565b61418b6020830186612fbd565b6141986040830185612eaf565b6141a56060830184612eaf565b9594505050505056fea2646970667358221220a8db6229aa063aa1d0d4536c043b4c8d3c6d81faaa9ca0498d8184ea06aa48c264736f6c63430008110033",
  "linkReferences": {},
  "deployedLinkReferences": {}
}