{
  "_format": "hh-sol-artifact-1",
  "contractName": "RerroToken",
  "sourceName": "contracts/RerroToken.sol",
  "abi": [
    {
      "inputs": [
        {
          "internalType": "address",
          "name": "trustedForwarder",
          "type": "address"
        }
      ],
      "stateMutability": "nonpayable",
      "type": "constructor"
    },
    {
      "anonymous": false,
      "inputs": [
        {
          "indexed": true,
          "internalType": "address",
          "name": "owner",
          "type": "address"
        },
        {
          "indexed": true,
          "internalType": "address",
          "name": "spender",
          "type": "address"
        },
        {
          "indexed": false,
          "internalType": "uint256",
          "name": "value",
          "type": "uint256"
        }
      ],
      "name": "Approval",
      "type": "event"
    },
    {
      "anonymous": false,
      "inputs": [
        {
          "indexed": true,
          "internalType": "address",
          "name": "previousOwner",
          "type": "address"
        },
        {
          "indexed": true,
          "internalType": "address",
          "name": "newOwner",
          "type": "address"
        }
      ],
      "name": "OwnershipTransferred",
      "type": "event"
    },
    {
      "anonymous": false,
      "inputs": [
        {
          "indexed": true,
          "internalType": "address",
          "name": "from",
          "type": "address"
        },
        {
          "indexed": true,
          "internalType": "address",
          "name": "to",
          "type": "address"
        },
        {
          "indexed": false,
          "internalType": "uint256",
          "name": "value",
          "type": "uint256"
        }
      ],
      "name": "Transfer",
      "type": "event"
    },
    {
      "inputs": [
        {
          "internalType": "address",
          "name": "owner",
          "type": "address"
        },
        {
          "internalType": "address",
          "name": "spender",
          "type": "address"
        }
      ],
      "name": "allowance",
      "outputs": [
        {
          "internalType": "uint256",
          "name": "",
          "type": "uint256"
        }
      ],
      "stateMutability": "view",
      "type": "function"
    },
    {
      "inputs": [
        {
          "internalType": "address",
          "name": "spender",
          "type": "address"
        },
        {
          "internalType": "uint256",
          "name": "amount",
          "type": "uint256"
        }
      ],
      "name": "approve",
      "outputs": [
        {
          "internalType": "bool",
          "name": "",
          "type": "bool"
        }
      ],
      "stateMutability": "nonpayable",
      "type": "function"
    },
    {
      "inputs": [
        {
          "internalType": "address",
          "name": "account",
          "type": "address"
        }
      ],
      "name": "balanceOf",
      "outputs": [
        {
          "internalType": "uint256",
          "name": "",
          "type": "uint256"
        }
      ],
      "stateMutability": "view",
      "type": "function"
    },
    {
      "inputs": [
        {
          "internalType": "address",
          "name": "",
          "type": "address"
        }
      ],
      "name": "chipIdOwner",
      "outputs": [
        {
          "internalType": "address",
          "name": "",
          "type": "address"
        }
      ],
      "stateMutability": "view",
      "type": "function"
    },
    {
      "inputs": [],
      "name": "chipIdOwnerMintAmount",
      "outputs": [
        {
          "internalType": "uint256",
          "name": "",
          "type": "uint256"
        }
      ],
      "stateMutability": "view",
      "type": "function"
    },
    {
      "inputs": [],
      "name": "decimals",
      "outputs": [
        {
          "internalType": "uint8",
          "name": "",
          "type": "uint8"
        }
      ],
      "stateMutability": "view",
      "type": "function"
    },
    {
      "inputs": [
        {
          "internalType": "address",
          "name": "spender",
          "type": "address"
        },
        {
          "internalType": "uint256",
          "name": "subtractedValue",
          "type": "uint256"
        }
      ],
      "name": "decreaseAllowance",
      "outputs": [
        {
          "internalType": "bool",
          "name": "",
          "type": "bool"
        }
      ],
      "stateMutability": "nonpayable",
      "type": "function"
    },
    {
      "inputs": [
        {
          "internalType": "address",
          "name": "spender",
          "type": "address"
        },
        {
          "internalType": "uint256",
          "name": "addedValue",
          "type": "uint256"
        }
      ],
      "name": "increaseAllowance",
      "outputs": [
        {
          "internalType": "bool",
          "name": "",
          "type": "bool"
        }
      ],
      "stateMutability": "nonpayable",
      "type": "function"
    },
    {
      "inputs": [
        {
          "internalType": "address",
          "name": "forwarder",
          "type": "address"
        }
      ],
      "name": "isTrustedForwarder",
      "outputs": [
        {
          "internalType": "bool",
          "name": "",
          "type": "bool"
        }
      ],
      "stateMutability": "view",
      "type": "function"
    },
    {
      "inputs": [],
      "name": "merkleRoot",
      "outputs": [
        {
          "internalType": "bytes32",
          "name": "",
          "type": "bytes32"
        }
      ],
      "stateMutability": "view",
      "type": "function"
    },
    {
      "inputs": [
        {
          "internalType": "address",
          "name": "chipId",
          "type": "address"
        },
        {
          "internalType": "uint256",
          "name": "blockNumber",
          "type": "uint256"
        },
        {
          "internalType": "bytes",
          "name": "signature",
          "type": "bytes"
        }
      ],
      "name": "mint",
      "outputs": [],
      "stateMutability": "nonpayable",
      "type": "function"
    },
    {
      "inputs": [],
      "name": "name",
      "outputs": [
        {
          "internalType": "string",
          "name": "",
          "type": "string"
        }
      ],
      "stateMutability": "view",
      "type": "function"
    },
    {
      "inputs": [],
      "name": "owner",
      "outputs": [
        {
          "internalType": "address",
          "name": "",
          "type": "address"
        }
      ],
      "stateMutability": "view",
      "type": "function"
    },
    {
      "inputs": [],
      "name": "paused",
      "outputs": [
        {
          "internalType": "bool",
          "name": "",
          "type": "bool"
        }
      ],
      "stateMutability": "view",
      "type": "function"
    },
    {
      "inputs": [],
      "name": "renounceOwnership",
      "outputs": [],
      "stateMutability": "nonpayable",
      "type": "function"
    },
    {
      "inputs": [],
      "name": "scannerMintAmountAny",
      "outputs": [
        {
          "internalType": "uint256",
          "name": "",
          "type": "uint256"
        }
      ],
      "stateMutability": "view",
      "type": "function"
    },
    {
      "inputs": [],
      "name": "scannerMintAmountSeeded",
      "outputs": [
        {
          "internalType": "uint256",
          "name": "",
          "type": "uint256"
        }
      ],
      "stateMutability": "view",
      "type": "function"
    },
    {
      "inputs": [
        {
          "internalType": "address",
          "name": "",
          "type": "address"
        },
        {
          "internalType": "address",
          "name": "",
          "type": "address"
        }
      ],
      "name": "scannerMinted",
      "outputs": [
        {
          "internalType": "bool",
          "name": "",
          "type": "bool"
        }
      ],
      "stateMutability": "view",
      "type": "function"
    },
    {
      "inputs": [
        {
          "internalType": "bytes32[]",
          "name": "merkleProof",
          "type": "bytes32[]"
        },
        {
          "internalType": "address",
          "name": "chipId",
          "type": "address"
        }
      ],
      "name": "seedAddress",
      "outputs": [],
      "stateMutability": "nonpayable",
      "type": "function"
    },
    {
      "inputs": [
        {
          "internalType": "address",
          "name": "chipId",
          "type": "address"
        },
        {
          "internalType": "uint256",
          "name": "mintAmount",
          "type": "uint256"
        },
        {
          "internalType": "bytes32[]",
          "name": "merkleProof",
          "type": "bytes32[]"
        }
      ],
      "name": "seedChipIdWithCustomMint",
      "outputs": [],
      "stateMutability": "nonpayable",
      "type": "function"
    },
    {
      "inputs": [
        {
          "internalType": "address",
          "name": "",
          "type": "address"
        }
      ],
      "name": "seededAddresses",
      "outputs": [
        {
          "internalType": "bool",
          "name": "",
          "type": "bool"
        }
      ],
      "stateMutability": "view",
      "type": "function"
    },
    {
      "inputs": [
        {
          "internalType": "uint256",
          "name": "_amount",
          "type": "uint256"
        }
      ],
      "name": "setChipIdOwnerMintAmount",
      "outputs": [],
      "stateMutability": "nonpayable",
      "type": "function"
    },
    {
      "inputs": [
        {
          "internalType": "bool",
          "name": "_state",
          "type": "bool"
        }
      ],
      "name": "setPausedState",
      "outputs": [],
      "stateMutability": "nonpayable",
      "type": "function"
    },
    {
      "inputs": [
        {
          "internalType": "uint256",
          "name": "_amount",
          "type": "uint256"
        }
      ],
      "name": "setScannerMintAnyAmount",
      "outputs": [],
      "stateMutability": "nonpayable",
      "type": "function"
    },
    {
      "inputs": [
        {
          "internalType": "uint256",
          "name": "_amount",
          "type": "uint256"
        }
      ],
      "name": "setScannerMintSeededAmount",
      "outputs": [],
      "stateMutability": "nonpayable",
      "type": "function"
    },
    {
      "inputs": [
        {
          "internalType": "uint256",
          "name": "_newCap",
          "type": "uint256"
        }
      ],
      "name": "setTokenCap",
      "outputs": [],
      "stateMutability": "nonpayable",
      "type": "function"
    },
    {
      "inputs": [],
      "name": "symbol",
      "outputs": [
        {
          "internalType": "string",
          "name": "",
          "type": "string"
        }
      ],
      "stateMutability": "view",
      "type": "function"
    },
    {
      "inputs": [],
      "name": "tokenCap",
      "outputs": [
        {
          "internalType": "uint256",
          "name": "",
          "type": "uint256"
        }
      ],
      "stateMutability": "view",
      "type": "function"
    },
    {
      "inputs": [],
      "name": "totalSupply",
      "outputs": [
        {
          "internalType": "uint256",
          "name": "",
          "type": "uint256"
        }
      ],
      "stateMutability": "view",
      "type": "function"
    },
    {
      "inputs": [
        {
          "internalType": "address",
          "name": "to",
          "type": "address"
        },
        {
          "internalType": "uint256",
          "name": "amount",
          "type": "uint256"
        }
      ],
      "name": "transfer",
      "outputs": [
        {
          "internalType": "bool",
          "name": "",
          "type": "bool"
        }
      ],
      "stateMutability": "nonpayable",
      "type": "function"
    },
    {
      "inputs": [
        {
          "internalType": "address",
          "name": "from",
          "type": "address"
        },
        {
          "internalType": "address",
          "name": "to",
          "type": "address"
        },
        {
          "internalType": "uint256",
          "name": "amount",
          "type": "uint256"
        }
      ],
      "name": "transferFrom",
      "outputs": [
        {
          "internalType": "bool",
          "name": "",
          "type": "bool"
        }
      ],
      "stateMutability": "nonpayable",
      "type": "function"
    },
    {
      "inputs": [
        {
          "internalType": "address",
          "name": "newOwner",
          "type": "address"
        }
      ],
      "name": "transferOwnership",
      "outputs": [],
      "stateMutability": "nonpayable",
      "type": "function"
    },
    {
      "inputs": [
        {
          "internalType": "bytes32",
          "name": "newMerkleRoot",
          "type": "bytes32"
        }
      ],
      "name": "updateMerkleRoot",
      "outputs": [],
      "stateMutability": "nonpayable",
      "type": "function"
    }
  ],
  "bytecode": "0x60a06040526001600a60006101000a81548160ff0219169083151502179055506a0c67d7d5423dfb7d7c0000600b55670de0b6b3a7640000600c55670de0b6b3a7640000600d55670de0b6b3a7640000600e553480156200005f57600080fd5b5060405162004677380380620046778339818101604052810190620000859190620003c2565b806040518060400160405280600581526020017f526572726f0000000000000000000000000000000000000000000000000000008152506040518060400160405280600581526020017f524552524f00000000000000000000000000000000000000000000000000000081525081600390816200010391906200066e565b5080600490816200011591906200066e565b5050508073ffffffffffffffffffffffffffffffffffffffff1660808173ffffffffffffffffffffffffffffffffffffffff1681525050506200016d620001616200017460201b60201c565b6200019060201b60201c565b50620008a7565b60006200018b6200025660201b620017031760201c565b905090565b6000600560009054906101000a900473ffffffffffffffffffffffffffffffffffffffff16905081600560006101000a81548173ffffffffffffffffffffffffffffffffffffffff021916908373ffffffffffffffffffffffffffffffffffffffff1602179055508173ffffffffffffffffffffffffffffffffffffffff168173ffffffffffffffffffffffffffffffffffffffff167f8be0079c531659141344cd1fd0a4f28419497f9722a3daafe3b4186f6b6457e060405160405180910390a35050565b60008060003690509050600062000272620002f160201b60201c565b905062000285336200030d60201b60201c565b8015620002925750808210155b15620002d4576000368284620002a9919062000784565b908092620002ba93929190620007c9565b90620002c7919062000841565b60601c92505050620002ee565b620002e96200034760201b620017781760201c565b925050505b90565b6000620003086200034f60201b620017801760201c565b905090565b600060805173ffffffffffffffffffffffffffffffffffffffff168273ffffffffffffffffffffffffffffffffffffffff16149050919050565b600033905090565b60006014905090565b600080fd5b600073ffffffffffffffffffffffffffffffffffffffff82169050919050565b60006200038a826200035d565b9050919050565b6200039c816200037d565b8114620003a857600080fd5b50565b600081519050620003bc8162000391565b92915050565b600060208284031215620003db57620003da62000358565b5b6000620003eb84828501620003ab565b91505092915050565b600081519050919050565b7f4e487b7100000000000000000000000000000000000000000000000000000000600052604160045260246000fd5b7f4e487b7100000000000000000000000000000000000000000000000000000000600052602260045260246000fd5b600060028204905060018216806200047657607f821691505b6020821081036200048c576200048b6200042e565b5b50919050565b60008190508160005260206000209050919050565b60006020601f8301049050919050565b600082821b905092915050565b600060088302620004f67fffffffffffffffffffffffffffffffffffffffffffffffffffffffffffffffff82620004b7565b620005028683620004b7565b95508019841693508086168417925050509392505050565b6000819050919050565b6000819050919050565b60006200054f6200054962000543846200051a565b62000524565b6200051a565b9050919050565b6000819050919050565b6200056b836200052e565b620005836200057a8262000556565b848454620004c4565b825550505050565b600090565b6200059a6200058b565b620005a781848462000560565b505050565b5b81811015620005cf57620005c360008262000590565b600181019050620005ad565b5050565b601f8211156200061e57620005e88162000492565b620005f384620004a7565b8101602085101562000603578190505b6200061b6200061285620004a7565b830182620005ac565b50505b505050565b600082821c905092915050565b6000620006436000198460080262000623565b1980831691505092915050565b60006200065e838362000630565b9150826002028217905092915050565b6200067982620003f4565b67ffffffffffffffff811115620006955762000694620003ff565b5b620006a182546200045d565b620006ae828285620005d3565b600060209050601f831160018114620006e65760008415620006d1578287015190505b620006dd858262000650565b8655506200074d565b601f198416620006f68662000492565b60005b828110156200072057848901518255600182019150602085019450602081019050620006f9565b868310156200074057848901516200073c601f89168262000630565b8355505b6001600288020188555050505b505050505050565b7f4e487b7100000000000000000000000000000000000000000000000000000000600052601160045260246000fd5b600062000791826200051a565b91506200079e836200051a565b9250828203905081811115620007b957620007b862000755565b5b92915050565b600080fd5b600080fd5b60008085851115620007e057620007df620007bf565b5b83861115620007f457620007f3620007c4565b5b6001850283019150848603905094509492505050565b600082905092915050565b60007fffffffffffffffffffffffffffffffffffffffff00000000000000000000000082169050919050565b60006200084f83836200080a565b826200085c813562000815565b925060148210156200089f576200089a7fffffffffffffffffffffffffffffffffffffffff00000000000000000000000083601403600802620004b7565b831692505b505092915050565b608051613db4620008c360003960006107ea0152613db46000f3fe608060405234801561001057600080fd5b50600436106101fb5760003560e01c80639452ca881161011a578063caab9c91116100ad578063dd54291b1161007c578063dd54291b146105d8578063dd62ed3e146105f6578063f2ed7ca714610626578063f2fde38b14610642578063f6196f081461065e576101fb565b8063caab9c911461053e578063cab737a61461055c578063d2fc79a71461058c578063db9f60ff146105bc576101fb565b8063a457c2d7116100e9578063a457c2d714610490578063a9059cbb146104c0578063ba8ab6ed146104f0578063c760ef2614610520576101fb565b80639452ca881461041e57806394d008ef1461043a57806395d89b4114610456578063a36bef1c14610474576101fb565b806339509351116101925780635c975abb116101615780635c975abb146103a857806370a08231146103c6578063715018a6146103f65780638da5cb5b14610400576101fb565b806339509351146103105780634783f0ef14610340578063572b6c051461035c5780635a5cc6301461038c576101fb565b806323b872dd116101ce57806323b872dd146102885780632854bc7e146102b85780632eb4a7ab146102d4578063313ce567146102f2576101fb565b806306fdde0314610200578063095ea7b31461021e5780630f0884881461024e57806318160ddd1461026a575b600080fd5b61020861067c565b604051610215919061278c565b60405180910390f35b6102386004803603810190610233919061284c565b61070e565b60405161024591906128a7565b60405180910390f35b610268600480360381019061026391906128c2565b610731565b005b610272610743565b60405161027f91906128fe565b60405180910390f35b6102a2600480360381019061029d9190612919565b61074d565b6040516102af91906128a7565b60405180910390f35b6102d260048036038101906102cd91906128c2565b61077c565b005b6102dc61078e565b6040516102e99190612985565b60405180910390f35b6102fa610794565b60405161030791906129bc565b60405180910390f35b61032a6004803603810190610325919061284c565b61079d565b60405161033791906128a7565b60405180910390f35b61035a60048036038101906103559190612a03565b6107d4565b005b61037660048036038101906103719190612a30565b6107e6565b60405161038391906128a7565b60405180910390f35b6103a660048036038101906103a191906128c2565b61083e565b005b6103b0610850565b6040516103bd91906128a7565b60405180910390f35b6103e060048036038101906103db9190612a30565b610863565b6040516103ed91906128fe565b60405180910390f35b6103fe6108ab565b005b6104086108bf565b6040516104159190612a6c565b60405180910390f35b61043860048036038101906104339190612aec565b6108e9565b005b610454600480360381019061044f9190612bb6565b610c23565b005b61045e611184565b60405161046b919061278c565b60405180910390f35b61048e60048036038101906104899190612c2a565b611216565b005b6104aa60048036038101906104a5919061284c565b61148e565b6040516104b791906128a7565b60405180910390f35b6104da60048036038101906104d5919061284c565b611505565b6040516104e791906128a7565b60405180910390f35b61050a60048036038101906105059190612a30565b611528565b6040516105179190612a6c565b60405180910390f35b61052861155b565b60405161053591906128fe565b60405180910390f35b610546611561565b60405161055391906128fe565b60405180910390f35b61057660048036038101906105719190612c8a565b611567565b60405161058391906128a7565b60405180910390f35b6105a660048036038101906105a19190612a30565b611596565b6040516105b391906128a7565b60405180910390f35b6105d660048036038101906105d19190612cf6565b6115b6565b005b6105e06115db565b6040516105ed91906128fe565b60405180910390f35b610610600480360381019061060b9190612c8a565b6115e1565b60405161061d91906128fe565b60405180910390f35b610640600480360381019061063b91906128c2565b611668565b005b61065c60048036038101906106579190612a30565b61167a565b005b6106666116fd565b60405161067391906128fe565b60405180910390f35b60606003805461068b90612d52565b80601f01602080910402602001604051908101604052809291908181526020018280546106b790612d52565b80156107045780601f106106d957610100808354040283529160200191610704565b820191906000526020600020905b8154815290600101906020018083116106e757829003601f168201915b5050505050905090565b600080610719611789565b9050610726818585611798565b600191505092915050565b610739611961565b80600e8190555050565b6000600254905090565b600080610758611789565b90506107658582856119df565b610770858585611a6b565b60019150509392505050565b610784611961565b80600b8190555050565b60065481565b60006012905090565b6000806107a8611789565b90506107c98185856107ba85896115e1565b6107c49190612db2565b611798565b600191505092915050565b6107dc611961565b8060068190555050565b60007f000000000000000000000000000000000000000000000000000000000000000073ffffffffffffffffffffffffffffffffffffffff168273ffffffffffffffffffffffffffffffffffffffff16149050919050565b610846611961565b80600d8190555050565b600a60009054906101000a900460ff1681565b60008060008373ffffffffffffffffffffffffffffffffffffffff1673ffffffffffffffffffffffffffffffffffffffff168152602001908152602001600020549050919050565b6108b3611961565b6108bd6000611ce1565b565b6000600560009054906101000a900473ffffffffffffffffffffffffffffffffffffffff16905090565b6108f1611961565b600a60009054906101000a900460ff1615610941576040517f08c379a000000000000000000000000000000000000000000000000000000000815260040161093890612e58565b60405180910390fd5b6000846040516020016109549190612ec0565b6040516020818303038152906040528051906020012090506109ba838380806020026020016040519081016040528093929190818152602001838360200280828437600081840152601f19601f8201169050808301925050505050505060065483611da7565b6109f9576040517f08c379a00000000000000000000000000000000000000000000000000000000081526004016109f090612f27565b60405180910390fd5b600860008673ffffffffffffffffffffffffffffffffffffffff1673ffffffffffffffffffffffffffffffffffffffff16815260200190815260200160002060009054906101000a900460ff1615610a86576040517f08c379a0000000000000000000000000000000000000000000000000000000008152600401610a7d90612f93565b60405180910390fd5b600b5484610a92610743565b610a9c9190612db2565b1115610add576040517f08c379a0000000000000000000000000000000000000000000000000000000008152600401610ad490612fff565b60405180910390fd5b6001600860008773ffffffffffffffffffffffffffffffffffffffff1673ffffffffffffffffffffffffffffffffffffffff16815260200190815260200160002060006101000a81548160ff02191690831515021790555033600760008773ffffffffffffffffffffffffffffffffffffffff1673ffffffffffffffffffffffffffffffffffffffff16815260200190815260200160002060006101000a81548173ffffffffffffffffffffffffffffffffffffffff021916908373ffffffffffffffffffffffffffffffffffffffff160217905550610c1c600760008773ffffffffffffffffffffffffffffffffffffffff1673ffffffffffffffffffffffffffffffffffffffff16815260200190815260200160002060009054906101000a900473ffffffffffffffffffffffffffffffffffffffff1685611dbe565b5050505050565b600a60009054906101000a900460ff1615610c73576040517f08c379a0000000000000000000000000000000000000000000000000000000008152600401610c6a90612e58565b60405180910390fd5b600860008573ffffffffffffffffffffffffffffffffffffffff1673ffffffffffffffffffffffffffffffffffffffff16815260200190815260200160002060009054906101000a900460ff16610cff576040517f08c379a0000000000000000000000000000000000000000000000000000000008152600401610cf69061306b565b60405180910390fd5b6103e843610d0d919061308b565b83118015610d1b5750438311155b610d5a576040517f08c379a0000000000000000000000000000000000000000000000000000000008152600401610d519061310b565b60405180910390fd5b610d6383611f14565b600960008573ffffffffffffffffffffffffffffffffffffffff1673ffffffffffffffffffffffffffffffffffffffff1681526020019081526020016000206000610dac611789565b73ffffffffffffffffffffffffffffffffffffffff1673ffffffffffffffffffffffffffffffffffffffff16815260200190815260200160002060009054906101000a900460ff1615610e34576040517f08c379a0000000000000000000000000000000000000000000000000000000008152600401610e2b9061319d565b60405180910390fd5b600b54600e54600d54610e45610743565b610e4f9190612db2565b610e599190612db2565b1115610e9a576040517f08c379a0000000000000000000000000000000000000000000000000000000008152600401610e919061322f565b60405180910390fd5b60008340905060003390506000610ed18284604051602001610ebd929190613270565b604051602081830303815290604052611fad565b9050610edc81611fe8565b6000610f3586868080601f016020809104026020016040519081016040528093929190818152602001838380828437600081840152601f19601f820116905080830192505050505050508361208190919063ffffffff16565b9050610f40816120a8565b8773ffffffffffffffffffffffffffffffffffffffff168173ffffffffffffffffffffffffffffffffffffffff1614610fae576040517f08c379a0000000000000000000000000000000000000000000000000000000008152600401610fa5906132e8565b60405180910390fd5b6001600960008a73ffffffffffffffffffffffffffffffffffffffff1673ffffffffffffffffffffffffffffffffffffffff1681526020019081526020016000206000610ff9611789565b73ffffffffffffffffffffffffffffffffffffffff1673ffffffffffffffffffffffffffffffffffffffff16815260200190815260200160002060006101000a81548160ff021916908315150217905550611052611789565b73ffffffffffffffffffffffffffffffffffffffff16600760008a73ffffffffffffffffffffffffffffffffffffffff1673ffffffffffffffffffffffffffffffffffffffff16815260200190815260200160002060009054906101000a900473ffffffffffffffffffffffffffffffffffffffff1673ffffffffffffffffffffffffffffffffffffffff1614611166576110f66110ee611789565b600d54611dbe565b611161600760008a73ffffffffffffffffffffffffffffffffffffffff1673ffffffffffffffffffffffffffffffffffffffff16815260200190815260200160002060009054906101000a900473ffffffffffffffffffffffffffffffffffffffff16600e54611dbe565b61117a565b611179611171611789565b600d54611dbe565b5b5050505050505050565b60606004805461119390612d52565b80601f01602080910402602001604051908101604052809291908181526020018280546111bf90612d52565b801561120c5780601f106111e15761010080835404028352916020019161120c565b820191906000526020600020905b8154815290600101906020018083116111ef57829003601f168201915b5050505050905090565b600a60009054906101000a900460ff1615611266576040517f08c379a000000000000000000000000000000000000000000000000000000000815260040161125d90612e58565b60405180910390fd5b6000816040516020016112799190612ec0565b6040516020818303038152906040528051906020012090506112df848480806020026020016040519081016040528093929190818152602001838360200280828437600081840152601f19601f8201169050808301925050505050505060065483611da7565b61131e576040517f08c379a000000000000000000000000000000000000000000000000000000000815260040161131590612f27565b60405180910390fd5b600860008373ffffffffffffffffffffffffffffffffffffffff1673ffffffffffffffffffffffffffffffffffffffff16815260200190815260200160002060009054906101000a900460ff16156113ab576040517f08c379a00000000000000000000000000000000000000000000000000000000081526004016113a290613354565b60405180910390fd5b6001600860008473ffffffffffffffffffffffffffffffffffffffff1673ffffffffffffffffffffffffffffffffffffffff16815260200190815260200160002060006101000a81548160ff02191690831515021790555061140b611789565b600760008473ffffffffffffffffffffffffffffffffffffffff1673ffffffffffffffffffffffffffffffffffffffff16815260200190815260200160002060006101000a81548173ffffffffffffffffffffffffffffffffffffffff021916908373ffffffffffffffffffffffffffffffffffffffff16021790555050505050565b600080611499611789565b905060006114a782866115e1565b9050838110156114ec576040517f08c379a00000000000000000000000000000000000000000000000000000000081526004016114e3906133e6565b60405180910390fd5b6114f98286868403611798565b60019250505092915050565b600080611510611789565b905061151d818585611a6b565b600191505092915050565b60076020528060005260406000206000915054906101000a900473ffffffffffffffffffffffffffffffffffffffff1681565b600c5481565b600e5481565b60096020528160005260406000206020528060005260406000206000915091509054906101000a900460ff1681565b60086020528060005260406000206000915054906101000a900460ff1681565b6115be611961565b80600a60006101000a81548160ff02191690831515021790555050565b600b5481565b6000600160008473ffffffffffffffffffffffffffffffffffffffff1673ffffffffffffffffffffffffffffffffffffffff16815260200190815260200160002060008373ffffffffffffffffffffffffffffffffffffffff1673ffffffffffffffffffffffffffffffffffffffff16815260200190815260200160002054905092915050565b611670611961565b80600c8190555050565b611682611961565b600073ffffffffffffffffffffffffffffffffffffffff168173ffffffffffffffffffffffffffffffffffffffff16036116f1576040517f08c379a00000000000000000000000000000000000000000000000000000000081526004016116e890613478565b60405180910390fd5b6116fa81611ce1565b50565b600d5481565b600080600036905090506000611717612141565b9050611722336107e6565b801561172e5750808210155b15611768576000368284611742919061308b565b908092611751939291906134a2565b9061175c9190613521565b60601c92505050611775565b611770611778565b925050505b90565b600033905090565b60006014905090565b6000611793611703565b905090565b600073ffffffffffffffffffffffffffffffffffffffff168373ffffffffffffffffffffffffffffffffffffffff1603611807576040517f08c379a00000000000000000000000000000000000000000000000000000000081526004016117fe906135f2565b60405180910390fd5b600073ffffffffffffffffffffffffffffffffffffffff168273ffffffffffffffffffffffffffffffffffffffff1603611876576040517f08c379a000000000000000000000000000000000000000000000000000000000815260040161186d90613684565b60405180910390fd5b80600160008573ffffffffffffffffffffffffffffffffffffffff1673ffffffffffffffffffffffffffffffffffffffff16815260200190815260200160002060008473ffffffffffffffffffffffffffffffffffffffff1673ffffffffffffffffffffffffffffffffffffffff168152602001908152602001600020819055508173ffffffffffffffffffffffffffffffffffffffff168373ffffffffffffffffffffffffffffffffffffffff167f8c5be1e5ebec7d5bd14f71427d1e84f3dd0314c0f7b2291e5b200ac8c7c3b9258360405161195491906128fe565b60405180910390a3505050565b611969611789565b73ffffffffffffffffffffffffffffffffffffffff166119876108bf565b73ffffffffffffffffffffffffffffffffffffffff16146119dd576040517f08c379a00000000000000000000000000000000000000000000000000000000081526004016119d4906136f0565b60405180910390fd5b565b60006119eb84846115e1565b90507fffffffffffffffffffffffffffffffffffffffffffffffffffffffffffffffff8114611a655781811015611a57576040517f08c379a0000000000000000000000000000000000000000000000000000000008152600401611a4e9061375c565b60405180910390fd5b611a648484848403611798565b5b50505050565b600073ffffffffffffffffffffffffffffffffffffffff168373ffffffffffffffffffffffffffffffffffffffff1603611ada576040517f08c379a0000000000000000000000000000000000000000000000000000000008152600401611ad1906137ee565b60405180910390fd5b600073ffffffffffffffffffffffffffffffffffffffff168273ffffffffffffffffffffffffffffffffffffffff1603611b49576040517f08c379a0000000000000000000000000000000000000000000000000000000008152600401611b4090613880565b60405180910390fd5b611b54838383612150565b60008060008573ffffffffffffffffffffffffffffffffffffffff1673ffffffffffffffffffffffffffffffffffffffff16815260200190815260200160002054905081811015611bda576040517f08c379a0000000000000000000000000000000000000000000000000000000008152600401611bd190613912565b60405180910390fd5b8181036000808673ffffffffffffffffffffffffffffffffffffffff1673ffffffffffffffffffffffffffffffffffffffff16815260200190815260200160002081905550816000808573ffffffffffffffffffffffffffffffffffffffff1673ffffffffffffffffffffffffffffffffffffffff168152602001908152602001600020600082825401925050819055508273ffffffffffffffffffffffffffffffffffffffff168473ffffffffffffffffffffffffffffffffffffffff167fddf252ad1be2c89b69c2b068fc378daa952ba7f163c4a11628f55a4df523b3ef84604051611cc891906128fe565b60405180910390a3611cdb848484612155565b50505050565b6000600560009054906101000a900473ffffffffffffffffffffffffffffffffffffffff16905081600560006101000a81548173ffffffffffffffffffffffffffffffffffffffff021916908373ffffffffffffffffffffffffffffffffffffffff1602179055508173ffffffffffffffffffffffffffffffffffffffff168173ffffffffffffffffffffffffffffffffffffffff167f8be0079c531659141344cd1fd0a4f28419497f9722a3daafe3b4186f6b6457e060405160405180910390a35050565b600082611db4858461215a565b1490509392505050565b600073ffffffffffffffffffffffffffffffffffffffff168273ffffffffffffffffffffffffffffffffffffffff1603611e2d576040517f08c379a0000000000000000000000000000000000000000000000000000000008152600401611e249061397e565b60405180910390fd5b611e3960008383612150565b8060026000828254611e4b9190612db2565b92505081905550806000808473ffffffffffffffffffffffffffffffffffffffff1673ffffffffffffffffffffffffffffffffffffffff168152602001908152602001600020600082825401925050819055508173ffffffffffffffffffffffffffffffffffffffff16600073ffffffffffffffffffffffffffffffffffffffff167fddf252ad1be2c89b69c2b068fc378daa952ba7f163c4a11628f55a4df523b3ef83604051611efc91906128fe565b60405180910390a3611f1060008383612155565b5050565b611faa81604051602401611f2891906128fe565b6040516020818303038152906040527ff82c50f1000000000000000000000000000000000000000000000000000000007bffffffffffffffffffffffffffffffffffffffffffffffffffffffff19166020820180517bffffffffffffffffffffffffffffffffffffffffffffffffffffffff83818316178352505050506121b0565b50565b6000611fb982516121ca565b82604051602001611fcb929190613a6d565b604051602081830303815290604052805190602001209050919050565b61207e81604051602401611ffc9190612985565b6040516020818303038152906040527f27b7cf85000000000000000000000000000000000000000000000000000000007bffffffffffffffffffffffffffffffffffffffffffffffffffffffff19166020820180517bffffffffffffffffffffffffffffffffffffffffffffffffffffffff83818316178352505050506121b0565b50565b60008060006120908585612298565b9150915061209d816122e9565b819250505092915050565b61213e816040516024016120bc9190612a6c565b6040516020818303038152906040527f2c2ecbc2000000000000000000000000000000000000000000000000000000007bffffffffffffffffffffffffffffffffffffffffffffffffffffffff19166020820180517bffffffffffffffffffffffffffffffffffffffffffffffffffffffff83818316178352505050506121b0565b50565b600061214b611780565b905090565b505050565b505050565b60008082905060005b84518110156121a5576121908286838151811061218357612182613a9c565b5b602002602001015161244f565b9150808061219d90613acb565b915050612163565b508091505092915050565b6121c7816121bf61247a61249b565b63ffffffff16565b50565b6060600060016121d9846124a6565b01905060008167ffffffffffffffff8111156121f8576121f7613b13565b5b6040519080825280601f01601f19166020018201604052801561222a5781602001600182028036833780820191505090505b509050600082602001820190505b60011561228d578080600190039150507f3031323334353637383961626364656600000000000000000000000000000000600a86061a8153600a858161228157612280613b42565b5b04945060008503612238575b819350505050919050565b60008060418351036122d95760008060006020860151925060408601519150606086015160001a90506122cd878285856125f9565b945094505050506122e2565b60006002915091505b9250929050565b600060048111156122fd576122fc613b71565b5b8160048111156123105761230f613b71565b5b031561244c576001600481111561232a57612329613b71565b5b81600481111561233d5761233c613b71565b5b0361237d576040517f08c379a000000000000000000000000000000000000000000000000000000000815260040161237490613bec565b60405180910390fd5b6002600481111561239157612390613b71565b5b8160048111156123a4576123a3613b71565b5b036123e4576040517f08c379a00000000000000000000000000000000000000000000000000000000081526004016123db90613c58565b60405180910390fd5b600360048111156123f8576123f7613b71565b5b81600481111561240b5761240a613b71565b5b0361244b576040517f08c379a000000000000000000000000000000000000000000000000000000000815260040161244290613cea565b60405180910390fd5b5b50565b60008183106124675761246282846126db565b612472565b61247183836126db565b5b905092915050565b60006a636f6e736f6c652e6c6f679050600080835160208501845afa505050565b6126f2819050919050565b600080600090507a184f03e93ff9f4daa797ed6e38ed64bf6a1f0100000000000000008310612504577a184f03e93ff9f4daa797ed6e38ed64bf6a1f01000000000000000083816124fa576124f9613b42565b5b0492506040810190505b6d04ee2d6d415b85acef81000000008310612541576d04ee2d6d415b85acef8100000000838161253757612536613b42565b5b0492506020810190505b662386f26fc10000831061257057662386f26fc10000838161256657612565613b42565b5b0492506010810190505b6305f5e1008310612599576305f5e100838161258f5761258e613b42565b5b0492506008810190505b61271083106125be5761271083816125b4576125b3613b42565b5b0492506004810190505b606483106125e157606483816125d7576125d6613b42565b5b0492506002810190505b600a83106125f0576001810190505b80915050919050565b6000807f7fffffffffffffffffffffffffffffff5d576e7357a4501ddfe92f46681b20a08360001c11156126345760006003915091506126d2565b6000600187878787604051600081526020016040526040516126599493929190613d0a565b6020604051602081039080840390855afa15801561267b573d6000803e3d6000fd5b505050602060405103519050600073ffffffffffffffffffffffffffffffffffffffff168173ffffffffffffffffffffffffffffffffffffffff16036126c9576000600192509250506126d2565b80600092509250505b94509492505050565b600082600052816020526040600020905092915050565b6126fa613d4f565b565b600081519050919050565b600082825260208201905092915050565b60005b8381101561273657808201518184015260208101905061271b565b60008484015250505050565b6000601f19601f8301169050919050565b600061275e826126fc565b6127688185612707565b9350612778818560208601612718565b61278181612742565b840191505092915050565b600060208201905081810360008301526127a68184612753565b905092915050565b600080fd5b600080fd5b600073ffffffffffffffffffffffffffffffffffffffff82169050919050565b60006127e3826127b8565b9050919050565b6127f3816127d8565b81146127fe57600080fd5b50565b600081359050612810816127ea565b92915050565b6000819050919050565b61282981612816565b811461283457600080fd5b50565b60008135905061284681612820565b92915050565b60008060408385031215612863576128626127ae565b5b600061287185828601612801565b925050602061288285828601612837565b9150509250929050565b60008115159050919050565b6128a18161288c565b82525050565b60006020820190506128bc6000830184612898565b92915050565b6000602082840312156128d8576128d76127ae565b5b60006128e684828501612837565b91505092915050565b6128f881612816565b82525050565b600060208201905061291360008301846128ef565b92915050565b600080600060608486031215612932576129316127ae565b5b600061294086828701612801565b935050602061295186828701612801565b925050604061296286828701612837565b9150509250925092565b6000819050919050565b61297f8161296c565b82525050565b600060208201905061299a6000830184612976565b92915050565b600060ff82169050919050565b6129b6816129a0565b82525050565b60006020820190506129d160008301846129ad565b92915050565b6129e08161296c565b81146129eb57600080fd5b50565b6000813590506129fd816129d7565b92915050565b600060208284031215612a1957612a186127ae565b5b6000612a27848285016129ee565b91505092915050565b600060208284031215612a4657612a456127ae565b5b6000612a5484828501612801565b91505092915050565b612a66816127d8565b82525050565b6000602082019050612a816000830184612a5d565b92915050565b600080fd5b600080fd5b600080fd5b60008083601f840112612aac57612aab612a87565b5b8235905067ffffffffffffffff811115612ac957612ac8612a8c565b5b602083019150836020820283011115612ae557612ae4612a91565b5b9250929050565b60008060008060608587031215612b0657612b056127ae565b5b6000612b1487828801612801565b9450506020612b2587828801612837565b935050604085013567ffffffffffffffff811115612b4657612b456127b3565b5b612b5287828801612a96565b925092505092959194509250565b60008083601f840112612b7657612b75612a87565b5b8235905067ffffffffffffffff811115612b9357612b92612a8c565b5b602083019150836001820283011115612baf57612bae612a91565b5b9250929050565b60008060008060608587031215612bd057612bcf6127ae565b5b6000612bde87828801612801565b9450506020612bef87828801612837565b935050604085013567ffffffffffffffff811115612c1057612c0f6127b3565b5b612c1c87828801612b60565b925092505092959194509250565b600080600060408486031215612c4357612c426127ae565b5b600084013567ffffffffffffffff811115612c6157612c606127b3565b5b612c6d86828701612a96565b93509350506020612c8086828701612801565b9150509250925092565b60008060408385031215612ca157612ca06127ae565b5b6000612caf85828601612801565b9250506020612cc085828601612801565b9150509250929050565b612cd38161288c565b8114612cde57600080fd5b50565b600081359050612cf081612cca565b92915050565b600060208284031215612d0c57612d0b6127ae565b5b6000612d1a84828501612ce1565b91505092915050565b7f4e487b7100000000000000000000000000000000000000000000000000000000600052602260045260246000fd5b60006002820490506001821680612d6a57607f821691505b602082108103612d7d57612d7c612d23565b5b50919050565b7f4e487b7100000000000000000000000000000000000000000000000000000000600052601160045260246000fd5b6000612dbd82612816565b9150612dc883612816565b9250828201905080821115612de057612ddf612d83565b5b92915050565b7f53656564696e6720616e64206d696e74696e67206172652063757272656e746c60008201527f792064697361626c65642e000000000000000000000000000000000000000000602082015250565b6000612e42602b83612707565b9150612e4d82612de6565b604082019050919050565b60006020820190508181036000830152612e7181612e35565b9050919050565b60008160601b9050919050565b6000612e9082612e78565b9050919050565b6000612ea282612e85565b9050919050565b612eba612eb5826127d8565b612e97565b82525050565b6000612ecc8284612ea9565b60148201915081905092915050565b7f496e76616c69642070726f6f662e000000000000000000000000000000000000600082015250565b6000612f11600e83612707565b9150612f1c82612edb565b602082019050919050565b60006020820190508181036000830152612f4081612f04565b9050919050565b7f4368697020616c7265616479207365656465642e000000000000000000000000600082015250565b6000612f7d601483612707565b9150612f8882612f47565b602082019050919050565b60006020820190508181036000830152612fac81612f70565b9050919050565b7f4578636565647320746f6b656e20636170000000000000000000000000000000600082015250565b6000612fe9601183612707565b9150612ff482612fb3565b602082019050919050565b6000602082019050818103600083015261301881612fdc565b9050919050565b7f43686970206e6f74207365656465642e00000000000000000000000000000000600082015250565b6000613055601083612707565b91506130608261301f565b602082019050919050565b6000602082019050818103600083015261308481613048565b9050919050565b600061309682612816565b91506130a183612816565b92508282039050818111156130b9576130b8612d83565b5b92915050565b7f426c6f636b206e756d626572206f7574206f662072616e67652e000000000000600082015250565b60006130f5601a83612707565b9150613100826130bf565b602082019050919050565b60006020820190508181036000830152613124816130e8565b9050919050565b7f5363616e6e65722068617320616c7265616479206d696e74656420666f72207460008201527f686973206368697049642e000000000000000000000000000000000000000000602082015250565b6000613187602b83612707565b91506131928261312b565b604082019050919050565b600060208201905081810360008301526131b68161317a565b9050919050565b7f43616e6e6f74206d696e742c206d61792065786365656420746f6b656e20636160008201527f7000000000000000000000000000000000000000000000000000000000000000602082015250565b6000613219602183612707565b9150613224826131bd565b604082019050919050565b600060208201905081810360008301526132488161320c565b9050919050565b6000819050919050565b61326a6132658261296c565b61324f565b82525050565b600061327c8285612ea9565b60148201915061328c8284613259565b6020820191508190509392505050565b7f496e76616c6964207369676e61747572652e0000000000000000000000000000600082015250565b60006132d2601283612707565b91506132dd8261329c565b602082019050919050565b60006020820190508181036000830152613301816132c5565b9050919050565b7f4164647265737320616c7265616479207365656465642e000000000000000000600082015250565b600061333e601783612707565b915061334982613308565b602082019050919050565b6000602082019050818103600083015261336d81613331565b9050919050565b7f45524332303a2064656372656173656420616c6c6f77616e63652062656c6f7760008201527f207a65726f000000000000000000000000000000000000000000000000000000602082015250565b60006133d0602583612707565b91506133db82613374565b604082019050919050565b600060208201905081810360008301526133ff816133c3565b9050919050565b7f4f776e61626c653a206e6577206f776e657220697320746865207a65726f206160008201527f6464726573730000000000000000000000000000000000000000000000000000602082015250565b6000613462602683612707565b915061346d82613406565b604082019050919050565b6000602082019050818103600083015261349181613455565b9050919050565b600080fd5b600080fd5b600080858511156134b6576134b5613498565b5b838611156134c7576134c661349d565b5b6001850283019150848603905094509492505050565b600082905092915050565b60007fffffffffffffffffffffffffffffffffffffffff00000000000000000000000082169050919050565b600082821b905092915050565b600061352d83836134dd565b8261353881356134e8565b92506014821015613578576135737fffffffffffffffffffffffffffffffffffffffff00000000000000000000000083601403600802613514565b831692505b505092915050565b7f45524332303a20617070726f76652066726f6d20746865207a65726f2061646460008201527f7265737300000000000000000000000000000000000000000000000000000000602082015250565b60006135dc602483612707565b91506135e782613580565b604082019050919050565b6000602082019050818103600083015261360b816135cf565b9050919050565b7f45524332303a20617070726f766520746f20746865207a65726f20616464726560008201527f7373000000000000000000000000000000000000000000000000000000000000602082015250565b600061366e602283612707565b915061367982613612565b604082019050919050565b6000602082019050818103600083015261369d81613661565b9050919050565b7f4f776e61626c653a2063616c6c6572206973206e6f7420746865206f776e6572600082015250565b60006136da602083612707565b91506136e5826136a4565b602082019050919050565b60006020820190508181036000830152613709816136cd565b9050919050565b7f45524332303a20696e73756666696369656e7420616c6c6f77616e6365000000600082015250565b6000613746601d83612707565b915061375182613710565b602082019050919050565b6000602082019050818103600083015261377581613739565b9050919050565b7f45524332303a207472616e736665722066726f6d20746865207a65726f20616460008201527f6472657373000000000000000000000000000000000000000000000000000000602082015250565b60006137d8602583612707565b91506137e38261377c565b604082019050919050565b60006020820190508181036000830152613807816137cb565b9050919050565b7f45524332303a207472616e7366657220746f20746865207a65726f206164647260008201527f6573730000000000000000000000000000000000000000000000000000000000602082015250565b600061386a602383612707565b91506138758261380e565b604082019050919050565b600060208201905081810360008301526138998161385d565b9050919050565b7f45524332303a207472616e7366657220616d6f756e742065786365656473206260008201527f616c616e63650000000000000000000000000000000000000000000000000000602082015250565b60006138fc602683612707565b9150613907826138a0565b604082019050919050565b6000602082019050818103600083015261392b816138ef565b9050919050565b7f45524332303a206d696e7420746f20746865207a65726f206164647265737300600082015250565b6000613968601f83612707565b915061397382613932565b602082019050919050565b600060208201905081810360008301526139978161395b565b9050919050565b600081905092915050565b7f19457468657265756d205369676e6564204d6573736167653a0a000000000000600082015250565b60006139df601a8361399e565b91506139ea826139a9565b601a82019050919050565b6000613a00826126fc565b613a0a818561399e565b9350613a1a818560208601612718565b80840191505092915050565b600081519050919050565b600081905092915050565b6000613a4782613a26565b613a518185613a31565b9350613a61818560208601612718565b80840191505092915050565b6000613a78826139d2565b9150613a8482856139f5565b9150613a908284613a3c565b91508190509392505050565b7f4e487b7100000000000000000000000000000000000000000000000000000000600052603260045260246000fd5b6000613ad682612816565b91507fffffffffffffffffffffffffffffffffffffffffffffffffffffffffffffffff8203613b0857613b07612d83565b5b600182019050919050565b7f4e487b7100000000000000000000000000000000000000000000000000000000600052604160045260246000fd5b7f4e487b7100000000000000000000000000000000000000000000000000000000600052601260045260246000fd5b7f4e487b7100000000000000000000000000000000000000000000000000000000600052602160045260246000fd5b7f45434453413a20696e76616c6964207369676e61747572650000000000000000600082015250565b6000613bd6601883612707565b9150613be182613ba0565b602082019050919050565b60006020820190508181036000830152613c0581613bc9565b9050919050565b7f45434453413a20696e76616c6964207369676e6174757265206c656e67746800600082015250565b6000613c42601f83612707565b9150613c4d82613c0c565b602082019050919050565b60006020820190508181036000830152613c7181613c35565b9050919050565b7f45434453413a20696e76616c6964207369676e6174757265202773272076616c60008201527f7565000000000000000000000000000000000000000000000000000000000000602082015250565b6000613cd4602283612707565b9150613cdf82613c78565b604082019050919050565b60006020820190508181036000830152613d0381613cc7565b9050919050565b6000608082019050613d1f6000830187612976565b613d2c60208301866129ad565b613d396040830185612976565b613d466060830184612976565b95945050505050565b7f4e487b7100000000000000000000000000000000000000000000000000000000600052605160045260246000fdfea264697066735822122068c3851abcb8abd76f6b691caa457aba7e7216663ddaf150189507c74a30ed8364736f6c63430008110033",
  "linkReferences": {},
  "deployedLinkReferences": {}
}