{
  "_format": "hh-sol-artifact-1",
  "contractName": "RerroToken",
  "sourceName": "contracts/RerroToken.sol",
  "abi": [
    {
      "inputs": [
        {
          "internalType": "address",
          "name": "trustedForwarder",
          "type": "address"
        }
      ],
      "stateMutability": "nonpayable",
      "type": "constructor"
    },
    {
      "anonymous": false,
      "inputs": [
        {
          "indexed": true,
          "internalType": "address",
          "name": "owner",
          "type": "address"
        },
        {
          "indexed": true,
          "internalType": "address",
          "name": "spender",
          "type": "address"
        },
        {
          "indexed": false,
          "internalType": "uint256",
          "name": "value",
          "type": "uint256"
        }
      ],
      "name": "Approval",
      "type": "event"
    },
    {
      "anonymous": false,
      "inputs": [
        {
          "indexed": true,
          "internalType": "address",
          "name": "previousOwner",
          "type": "address"
        },
        {
          "indexed": true,
          "internalType": "address",
          "name": "newOwner",
          "type": "address"
        }
      ],
      "name": "OwnershipTransferred",
      "type": "event"
    },
    {
      "anonymous": false,
      "inputs": [
        {
          "indexed": true,
          "internalType": "address",
          "name": "from",
          "type": "address"
        },
        {
          "indexed": true,
          "internalType": "address",
          "name": "to",
          "type": "address"
        },
        {
          "indexed": false,
          "internalType": "uint256",
          "name": "value",
          "type": "uint256"
        }
      ],
      "name": "Transfer",
      "type": "event"
    },
    {
      "inputs": [
        {
          "internalType": "address",
          "name": "owner",
          "type": "address"
        },
        {
          "internalType": "address",
          "name": "spender",
          "type": "address"
        }
      ],
      "name": "allowance",
      "outputs": [
        {
          "internalType": "uint256",
          "name": "",
          "type": "uint256"
        }
      ],
      "stateMutability": "view",
      "type": "function"
    },
    {
      "inputs": [
        {
          "internalType": "address",
          "name": "spender",
          "type": "address"
        },
        {
          "internalType": "uint256",
          "name": "amount",
          "type": "uint256"
        }
      ],
      "name": "approve",
      "outputs": [
        {
          "internalType": "bool",
          "name": "",
          "type": "bool"
        }
      ],
      "stateMutability": "nonpayable",
      "type": "function"
    },
    {
      "inputs": [
        {
          "internalType": "address",
          "name": "account",
          "type": "address"
        }
      ],
      "name": "balanceOf",
      "outputs": [
        {
          "internalType": "uint256",
          "name": "",
          "type": "uint256"
        }
      ],
      "stateMutability": "view",
      "type": "function"
    },
    {
      "inputs": [
        {
          "internalType": "address[]",
          "name": "chipIds",
          "type": "address[]"
        }
      ],
      "name": "bulkSeed",
      "outputs": [],
      "stateMutability": "nonpayable",
      "type": "function"
    },
    {
      "inputs": [
        {
          "internalType": "address[]",
          "name": "chipIds",
          "type": "address[]"
        },
        {
          "internalType": "uint256[]",
          "name": "mintAmounts",
          "type": "uint256[]"
        }
      ],
      "name": "bulkSetMintAmount",
      "outputs": [],
      "stateMutability": "nonpayable",
      "type": "function"
    },
    {
      "inputs": [
        {
          "internalType": "address",
          "name": "",
          "type": "address"
        }
      ],
      "name": "chipIdOwner",
      "outputs": [
        {
          "internalType": "address",
          "name": "",
          "type": "address"
        }
      ],
      "stateMutability": "view",
      "type": "function"
    },
    {
      "inputs": [],
      "name": "chipIdOwnerMintAmount",
      "outputs": [
        {
          "internalType": "uint256",
          "name": "",
          "type": "uint256"
        }
      ],
      "stateMutability": "view",
      "type": "function"
    },
    {
      "inputs": [
        {
          "internalType": "address",
          "name": "owner",
          "type": "address"
        }
      ],
      "name": "claimOwnership",
      "outputs": [],
      "stateMutability": "nonpayable",
      "type": "function"
    },
    {
      "inputs": [],
      "name": "claimOwnershipPaused",
      "outputs": [
        {
          "internalType": "bool",
          "name": "",
          "type": "bool"
        }
      ],
      "stateMutability": "view",
      "type": "function"
    },
    {
      "inputs": [],
      "name": "decimals",
      "outputs": [
        {
          "internalType": "uint8",
          "name": "",
          "type": "uint8"
        }
      ],
      "stateMutability": "view",
      "type": "function"
    },
    {
      "inputs": [
        {
          "internalType": "address",
          "name": "spender",
          "type": "address"
        },
        {
          "internalType": "uint256",
          "name": "subtractedValue",
          "type": "uint256"
        }
      ],
      "name": "decreaseAllowance",
      "outputs": [
        {
          "internalType": "bool",
          "name": "",
          "type": "bool"
        }
      ],
      "stateMutability": "nonpayable",
      "type": "function"
    },
    {
      "inputs": [],
      "name": "defaultClaimedMintAmount",
      "outputs": [
        {
          "internalType": "uint256",
          "name": "",
          "type": "uint256"
        }
      ],
      "stateMutability": "view",
      "type": "function"
    },
    {
      "inputs": [],
      "name": "defaultMintAmount",
      "outputs": [
        {
          "internalType": "uint256",
          "name": "",
          "type": "uint256"
        }
      ],
      "stateMutability": "view",
      "type": "function"
    },
    {
      "inputs": [
        {
          "internalType": "address",
          "name": "spender",
          "type": "address"
        },
        {
          "internalType": "uint256",
          "name": "addedValue",
          "type": "uint256"
        }
      ],
      "name": "increaseAllowance",
      "outputs": [
        {
          "internalType": "bool",
          "name": "",
          "type": "bool"
        }
      ],
      "stateMutability": "nonpayable",
      "type": "function"
    },
    {
      "inputs": [
        {
          "internalType": "address",
          "name": "forwarder",
          "type": "address"
        }
      ],
      "name": "isTrustedForwarder",
      "outputs": [
        {
          "internalType": "bool",
          "name": "",
          "type": "bool"
        }
      ],
      "stateMutability": "view",
      "type": "function"
    },
    {
      "inputs": [],
      "name": "merkleRoot",
      "outputs": [
        {
          "internalType": "bytes32",
          "name": "",
          "type": "bytes32"
        }
      ],
      "stateMutability": "view",
      "type": "function"
    },
    {
      "inputs": [
        {
          "internalType": "address",
          "name": "scanner",
          "type": "address"
        }
      ],
      "name": "mint",
      "outputs": [],
      "stateMutability": "nonpayable",
      "type": "function"
    },
    {
      "inputs": [],
      "name": "mintPaused",
      "outputs": [
        {
          "internalType": "bool",
          "name": "",
          "type": "bool"
        }
      ],
      "stateMutability": "view",
      "type": "function"
    },
    {
      "inputs": [],
      "name": "name",
      "outputs": [
        {
          "internalType": "string",
          "name": "",
          "type": "string"
        }
      ],
      "stateMutability": "view",
      "type": "function"
    },
    {
      "inputs": [],
      "name": "owner",
      "outputs": [
        {
          "internalType": "address",
          "name": "",
          "type": "address"
        }
      ],
      "stateMutability": "view",
      "type": "function"
    },
    {
      "inputs": [],
      "name": "renounceOwnership",
      "outputs": [],
      "stateMutability": "nonpayable",
      "type": "function"
    },
    {
      "inputs": [
        {
          "internalType": "address",
          "name": "",
          "type": "address"
        },
        {
          "internalType": "address",
          "name": "",
          "type": "address"
        }
      ],
      "name": "scannerMinted",
      "outputs": [
        {
          "internalType": "bool",
          "name": "",
          "type": "bool"
        }
      ],
      "stateMutability": "view",
      "type": "function"
    },
    {
      "inputs": [
        {
          "internalType": "address",
          "name": "",
          "type": "address"
        }
      ],
      "name": "seededChipAmounts",
      "outputs": [
        {
          "internalType": "uint256",
          "name": "",
          "type": "uint256"
        }
      ],
      "stateMutability": "view",
      "type": "function"
    },
    {
      "inputs": [
        {
          "internalType": "address",
          "name": "",
          "type": "address"
        }
      ],
      "name": "seededChips",
      "outputs": [
        {
          "internalType": "bool",
          "name": "",
          "type": "bool"
        }
      ],
      "stateMutability": "view",
      "type": "function"
    },
    {
      "inputs": [
        {
          "internalType": "uint256",
          "name": "_amount",
          "type": "uint256"
        }
      ],
      "name": "setChipIdOwnerMintAmount",
      "outputs": [],
      "stateMutability": "nonpayable",
      "type": "function"
    },
    {
      "inputs": [
        {
          "internalType": "bool",
          "name": "_state",
          "type": "bool"
        }
      ],
      "name": "setClaimOwnershipPausedState",
      "outputs": [],
      "stateMutability": "nonpayable",
      "type": "function"
    },
    {
      "inputs": [
        {
          "internalType": "address",
          "name": "chipId",
          "type": "address"
        },
        {
          "internalType": "uint256",
          "name": "mintAmount",
          "type": "uint256"
        }
      ],
      "name": "setMintAmount",
      "outputs": [],
      "stateMutability": "nonpayable",
      "type": "function"
    },
    {
      "inputs": [
        {
          "internalType": "bool",
          "name": "_state",
          "type": "bool"
        }
      ],
      "name": "setMintPausedState",
      "outputs": [],
      "stateMutability": "nonpayable",
      "type": "function"
    },
    {
      "inputs": [
        {
          "internalType": "uint256",
          "name": "_newCap",
          "type": "uint256"
        }
      ],
      "name": "setTokenCap",
      "outputs": [],
      "stateMutability": "nonpayable",
      "type": "function"
    },
    {
      "inputs": [],
      "name": "symbol",
      "outputs": [
        {
          "internalType": "string",
          "name": "",
          "type": "string"
        }
      ],
      "stateMutability": "view",
      "type": "function"
    },
    {
      "inputs": [],
      "name": "tokenCap",
      "outputs": [
        {
          "internalType": "uint256",
          "name": "",
          "type": "uint256"
        }
      ],
      "stateMutability": "view",
      "type": "function"
    },
    {
      "inputs": [],
      "name": "totalSupply",
      "outputs": [
        {
          "internalType": "uint256",
          "name": "",
          "type": "uint256"
        }
      ],
      "stateMutability": "view",
      "type": "function"
    },
    {
      "inputs": [
        {
          "internalType": "address",
          "name": "to",
          "type": "address"
        },
        {
          "internalType": "uint256",
          "name": "amount",
          "type": "uint256"
        }
      ],
      "name": "transfer",
      "outputs": [
        {
          "internalType": "bool",
          "name": "",
          "type": "bool"
        }
      ],
      "stateMutability": "nonpayable",
      "type": "function"
    },
    {
      "inputs": [
        {
          "internalType": "address",
          "name": "from",
          "type": "address"
        },
        {
          "internalType": "address",
          "name": "to",
          "type": "address"
        },
        {
          "internalType": "uint256",
          "name": "amount",
          "type": "uint256"
        }
      ],
      "name": "transferFrom",
      "outputs": [
        {
          "internalType": "bool",
          "name": "",
          "type": "bool"
        }
      ],
      "stateMutability": "nonpayable",
      "type": "function"
    },
    {
      "inputs": [
        {
          "internalType": "address",
          "name": "newOwner",
          "type": "address"
        }
      ],
      "name": "transferOwnership",
      "outputs": [],
      "stateMutability": "nonpayable",
      "type": "function"
    }
  ],
  "bytecode": "0x60a06040526001600b60006101000a81548160ff0219169083151502179055506001600b60016101000a81548160ff0219169083151502179055506a0c67d7d5423dfb7d7c0000600c55670de0b6b3a7640000600d55671bc16d674ec80000600e55670de0b6b3a7640000600f553480156200007a57600080fd5b506040516200351b3803806200351b8339818101604052810190620000a09190620003dd565b806040518060400160405280600581526020017f526572726f0000000000000000000000000000000000000000000000000000008152506040518060400160405280600581526020017f524552524f00000000000000000000000000000000000000000000000000000081525081600390816200011e919062000689565b50806004908162000130919062000689565b5050508073ffffffffffffffffffffffffffffffffffffffff1660808173ffffffffffffffffffffffffffffffffffffffff168152505050620001886200017c6200018f60201b60201c565b620001ab60201b60201c565b50620008c2565b6000620001a66200027160201b6200140e1760201c565b905090565b6000600560009054906101000a900473ffffffffffffffffffffffffffffffffffffffff16905081600560006101000a81548173ffffffffffffffffffffffffffffffffffffffff021916908373ffffffffffffffffffffffffffffffffffffffff1602179055508173ffffffffffffffffffffffffffffffffffffffff168173ffffffffffffffffffffffffffffffffffffffff167f8be0079c531659141344cd1fd0a4f28419497f9722a3daafe3b4186f6b6457e060405160405180910390a35050565b6000806000369050905060006200028d6200030c60201b60201c565b9050620002a0336200032860201b60201c565b8015620002ad5750808210155b15620002ef576000368284620002c491906200079f565b908092620002d593929190620007e4565b90620002e291906200085c565b60601c9250505062000309565b620003046200036260201b620014831760201c565b925050505b90565b6000620003236200036a60201b6200148b1760201c565b905090565b600060805173ffffffffffffffffffffffffffffffffffffffff168273ffffffffffffffffffffffffffffffffffffffff16149050919050565b600033905090565b60006014905090565b600080fd5b600073ffffffffffffffffffffffffffffffffffffffff82169050919050565b6000620003a58262000378565b9050919050565b620003b78162000398565b8114620003c357600080fd5b50565b600081519050620003d781620003ac565b92915050565b600060208284031215620003f657620003f562000373565b5b60006200040684828501620003c6565b91505092915050565b600081519050919050565b7f4e487b7100000000000000000000000000000000000000000000000000000000600052604160045260246000fd5b7f4e487b7100000000000000000000000000000000000000000000000000000000600052602260045260246000fd5b600060028204905060018216806200049157607f821691505b602082108103620004a757620004a662000449565b5b50919050565b60008190508160005260206000209050919050565b60006020601f8301049050919050565b600082821b905092915050565b600060088302620005117fffffffffffffffffffffffffffffffffffffffffffffffffffffffffffffffff82620004d2565b6200051d8683620004d2565b95508019841693508086168417925050509392505050565b6000819050919050565b6000819050919050565b60006200056a620005646200055e8462000535565b6200053f565b62000535565b9050919050565b6000819050919050565b620005868362000549565b6200059e620005958262000571565b848454620004df565b825550505050565b600090565b620005b5620005a6565b620005c28184846200057b565b505050565b5b81811015620005ea57620005de600082620005ab565b600181019050620005c8565b5050565b601f82111562000639576200060381620004ad565b6200060e84620004c2565b810160208510156200061e578190505b620006366200062d85620004c2565b830182620005c7565b50505b505050565b600082821c905092915050565b60006200065e600019846008026200063e565b1980831691505092915050565b60006200067983836200064b565b9150826002028217905092915050565b62000694826200040f565b67ffffffffffffffff811115620006b057620006af6200041a565b5b620006bc825462000478565b620006c9828285620005ee565b600060209050601f831160018114620007015760008415620006ec578287015190505b620006f885826200066b565b86555062000768565b601f1984166200071186620004ad565b60005b828110156200073b5784890151825560018201915060208501945060208101905062000714565b868310156200075b578489015162000757601f8916826200064b565b8355505b6001600288020188555050505b505050505050565b7f4e487b7100000000000000000000000000000000000000000000000000000000600052601160045260246000fd5b6000620007ac8262000535565b9150620007b98362000535565b9250828203905081811115620007d457620007d362000770565b5b92915050565b600080fd5b600080fd5b60008085851115620007fb57620007fa620007da565b5b838611156200080f576200080e620007df565b5b6001850283019150848603905094509492505050565b600082905092915050565b60007fffffffffffffffffffffffffffffffffffffffff00000000000000000000000082169050919050565b60006200086a838362000825565b8262000877813562000830565b92506014821015620008ba57620008b57fffffffffffffffffffffffffffffffffffffffff00000000000000000000000083601403600802620004d2565b831692505b505092915050565b608051612c3d620008de6000396000610aca0152612c3d6000f3fe608060405234801561001057600080fd5b50600436106102115760003560e01c806364c6fef411610125578063a457c2d7116100ad578063cab737a61161007c578063cab737a61461062a578063da92d3ae1461065a578063dd54291b14610676578063dd62ed3e14610694578063f2fde38b146106c457610211565b8063a457c2d71461057c578063a9059cbb146105ac578063ba8ab6ed146105dc578063caab9c911461060c57610211565b80637e4831d3116100f45780637e4831d3146104d6578063842e876b146104f45780638da5cb5b146105245780638e587db51461054257806395d89b411461055e57610211565b806364c6fef4146104625780636a6278421461048057806370a082311461049c578063715018a6146104cc57610211565b806323b872dd116101a8578063313ce56711610177578063313ce567146103aa57806339509351146103c8578063447d532b146103f857806350bcb11f14610416578063572b6c051461043257610211565b806323b872dd146103245780632854bc7e146103545780632eb4a7ab146103705780632faac8301461038e57610211565b80630f088488116101e45780630f0884881461029e5780631497d3c1146102ba57806318160ddd146102d65780631e3116dd146102f457610211565b806305b23f2f1461021657806306fdde03146102345780630865912914610252578063095ea7b31461026e575b600080fd5b61021e6106e0565b60405161022b9190611c3a565b60405180910390f35b61023c6106e6565b6040516102499190611ce5565b60405180910390f35b61026c60048036038101906102679190611d49565b610778565b005b61028860048036038101906102839190611e00565b61079d565b6040516102959190611e4f565b60405180910390f35b6102b860048036038101906102b39190611e6a565b6107c0565b005b6102d460048036038101906102cf9190611efc565b6107d2565b005b6102de6108cb565b6040516102eb9190611c3a565b60405180910390f35b61030e60048036038101906103099190611f49565b6108d5565b60405161031b9190611c3a565b60405180910390f35b61033e60048036038101906103399190611f76565b6108ed565b60405161034b9190611e4f565b60405180910390f35b61036e60048036038101906103699190611e6a565b61091c565b005b61037861092e565b6040516103859190611fe2565b60405180910390f35b6103a860048036038101906103a39190612053565b610934565b005b6103b2610a30565b6040516103bf91906120f0565b60405180910390f35b6103e260048036038101906103dd9190611e00565b610a39565b6040516103ef9190611e4f565b60405180910390f35b610400610a70565b60405161040d9190611c3a565b60405180910390f35b610430600480360381019061042b9190611e00565b610a76565b005b61044c60048036038101906104479190611f49565b610ac6565b6040516104599190611e4f565b60405180910390f35b61046a610b1e565b6040516104779190611e4f565b60405180910390f35b61049a60048036038101906104959190611f49565b610b31565b005b6104b660048036038101906104b19190611f49565b610f68565b6040516104c39190611c3a565b60405180910390f35b6104d4610fb0565b005b6104de610fc4565b6040516104eb9190611e4f565b60405180910390f35b61050e60048036038101906105099190611f49565b610fd7565b60405161051b9190611e4f565b60405180910390f35b61052c610ff7565b604051610539919061211a565b60405180910390f35b61055c60048036038101906105579190611d49565b611021565b005b610566611046565b6040516105739190611ce5565b60405180910390f35b61059660048036038101906105919190611e00565b6110d8565b6040516105a39190611e4f565b60405180910390f35b6105c660048036038101906105c19190611e00565b61114f565b6040516105d39190611e4f565b60405180910390f35b6105f660048036038101906105f19190611f49565b611172565b604051610603919061211a565b60405180910390f35b6106146111a5565b6040516106219190611c3a565b60405180910390f35b610644600480360381019061063f9190612135565b6111ab565b6040516106519190611e4f565b60405180910390f35b610674600480360381019061066f9190611f49565b6111da565b005b61067e6112fe565b60405161068b9190611c3a565b60405180910390f35b6106ae60048036038101906106a99190612135565b611304565b6040516106bb9190611c3a565b60405180910390f35b6106de60048036038101906106d99190611f49565b61138b565b005b600d5481565b6060600380546106f5906121a4565b80601f0160208091040260200160405190810160405280929190818152602001828054610721906121a4565b801561076e5780601f106107435761010080835404028352916020019161076e565b820191906000526020600020905b81548152906001019060200180831161075157829003601f168201915b5050505050905090565b610780611494565b80600b60006101000a81548160ff02191690831515021790555050565b6000806107a8611512565b90506107b5818585611521565b600191505092915050565b6107c8611494565b80600f8190555050565b6107da611494565b60005b828290508110156108c65760008383838181106107fd576107fc6121d5565b5b90506020020160208101906108129190611f49565b90506001600860008373ffffffffffffffffffffffffffffffffffffffff1673ffffffffffffffffffffffffffffffffffffffff16815260200190815260200160002060006101000a81548160ff021916908315150217905550600d54600960008373ffffffffffffffffffffffffffffffffffffffff1673ffffffffffffffffffffffffffffffffffffffff168152602001908152602001600020819055505080806108be90612233565b9150506107dd565b505050565b6000600254905090565b60096020528060005260406000206000915090505481565b6000806108f8611512565b90506109058582856116ea565b610910858585611776565b60019150509392505050565b610924611494565b80600c8190555050565b60065481565b61093c611494565b818190508484905014610984576040517f08c379a000000000000000000000000000000000000000000000000000000000815260040161097b906122c7565b60405180910390fd5b60005b84849050811015610a29578282828181106109a5576109a46121d5565b5b90506020020135600960008787858181106109c3576109c26121d5565b5b90506020020160208101906109d89190611f49565b73ffffffffffffffffffffffffffffffffffffffff1673ffffffffffffffffffffffffffffffffffffffff168152602001908152602001600020819055508080610a2190612233565b915050610987565b5050505050565b60006012905090565b600080610a44611512565b9050610a65818585610a568589611304565b610a6091906122e7565b611521565b600191505092915050565b600e5481565b610a7e611494565b80600960008473ffffffffffffffffffffffffffffffffffffffff1673ffffffffffffffffffffffffffffffffffffffff168152602001908152602001600020819055505050565b60007f000000000000000000000000000000000000000000000000000000000000000073ffffffffffffffffffffffffffffffffffffffff168273ffffffffffffffffffffffffffffffffffffffff16149050919050565b600b60009054906101000a900460ff1681565b6000610b3b611512565b9050600b60019054906101000a900460ff1615610b8d576040517f08c379a0000000000000000000000000000000000000000000000000000000008152600401610b849061238d565b60405180910390fd5b600860008273ffffffffffffffffffffffffffffffffffffffff1673ffffffffffffffffffffffffffffffffffffffff16815260200190815260200160002060009054906101000a900460ff16610c19576040517f08c379a0000000000000000000000000000000000000000000000000000000008152600401610c10906123f9565b60405180910390fd5b600a60008273ffffffffffffffffffffffffffffffffffffffff1673ffffffffffffffffffffffffffffffffffffffff16815260200190815260200160002060008373ffffffffffffffffffffffffffffffffffffffff1673ffffffffffffffffffffffffffffffffffffffff16815260200190815260200160002060009054906101000a900460ff1615610ce3576040517f08c379a0000000000000000000000000000000000000000000000000000000008152600401610cda9061248b565b60405180910390fd5b6000600960008373ffffffffffffffffffffffffffffffffffffffff1673ffffffffffffffffffffffffffffffffffffffff168152602001908152602001600020549050600c54600f5482610d366108cb565b610d4091906122e7565b610d4a91906122e7565b1115610d8b576040517f08c379a0000000000000000000000000000000000000000000000000000000008152600401610d829061251d565b60405180910390fd5b6000600760008473ffffffffffffffffffffffffffffffffffffffff1673ffffffffffffffffffffffffffffffffffffffff16815260200190815260200160002060009054906101000a900473ffffffffffffffffffffffffffffffffffffffff1690506001600a60008573ffffffffffffffffffffffffffffffffffffffff1673ffffffffffffffffffffffffffffffffffffffff16815260200190815260200160002060008673ffffffffffffffffffffffffffffffffffffffff1673ffffffffffffffffffffffffffffffffffffffff16815260200190815260200160002060006101000a81548160ff0219169083151502179055508373ffffffffffffffffffffffffffffffffffffffff168173ffffffffffffffffffffffffffffffffffffffff1614610f6257610ec184836119ec565b600073ffffffffffffffffffffffffffffffffffffffff168173ffffffffffffffffffffffffffffffffffffffff1614610f6157610f60600760008573ffffffffffffffffffffffffffffffffffffffff1673ffffffffffffffffffffffffffffffffffffffff16815260200190815260200160002060009054906101000a900473ffffffffffffffffffffffffffffffffffffffff16600f546119ec565b5b5b50505050565b60008060008373ffffffffffffffffffffffffffffffffffffffff1673ffffffffffffffffffffffffffffffffffffffff168152602001908152602001600020549050919050565b610fb8611494565b610fc26000611b42565b565b600b60019054906101000a900460ff1681565b60086020528060005260406000206000915054906101000a900460ff1681565b6000600560009054906101000a900473ffffffffffffffffffffffffffffffffffffffff16905090565b611029611494565b80600b60016101000a81548160ff02191690831515021790555050565b606060048054611055906121a4565b80601f0160208091040260200160405190810160405280929190818152602001828054611081906121a4565b80156110ce5780601f106110a3576101008083540402835291602001916110ce565b820191906000526020600020905b8154815290600101906020018083116110b157829003601f168201915b5050505050905090565b6000806110e3611512565b905060006110f18286611304565b905083811015611136576040517f08c379a000000000000000000000000000000000000000000000000000000000815260040161112d906125af565b60405180910390fd5b6111438286868403611521565b60019250505092915050565b60008061115a611512565b9050611167818585611776565b600191505092915050565b60076020528060005260406000206000915054906101000a900473ffffffffffffffffffffffffffffffffffffffff1681565b600f5481565b600a6020528160005260406000206020528060005260406000206000915091509054906101000a900460ff1681565b60006111e4611512565b9050600b60009054906101000a900460ff1615611236576040517f08c379a000000000000000000000000000000000000000000000000000000000815260040161122d9061261b565b60405180910390fd5b81600760008373ffffffffffffffffffffffffffffffffffffffff1673ffffffffffffffffffffffffffffffffffffffff16815260200190815260200160002060006101000a81548173ffffffffffffffffffffffffffffffffffffffff021916908373ffffffffffffffffffffffffffffffffffffffff160217905550600e54600960008373ffffffffffffffffffffffffffffffffffffffff1673ffffffffffffffffffffffffffffffffffffffff168152602001908152602001600020819055505050565b600c5481565b6000600160008473ffffffffffffffffffffffffffffffffffffffff1673ffffffffffffffffffffffffffffffffffffffff16815260200190815260200160002060008373ffffffffffffffffffffffffffffffffffffffff1673ffffffffffffffffffffffffffffffffffffffff16815260200190815260200160002054905092915050565b611393611494565b600073ffffffffffffffffffffffffffffffffffffffff168173ffffffffffffffffffffffffffffffffffffffff1603611402576040517f08c379a00000000000000000000000000000000000000000000000000000000081526004016113f9906126ad565b60405180910390fd5b61140b81611b42565b50565b600080600036905090506000611422611c08565b905061142d33610ac6565b80156114395750808210155b1561147357600036828461144d91906126cd565b90809261145c9392919061270b565b90611467919061278a565b60601c92505050611480565b61147b611483565b925050505b90565b600033905090565b60006014905090565b61149c611512565b73ffffffffffffffffffffffffffffffffffffffff166114ba610ff7565b73ffffffffffffffffffffffffffffffffffffffff1614611510576040517f08c379a000000000000000000000000000000000000000000000000000000000815260040161150790612835565b60405180910390fd5b565b600061151c61140e565b905090565b600073ffffffffffffffffffffffffffffffffffffffff168373ffffffffffffffffffffffffffffffffffffffff1603611590576040517f08c379a0000000000000000000000000000000000000000000000000000000008152600401611587906128c7565b60405180910390fd5b600073ffffffffffffffffffffffffffffffffffffffff168273ffffffffffffffffffffffffffffffffffffffff16036115ff576040517f08c379a00000000000000000000000000000000000000000000000000000000081526004016115f690612959565b60405180910390fd5b80600160008573ffffffffffffffffffffffffffffffffffffffff1673ffffffffffffffffffffffffffffffffffffffff16815260200190815260200160002060008473ffffffffffffffffffffffffffffffffffffffff1673ffffffffffffffffffffffffffffffffffffffff168152602001908152602001600020819055508173ffffffffffffffffffffffffffffffffffffffff168373ffffffffffffffffffffffffffffffffffffffff167f8c5be1e5ebec7d5bd14f71427d1e84f3dd0314c0f7b2291e5b200ac8c7c3b925836040516116dd9190611c3a565b60405180910390a3505050565b60006116f68484611304565b90507fffffffffffffffffffffffffffffffffffffffffffffffffffffffffffffffff81146117705781811015611762576040517f08c379a0000000000000000000000000000000000000000000000000000000008152600401611759906129c5565b60405180910390fd5b61176f8484848403611521565b5b50505050565b600073ffffffffffffffffffffffffffffffffffffffff168373ffffffffffffffffffffffffffffffffffffffff16036117e5576040517f08c379a00000000000000000000000000000000000000000000000000000000081526004016117dc90612a57565b60405180910390fd5b600073ffffffffffffffffffffffffffffffffffffffff168273ffffffffffffffffffffffffffffffffffffffff1603611854576040517f08c379a000000000000000000000000000000000000000000000000000000000815260040161184b90612ae9565b60405180910390fd5b61185f838383611c17565b60008060008573ffffffffffffffffffffffffffffffffffffffff1673ffffffffffffffffffffffffffffffffffffffff168152602001908152602001600020549050818110156118e5576040517f08c379a00000000000000000000000000000000000000000000000000000000081526004016118dc90612b7b565b60405180910390fd5b8181036000808673ffffffffffffffffffffffffffffffffffffffff1673ffffffffffffffffffffffffffffffffffffffff16815260200190815260200160002081905550816000808573ffffffffffffffffffffffffffffffffffffffff1673ffffffffffffffffffffffffffffffffffffffff168152602001908152602001600020600082825401925050819055508273ffffffffffffffffffffffffffffffffffffffff168473ffffffffffffffffffffffffffffffffffffffff167fddf252ad1be2c89b69c2b068fc378daa952ba7f163c4a11628f55a4df523b3ef846040516119d39190611c3a565b60405180910390a36119e6848484611c1c565b50505050565b600073ffffffffffffffffffffffffffffffffffffffff168273ffffffffffffffffffffffffffffffffffffffff1603611a5b576040517f08c379a0000000000000000000000000000000000000000000000000000000008152600401611a5290612be7565b60405180910390fd5b611a6760008383611c17565b8060026000828254611a7991906122e7565b92505081905550806000808473ffffffffffffffffffffffffffffffffffffffff1673ffffffffffffffffffffffffffffffffffffffff168152602001908152602001600020600082825401925050819055508173ffffffffffffffffffffffffffffffffffffffff16600073ffffffffffffffffffffffffffffffffffffffff167fddf252ad1be2c89b69c2b068fc378daa952ba7f163c4a11628f55a4df523b3ef83604051611b2a9190611c3a565b60405180910390a3611b3e60008383611c1c565b5050565b6000600560009054906101000a900473ffffffffffffffffffffffffffffffffffffffff16905081600560006101000a81548173ffffffffffffffffffffffffffffffffffffffff021916908373ffffffffffffffffffffffffffffffffffffffff1602179055508173ffffffffffffffffffffffffffffffffffffffff168173ffffffffffffffffffffffffffffffffffffffff167f8be0079c531659141344cd1fd0a4f28419497f9722a3daafe3b4186f6b6457e060405160405180910390a35050565b6000611c1261148b565b905090565b505050565b505050565b6000819050919050565b611c3481611c21565b82525050565b6000602082019050611c4f6000830184611c2b565b92915050565b600081519050919050565b600082825260208201905092915050565b60005b83811015611c8f578082015181840152602081019050611c74565b60008484015250505050565b6000601f19601f8301169050919050565b6000611cb782611c55565b611cc18185611c60565b9350611cd1818560208601611c71565b611cda81611c9b565b840191505092915050565b60006020820190508181036000830152611cff8184611cac565b905092915050565b600080fd5b600080fd5b60008115159050919050565b611d2681611d11565b8114611d3157600080fd5b50565b600081359050611d4381611d1d565b92915050565b600060208284031215611d5f57611d5e611d07565b5b6000611d6d84828501611d34565b91505092915050565b600073ffffffffffffffffffffffffffffffffffffffff82169050919050565b6000611da182611d76565b9050919050565b611db181611d96565b8114611dbc57600080fd5b50565b600081359050611dce81611da8565b92915050565b611ddd81611c21565b8114611de857600080fd5b50565b600081359050611dfa81611dd4565b92915050565b60008060408385031215611e1757611e16611d07565b5b6000611e2585828601611dbf565b9250506020611e3685828601611deb565b9150509250929050565b611e4981611d11565b82525050565b6000602082019050611e646000830184611e40565b92915050565b600060208284031215611e8057611e7f611d07565b5b6000611e8e84828501611deb565b91505092915050565b600080fd5b600080fd5b600080fd5b60008083601f840112611ebc57611ebb611e97565b5b8235905067ffffffffffffffff811115611ed957611ed8611e9c565b5b602083019150836020820283011115611ef557611ef4611ea1565b5b9250929050565b60008060208385031215611f1357611f12611d07565b5b600083013567ffffffffffffffff811115611f3157611f30611d0c565b5b611f3d85828601611ea6565b92509250509250929050565b600060208284031215611f5f57611f5e611d07565b5b6000611f6d84828501611dbf565b91505092915050565b600080600060608486031215611f8f57611f8e611d07565b5b6000611f9d86828701611dbf565b9350506020611fae86828701611dbf565b9250506040611fbf86828701611deb565b9150509250925092565b6000819050919050565b611fdc81611fc9565b82525050565b6000602082019050611ff76000830184611fd3565b92915050565b60008083601f84011261201357612012611e97565b5b8235905067ffffffffffffffff8111156120305761202f611e9c565b5b60208301915083602082028301111561204c5761204b611ea1565b5b9250929050565b6000806000806040858703121561206d5761206c611d07565b5b600085013567ffffffffffffffff81111561208b5761208a611d0c565b5b61209787828801611ea6565b9450945050602085013567ffffffffffffffff8111156120ba576120b9611d0c565b5b6120c687828801611ffd565b925092505092959194509250565b600060ff82169050919050565b6120ea816120d4565b82525050565b600060208201905061210560008301846120e1565b92915050565b61211481611d96565b82525050565b600060208201905061212f600083018461210b565b92915050565b6000806040838503121561214c5761214b611d07565b5b600061215a85828601611dbf565b925050602061216b85828601611dbf565b9150509250929050565b7f4e487b7100000000000000000000000000000000000000000000000000000000600052602260045260246000fd5b600060028204905060018216806121bc57607f821691505b6020821081036121cf576121ce612175565b5b50919050565b7f4e487b7100000000000000000000000000000000000000000000000000000000600052603260045260246000fd5b7f4e487b7100000000000000000000000000000000000000000000000000000000600052601160045260246000fd5b600061223e82611c21565b91507fffffffffffffffffffffffffffffffffffffffffffffffffffffffffffffffff82036122705761226f612204565b5b600182019050919050565b7f4d69736d61746368656420617272617973206c656e6774680000000000000000600082015250565b60006122b1601883611c60565b91506122bc8261227b565b602082019050919050565b600060208201905081810360008301526122e0816122a4565b9050919050565b60006122f282611c21565b91506122fd83611c21565b925082820190508082111561231557612314612204565b5b92915050565b7f53656564696e6720616e64206d696e74696e67206172652063757272656e746c60008201527f792064697361626c65642e000000000000000000000000000000000000000000602082015250565b6000612377602b83611c60565b91506123828261231b565b604082019050919050565b600060208201905081810360008301526123a68161236a565b9050919050565b7f556e6b6e6f776e206368697049642e0000000000000000000000000000000000600082015250565b60006123e3600f83611c60565b91506123ee826123ad565b602082019050919050565b60006020820190508181036000830152612412816123d6565b9050919050565b7f5363616e6e65722068617320616c7265616479206d696e74656420746869732060008201527f6368697049642e00000000000000000000000000000000000000000000000000602082015250565b6000612475602783611c60565b915061248082612419565b604082019050919050565b600060208201905081810360008301526124a481612468565b9050919050565b7f43616e6e6f74206d696e742c206d61792065786365656420746f6b656e20636160008201527f7000000000000000000000000000000000000000000000000000000000000000602082015250565b6000612507602183611c60565b9150612512826124ab565b604082019050919050565b60006020820190508181036000830152612536816124fa565b9050919050565b7f45524332303a2064656372656173656420616c6c6f77616e63652062656c6f7760008201527f207a65726f000000000000000000000000000000000000000000000000000000602082015250565b6000612599602583611c60565b91506125a48261253d565b604082019050919050565b600060208201905081810360008301526125c88161258c565b9050919050565b7f436c61696d696e672069732063757272656e746c792064697361626c65642e00600082015250565b6000612605601f83611c60565b9150612610826125cf565b602082019050919050565b60006020820190508181036000830152612634816125f8565b9050919050565b7f4f776e61626c653a206e6577206f776e657220697320746865207a65726f206160008201527f6464726573730000000000000000000000000000000000000000000000000000602082015250565b6000612697602683611c60565b91506126a28261263b565b604082019050919050565b600060208201905081810360008301526126c68161268a565b9050919050565b60006126d882611c21565b91506126e383611c21565b92508282039050818111156126fb576126fa612204565b5b92915050565b600080fd5b600080fd5b6000808585111561271f5761271e612701565b5b838611156127305761272f612706565b5b6001850283019150848603905094509492505050565b600082905092915050565b60007fffffffffffffffffffffffffffffffffffffffff00000000000000000000000082169050919050565b600082821b905092915050565b60006127968383612746565b826127a18135612751565b925060148210156127e1576127dc7fffffffffffffffffffffffffffffffffffffffff0000000000000000000000008360140360080261277d565b831692505b505092915050565b7f4f776e61626c653a2063616c6c6572206973206e6f7420746865206f776e6572600082015250565b600061281f602083611c60565b915061282a826127e9565b602082019050919050565b6000602082019050818103600083015261284e81612812565b9050919050565b7f45524332303a20617070726f76652066726f6d20746865207a65726f2061646460008201527f7265737300000000000000000000000000000000000000000000000000000000602082015250565b60006128b1602483611c60565b91506128bc82612855565b604082019050919050565b600060208201905081810360008301526128e0816128a4565b9050919050565b7f45524332303a20617070726f766520746f20746865207a65726f20616464726560008201527f7373000000000000000000000000000000000000000000000000000000000000602082015250565b6000612943602283611c60565b915061294e826128e7565b604082019050919050565b6000602082019050818103600083015261297281612936565b9050919050565b7f45524332303a20696e73756666696369656e7420616c6c6f77616e6365000000600082015250565b60006129af601d83611c60565b91506129ba82612979565b602082019050919050565b600060208201905081810360008301526129de816129a2565b9050919050565b7f45524332303a207472616e736665722066726f6d20746865207a65726f20616460008201527f6472657373000000000000000000000000000000000000000000000000000000602082015250565b6000612a41602583611c60565b9150612a4c826129e5565b604082019050919050565b60006020820190508181036000830152612a7081612a34565b9050919050565b7f45524332303a207472616e7366657220746f20746865207a65726f206164647260008201527f6573730000000000000000000000000000000000000000000000000000000000602082015250565b6000612ad3602383611c60565b9150612ade82612a77565b604082019050919050565b60006020820190508181036000830152612b0281612ac6565b9050919050565b7f45524332303a207472616e7366657220616d6f756e742065786365656473206260008201527f616c616e63650000000000000000000000000000000000000000000000000000602082015250565b6000612b65602683611c60565b9150612b7082612b09565b604082019050919050565b60006020820190508181036000830152612b9481612b58565b9050919050565b7f45524332303a206d696e7420746f20746865207a65726f206164647265737300600082015250565b6000612bd1601f83611c60565b9150612bdc82612b9b565b602082019050919050565b60006020820190508181036000830152612c0081612bc4565b905091905056fea2646970667358221220b1ea1be6cc94b6dda514e9d77bf20ecab62fd5f445a78619e347b54bebaac5eb64736f6c63430008110033",
  "linkReferences": {},
  "deployedLinkReferences": {}
}