{
  "_format": "hh-sol-artifact-1",
  "contractName": "RerroToken",
  "sourceName": "contracts/RerroToken.sol",
  "abi": [
    {
      "inputs": [
        {
          "internalType": "address",
          "name": "trustedForwarder",
          "type": "address"
        },
        {
          "internalType": "address",
          "name": "_arxCertSigner",
          "type": "address"
        }
      ],
      "stateMutability": "nonpayable",
      "type": "constructor"
    },
    {
      "anonymous": false,
      "inputs": [
        {
          "indexed": true,
          "internalType": "address",
          "name": "owner",
          "type": "address"
        },
        {
          "indexed": true,
          "internalType": "address",
          "name": "spender",
          "type": "address"
        },
        {
          "indexed": false,
          "internalType": "uint256",
          "name": "value",
          "type": "uint256"
        }
      ],
      "name": "Approval",
      "type": "event"
    },
    {
      "anonymous": false,
      "inputs": [
        {
          "indexed": true,
          "internalType": "address",
          "name": "previousOwner",
          "type": "address"
        },
        {
          "indexed": true,
          "internalType": "address",
          "name": "newOwner",
          "type": "address"
        }
      ],
      "name": "OwnershipTransferred",
      "type": "event"
    },
    {
      "anonymous": false,
      "inputs": [
        {
          "indexed": true,
          "internalType": "address",
          "name": "from",
          "type": "address"
        },
        {
          "indexed": true,
          "internalType": "address",
          "name": "to",
          "type": "address"
        },
        {
          "indexed": false,
          "internalType": "uint256",
          "name": "value",
          "type": "uint256"
        }
      ],
      "name": "Transfer",
      "type": "event"
    },
    {
      "inputs": [
        {
          "internalType": "address",
          "name": "owner",
          "type": "address"
        },
        {
          "internalType": "address",
          "name": "spender",
          "type": "address"
        }
      ],
      "name": "allowance",
      "outputs": [
        {
          "internalType": "uint256",
          "name": "",
          "type": "uint256"
        }
      ],
      "stateMutability": "view",
      "type": "function"
    },
    {
      "inputs": [
        {
          "internalType": "address",
          "name": "spender",
          "type": "address"
        },
        {
          "internalType": "uint256",
          "name": "amount",
          "type": "uint256"
        }
      ],
      "name": "approve",
      "outputs": [
        {
          "internalType": "bool",
          "name": "",
          "type": "bool"
        }
      ],
      "stateMutability": "nonpayable",
      "type": "function"
    },
    {
      "inputs": [],
      "name": "arxCertSigner",
      "outputs": [
        {
          "internalType": "address",
          "name": "",
          "type": "address"
        }
      ],
      "stateMutability": "view",
      "type": "function"
    },
    {
      "inputs": [
        {
          "internalType": "address",
          "name": "account",
          "type": "address"
        }
      ],
      "name": "balanceOf",
      "outputs": [
        {
          "internalType": "uint256",
          "name": "",
          "type": "uint256"
        }
      ],
      "stateMutability": "view",
      "type": "function"
    },
    {
      "inputs": [
        {
          "internalType": "address[]",
          "name": "chipIds",
          "type": "address[]"
        }
      ],
      "name": "bulkSeed",
      "outputs": [],
      "stateMutability": "nonpayable",
      "type": "function"
    },
    {
      "inputs": [
        {
          "internalType": "address[]",
          "name": "chipIds",
          "type": "address[]"
        },
        {
          "internalType": "uint256[]",
          "name": "mintAmounts",
          "type": "uint256[]"
        }
      ],
      "name": "bulkSetMintAmount",
      "outputs": [],
      "stateMutability": "nonpayable",
      "type": "function"
    },
    {
      "inputs": [
        {
          "internalType": "address",
          "name": "",
          "type": "address"
        }
      ],
      "name": "chipIdOwner",
      "outputs": [
        {
          "internalType": "address",
          "name": "",
          "type": "address"
        }
      ],
      "stateMutability": "view",
      "type": "function"
    },
    {
      "inputs": [],
      "name": "chipIdOwnerMintAmount",
      "outputs": [
        {
          "internalType": "uint256",
          "name": "",
          "type": "uint256"
        }
      ],
      "stateMutability": "view",
      "type": "function"
    },
    {
      "inputs": [
        {
          "internalType": "address",
          "name": "owner",
          "type": "address"
        }
      ],
      "name": "claimOwnership",
      "outputs": [],
      "stateMutability": "nonpayable",
      "type": "function"
    },
    {
      "inputs": [],
      "name": "claimOwnershipPaused",
      "outputs": [
        {
          "internalType": "bool",
          "name": "",
          "type": "bool"
        }
      ],
      "stateMutability": "view",
      "type": "function"
    },
    {
      "inputs": [
        {
          "internalType": "address",
          "name": "owner",
          "type": "address"
        },
        {
          "internalType": "bytes",
          "name": "signature",
          "type": "bytes"
        }
      ],
      "name": "claimOwnershipWithSignature",
      "outputs": [],
      "stateMutability": "nonpayable",
      "type": "function"
    },
    {
      "inputs": [],
      "name": "decimals",
      "outputs": [
        {
          "internalType": "uint8",
          "name": "",
          "type": "uint8"
        }
      ],
      "stateMutability": "view",
      "type": "function"
    },
    {
      "inputs": [
        {
          "internalType": "address",
          "name": "spender",
          "type": "address"
        },
        {
          "internalType": "uint256",
          "name": "subtractedValue",
          "type": "uint256"
        }
      ],
      "name": "decreaseAllowance",
      "outputs": [
        {
          "internalType": "bool",
          "name": "",
          "type": "bool"
        }
      ],
      "stateMutability": "nonpayable",
      "type": "function"
    },
    {
      "inputs": [],
      "name": "defaultClaimedMintAmount",
      "outputs": [
        {
          "internalType": "uint256",
          "name": "",
          "type": "uint256"
        }
      ],
      "stateMutability": "view",
      "type": "function"
    },
    {
      "inputs": [],
      "name": "defaultMintAmount",
      "outputs": [
        {
          "internalType": "uint256",
          "name": "",
          "type": "uint256"
        }
      ],
      "stateMutability": "view",
      "type": "function"
    },
    {
      "inputs": [
        {
          "internalType": "address",
          "name": "spender",
          "type": "address"
        },
        {
          "internalType": "uint256",
          "name": "addedValue",
          "type": "uint256"
        }
      ],
      "name": "increaseAllowance",
      "outputs": [
        {
          "internalType": "bool",
          "name": "",
          "type": "bool"
        }
      ],
      "stateMutability": "nonpayable",
      "type": "function"
    },
    {
      "inputs": [
        {
          "internalType": "address",
          "name": "forwarder",
          "type": "address"
        }
      ],
      "name": "isTrustedForwarder",
      "outputs": [
        {
          "internalType": "bool",
          "name": "",
          "type": "bool"
        }
      ],
      "stateMutability": "view",
      "type": "function"
    },
    {
      "inputs": [],
      "name": "merkleRoot",
      "outputs": [
        {
          "internalType": "bytes32",
          "name": "",
          "type": "bytes32"
        }
      ],
      "stateMutability": "view",
      "type": "function"
    },
    {
      "inputs": [
        {
          "internalType": "address",
          "name": "scanner",
          "type": "address"
        }
      ],
      "name": "mint",
      "outputs": [],
      "stateMutability": "nonpayable",
      "type": "function"
    },
    {
      "inputs": [],
      "name": "mintPaused",
      "outputs": [
        {
          "internalType": "bool",
          "name": "",
          "type": "bool"
        }
      ],
      "stateMutability": "view",
      "type": "function"
    },
    {
      "inputs": [
        {
          "internalType": "address",
          "name": "scanner",
          "type": "address"
        },
        {
          "internalType": "bytes",
          "name": "signature",
          "type": "bytes"
        }
      ],
      "name": "mintWithSignature",
      "outputs": [],
      "stateMutability": "nonpayable",
      "type": "function"
    },
    {
      "inputs": [],
      "name": "name",
      "outputs": [
        {
          "internalType": "string",
          "name": "",
          "type": "string"
        }
      ],
      "stateMutability": "view",
      "type": "function"
    },
    {
      "inputs": [],
      "name": "owner",
      "outputs": [
        {
          "internalType": "address",
          "name": "",
          "type": "address"
        }
      ],
      "stateMutability": "view",
      "type": "function"
    },
    {
      "inputs": [],
      "name": "renounceOwnership",
      "outputs": [],
      "stateMutability": "nonpayable",
      "type": "function"
    },
    {
      "inputs": [
        {
          "internalType": "address",
          "name": "",
          "type": "address"
        },
        {
          "internalType": "address",
          "name": "",
          "type": "address"
        }
      ],
      "name": "scannerMinted",
      "outputs": [
        {
          "internalType": "bool",
          "name": "",
          "type": "bool"
        }
      ],
      "stateMutability": "view",
      "type": "function"
    },
    {
      "inputs": [
        {
          "internalType": "address",
          "name": "",
          "type": "address"
        }
      ],
      "name": "seededChipAmounts",
      "outputs": [
        {
          "internalType": "uint256",
          "name": "",
          "type": "uint256"
        }
      ],
      "stateMutability": "view",
      "type": "function"
    },
    {
      "inputs": [
        {
          "internalType": "address",
          "name": "",
          "type": "address"
        }
      ],
      "name": "seededChips",
      "outputs": [
        {
          "internalType": "bool",
          "name": "",
          "type": "bool"
        }
      ],
      "stateMutability": "view",
      "type": "function"
    },
    {
      "inputs": [
        {
          "internalType": "address",
          "name": "_newSigner",
          "type": "address"
        }
      ],
      "name": "setArxCertSigner",
      "outputs": [],
      "stateMutability": "nonpayable",
      "type": "function"
    },
    {
      "inputs": [
        {
          "internalType": "uint256",
          "name": "_amount",
          "type": "uint256"
        }
      ],
      "name": "setChipIdOwnerMintAmount",
      "outputs": [],
      "stateMutability": "nonpayable",
      "type": "function"
    },
    {
      "inputs": [
        {
          "internalType": "bool",
          "name": "_state",
          "type": "bool"
        }
      ],
      "name": "setClaimOwnershipPausedState",
      "outputs": [],
      "stateMutability": "nonpayable",
      "type": "function"
    },
    {
      "inputs": [
        {
          "internalType": "address",
          "name": "chipId",
          "type": "address"
        },
        {
          "internalType": "uint256",
          "name": "mintAmount",
          "type": "uint256"
        }
      ],
      "name": "setMintAmount",
      "outputs": [],
      "stateMutability": "nonpayable",
      "type": "function"
    },
    {
      "inputs": [
        {
          "internalType": "bool",
          "name": "_state",
          "type": "bool"
        }
      ],
      "name": "setMintPausedState",
      "outputs": [],
      "stateMutability": "nonpayable",
      "type": "function"
    },
    {
      "inputs": [
        {
          "internalType": "uint256",
          "name": "_newCap",
          "type": "uint256"
        }
      ],
      "name": "setTokenCap",
      "outputs": [],
      "stateMutability": "nonpayable",
      "type": "function"
    },
    {
      "inputs": [],
      "name": "symbol",
      "outputs": [
        {
          "internalType": "string",
          "name": "",
          "type": "string"
        }
      ],
      "stateMutability": "view",
      "type": "function"
    },
    {
      "inputs": [],
      "name": "tokenCap",
      "outputs": [
        {
          "internalType": "uint256",
          "name": "",
          "type": "uint256"
        }
      ],
      "stateMutability": "view",
      "type": "function"
    },
    {
      "inputs": [],
      "name": "totalSupply",
      "outputs": [
        {
          "internalType": "uint256",
          "name": "",
          "type": "uint256"
        }
      ],
      "stateMutability": "view",
      "type": "function"
    },
    {
      "inputs": [
        {
          "internalType": "address",
          "name": "to",
          "type": "address"
        },
        {
          "internalType": "uint256",
          "name": "amount",
          "type": "uint256"
        }
      ],
      "name": "transfer",
      "outputs": [
        {
          "internalType": "bool",
          "name": "",
          "type": "bool"
        }
      ],
      "stateMutability": "nonpayable",
      "type": "function"
    },
    {
      "inputs": [
        {
          "internalType": "address",
          "name": "from",
          "type": "address"
        },
        {
          "internalType": "address",
          "name": "to",
          "type": "address"
        },
        {
          "internalType": "uint256",
          "name": "amount",
          "type": "uint256"
        }
      ],
      "name": "transferFrom",
      "outputs": [
        {
          "internalType": "bool",
          "name": "",
          "type": "bool"
        }
      ],
      "stateMutability": "nonpayable",
      "type": "function"
    },
    {
      "inputs": [
        {
          "internalType": "address",
          "name": "newOwner",
          "type": "address"
        }
      ],
      "name": "transferOwnership",
      "outputs": [],
      "stateMutability": "nonpayable",
      "type": "function"
    },
    {
      "inputs": [
        {
          "internalType": "address",
          "name": "chipId",
          "type": "address"
        },
        {
          "internalType": "bytes",
          "name": "signature",
          "type": "bytes"
        }
      ],
      "name": "verifySignature",
      "outputs": [
        {
          "internalType": "bool",
          "name": "",
          "type": "bool"
        }
      ],
      "stateMutability": "view",
      "type": "function"
    }
  ],
  "bytecode": "0x60a06040526001600b60006101000a81548160ff0219169083151502179055506001600b60016101000a81548160ff0219169083151502179055506a0c67d7d5423dfb7d7c0000600c55670de0b6b3a7640000600d55671bc16d674ec80000600e55670de0b6b3a7640000600f553480156200007a57600080fd5b5060405162004505380380620045058339818101604052810190620000a091906200041f565b816040518060400160405280600f81526020017f4b4f4e47204c616e6420526572726f00000000000000000000000000000000008152506040518060400160405280600581526020017f524552524f00000000000000000000000000000000000000000000000000000081525081600390816200011e9190620006e0565b508060049081620001309190620006e0565b5050508073ffffffffffffffffffffffffffffffffffffffff1660808173ffffffffffffffffffffffffffffffffffffffff168152505050620001886200017c620001d160201b60201c565b620001ed60201b60201c565b80601060006101000a81548173ffffffffffffffffffffffffffffffffffffffff021916908373ffffffffffffffffffffffffffffffffffffffff160217905550505062000919565b6000620001e8620002b360201b620015091760201c565b905090565b6000600560009054906101000a900473ffffffffffffffffffffffffffffffffffffffff16905081600560006101000a81548173ffffffffffffffffffffffffffffffffffffffff021916908373ffffffffffffffffffffffffffffffffffffffff1602179055508173ffffffffffffffffffffffffffffffffffffffff168173ffffffffffffffffffffffffffffffffffffffff167f8be0079c531659141344cd1fd0a4f28419497f9722a3daafe3b4186f6b6457e060405160405180910390a35050565b600080600036905090506000620002cf6200034e60201b60201c565b9050620002e2336200036a60201b60201c565b8015620002ef5750808210155b1562000331576000368284620003069190620007f6565b90809262000317939291906200083b565b90620003249190620008b3565b60601c925050506200034b565b62000346620003a460201b6200157e1760201c565b925050505b90565b600062000365620003ac60201b620015861760201c565b905090565b600060805173ffffffffffffffffffffffffffffffffffffffff168273ffffffffffffffffffffffffffffffffffffffff16149050919050565b600033905090565b60006014905090565b600080fd5b600073ffffffffffffffffffffffffffffffffffffffff82169050919050565b6000620003e782620003ba565b9050919050565b620003f981620003da565b81146200040557600080fd5b50565b6000815190506200041981620003ee565b92915050565b60008060408385031215620004395762000438620003b5565b5b6000620004498582860162000408565b92505060206200045c8582860162000408565b9150509250929050565b600081519050919050565b7f4e487b7100000000000000000000000000000000000000000000000000000000600052604160045260246000fd5b7f4e487b7100000000000000000000000000000000000000000000000000000000600052602260045260246000fd5b60006002820490506001821680620004e857607f821691505b602082108103620004fe57620004fd620004a0565b5b50919050565b60008190508160005260206000209050919050565b60006020601f8301049050919050565b600082821b905092915050565b600060088302620005687fffffffffffffffffffffffffffffffffffffffffffffffffffffffffffffffff8262000529565b62000574868362000529565b95508019841693508086168417925050509392505050565b6000819050919050565b6000819050919050565b6000620005c1620005bb620005b5846200058c565b62000596565b6200058c565b9050919050565b6000819050919050565b620005dd83620005a0565b620005f5620005ec82620005c8565b84845462000536565b825550505050565b600090565b6200060c620005fd565b62000619818484620005d2565b505050565b5b8181101562000641576200063560008262000602565b6001810190506200061f565b5050565b601f82111562000690576200065a8162000504565b620006658462000519565b8101602085101562000675578190505b6200068d620006848562000519565b8301826200061e565b50505b505050565b600082821c905092915050565b6000620006b56000198460080262000695565b1980831691505092915050565b6000620006d08383620006a2565b9150826002028217905092915050565b620006eb8262000466565b67ffffffffffffffff81111562000707576200070662000471565b5b620007138254620004cf565b6200072082828562000645565b600060209050601f83116001811462000758576000841562000743578287015190505b6200074f8582620006c2565b865550620007bf565b601f198416620007688662000504565b60005b8281101562000792578489015182556001820191506020850194506020810190506200076b565b86831015620007b25784890151620007ae601f891682620006a2565b8355505b6001600288020188555050505b505050505050565b7f4e487b7100000000000000000000000000000000000000000000000000000000600052601160045260246000fd5b600062000803826200058c565b915062000810836200058c565b92508282039050818111156200082b576200082a620007c7565b5b92915050565b600080fd5b600080fd5b6000808585111562000852576200085162000831565b5b8386111562000866576200086562000836565b5b6001850283019150848603905094509492505050565b600082905092915050565b60007fffffffffffffffffffffffffffffffffffffffff00000000000000000000000082169050919050565b6000620008c183836200087c565b82620008ce813562000887565b9250601482101562000911576200090c7fffffffffffffffffffffffffffffffffffffffff0000000000000000000000008360140360080262000529565b831692505b505092915050565b608051613bd0620009356000396000610d140152613bd06000f3fe608060405234801561001057600080fd5b50600436106102485760003560e01c80636a6278421161013b578063a457c2d7116100b8578063da92d3ae1161007c578063da92d3ae14610717578063dd54291b14610733578063dd62ed3e14610751578063e49e4d8e14610781578063f2fde38b1461079d57610248565b8063a457c2d714610639578063a9059cbb14610669578063ba8ab6ed14610699578063caab9c91146106c9578063cab737a6146106e757610248565b8063842e876b116100ff578063842e876b146105935780638da5cb5b146105c35780638e08254c146105e15780638e587db5146105ff57806395d89b411461061b57610248565b80636a6278421461050357806370a082311461051f578063715018a61461054f5780637735f54f146105595780637e4831d31461057557610248565b80632854bc7e116101c9578063447d532b1161018d578063447d532b1461045f5780634d24508c1461047d57806350bcb11f14610499578063572b6c05146104b557806364c6fef4146104e557610248565b80632854bc7e146103bb5780632eb4a7ab146103d75780632faac830146103f5578063313ce56714610411578063395093511461042f57610248565b80631497d3c1116102105780631497d3c1146102f157806318160ddd1461030d5780631e3116dd1461032b57806323b872dd1461035b578063258c1ef51461038b57610248565b806305b23f2f1461024d57806306fdde031461026b5780630865912914610289578063095ea7b3146102a55780630f088488146102d5575b600080fd5b6102556107b9565b60405161026291906125b0565b60405180910390f35b6102736107bf565b604051610280919061265b565b60405180910390f35b6102a3600480360381019061029e91906126c9565b610851565b005b6102bf60048036038101906102ba9190612780565b610876565b6040516102cc91906127cf565b60405180910390f35b6102ef60048036038101906102ea91906127ea565b610899565b005b61030b6004803603810190610306919061287c565b6108ab565b005b6103156109a4565b60405161032291906125b0565b60405180910390f35b610345600480360381019061034091906128c9565b6109ae565b60405161035291906125b0565b60405180910390f35b610375600480360381019061037091906128f6565b6109c6565b60405161038291906127cf565b60405180910390f35b6103a560048036038101906103a09190612a79565b6109f5565b6040516103b291906127cf565b60405180910390f35b6103d560048036038101906103d091906127ea565b610a9b565b005b6103df610aad565b6040516103ec9190612aee565b60405180910390f35b61040f600480360381019061040a9190612b5f565b610ab3565b005b610419610c2e565b6040516104269190612bfc565b60405180910390f35b61044960048036038101906104449190612780565b610c37565b60405161045691906127cf565b60405180910390f35b610467610c6e565b60405161047491906125b0565b60405180910390f35b610497600480360381019061049291906128c9565b610c74565b005b6104b360048036038101906104ae9190612780565b610cc0565b005b6104cf60048036038101906104ca91906128c9565b610d10565b6040516104dc91906127cf565b60405180910390f35b6104ed610d68565b6040516104fa91906127cf565b60405180910390f35b61051d600480360381019061051891906128c9565b610d7b565b005b610539600480360381019061053491906128c9565b610e21565b60405161054691906125b0565b60405180910390f35b610557610e69565b005b610573600480360381019061056e9190612c6d565b610e7d565b005b61057d611016565b60405161058a91906127cf565b60405180910390f35b6105ad60048036038101906105a891906128c9565b611029565b6040516105ba91906127cf565b60405180910390f35b6105cb611049565b6040516105d89190612cdc565b60405180910390f35b6105e9611073565b6040516105f69190612cdc565b60405180910390f35b610619600480360381019061061491906126c9565b611099565b005b6106236110be565b604051610630919061265b565b60405180910390f35b610653600480360381019061064e9190612780565b611150565b60405161066091906127cf565b60405180910390f35b610683600480360381019061067e9190612780565b6111c7565b60405161069091906127cf565b60405180910390f35b6106b360048036038101906106ae91906128c9565b6111ea565b6040516106c09190612cdc565b60405180910390f35b6106d161121d565b6040516106de91906125b0565b60405180910390f35b61070160048036038101906106fc9190612cf7565b611223565b60405161070e91906127cf565b60405180910390f35b610731600480360381019061072c91906128c9565b611252565b005b61073b6112f8565b60405161074891906125b0565b60405180910390f35b61076b60048036038101906107669190612cf7565b6112fe565b60405161077891906125b0565b60405180910390f35b61079b60048036038101906107969190612c6d565b611385565b005b6107b760048036038101906107b291906128c9565b611486565b005b600d5481565b6060600380546107ce90612d66565b80601f01602080910402602001604051908101604052809291908181526020018280546107fa90612d66565b80156108475780601f1061081c57610100808354040283529160200191610847565b820191906000526020600020905b81548152906001019060200180831161082a57829003601f168201915b5050505050905090565b61085961158f565b80600b60006101000a81548160ff02191690831515021790555050565b60008061088161160d565b905061088e81858561161c565b600191505092915050565b6108a161158f565b80600f8190555050565b6108b361158f565b60005b8282905081101561099f5760008383838181106108d6576108d5612d97565b5b90506020020160208101906108eb91906128c9565b90506001600860008373ffffffffffffffffffffffffffffffffffffffff1673ffffffffffffffffffffffffffffffffffffffff16815260200190815260200160002060006101000a81548160ff021916908315150217905550600d54600960008373ffffffffffffffffffffffffffffffffffffffff1673ffffffffffffffffffffffffffffffffffffffff1681526020019081526020016000208190555050808061099790612df5565b9150506108b6565b505050565b6000600254905090565b60096020528060005260406000206000915090505481565b6000806109d161160d565b90506109de8582856117e5565b6109e9858585611871565b60019150509392505050565b60008083604051602001610a099190612e85565b6040516020818303038152906040528051906020012090506000610a2c82611ae7565b9050601060009054906101000a900473ffffffffffffffffffffffffffffffffffffffff1673ffffffffffffffffffffffffffffffffffffffff16610a7a8583611b1d90919063ffffffff16565b73ffffffffffffffffffffffffffffffffffffffff16149250505092915050565b610aa361158f565b80600c8190555050565b60065481565b610abb61158f565b818190508484905014610b03576040517f08c379a0000000000000000000000000000000000000000000000000000000008152600401610afa90612eec565b60405180910390fd5b60005b84849050811015610c2757600160086000878785818110610b2a57610b29612d97565b5b9050602002016020810190610b3f91906128c9565b73ffffffffffffffffffffffffffffffffffffffff1673ffffffffffffffffffffffffffffffffffffffff16815260200190815260200160002060006101000a81548160ff021916908315150217905550828282818110610ba357610ba2612d97565b5b9050602002013560096000878785818110610bc157610bc0612d97565b5b9050602002016020810190610bd691906128c9565b73ffffffffffffffffffffffffffffffffffffffff1673ffffffffffffffffffffffffffffffffffffffff168152602001908152602001600020819055508080610c1f90612df5565b915050610b06565b5050505050565b60006012905090565b600080610c4261160d565b9050610c63818585610c5485896112fe565b610c5e9190612f0c565b61161c565b600191505092915050565b600e5481565b610c7c61158f565b80601060006101000a81548173ffffffffffffffffffffffffffffffffffffffff021916908373ffffffffffffffffffffffffffffffffffffffff16021790555050565b610cc861158f565b80600960008473ffffffffffffffffffffffffffffffffffffffff1673ffffffffffffffffffffffffffffffffffffffff168152602001908152602001600020819055505050565b60007f000000000000000000000000000000000000000000000000000000000000000073ffffffffffffffffffffffffffffffffffffffff168273ffffffffffffffffffffffffffffffffffffffff16149050919050565b600b60009054906101000a900460ff1681565b6000610d8561160d565b9050600860008273ffffffffffffffffffffffffffffffffffffffff1673ffffffffffffffffffffffffffffffffffffffff16815260200190815260200160002060009054906101000a900460ff16610e13576040517f08c379a0000000000000000000000000000000000000000000000000000000008152600401610e0a90612fb2565b60405180910390fd5b610e1d8282611b44565b5050565b60008060008373ffffffffffffffffffffffffffffffffffffffff1673ffffffffffffffffffffffffffffffffffffffff168152602001908152602001600020549050919050565b610e7161158f565b610e7b6000611ee3565b565b6000610e8761160d565b9050610ed78184848080601f016020809104026020016040519081016040528093929190818152602001838380828437600081840152601f19601f820116905080830192505050505050506109f5565b610f16576040517f08c379a0000000000000000000000000000000000000000000000000000000008152600401610f0d9061301e565b60405180910390fd5b600860008273ffffffffffffffffffffffffffffffffffffffff1673ffffffffffffffffffffffffffffffffffffffff16815260200190815260200160002060009054906101000a900460ff16611006576001600860008373ffffffffffffffffffffffffffffffffffffffff1673ffffffffffffffffffffffffffffffffffffffff16815260200190815260200160002060006101000a81548160ff021916908315150217905550600d54600960008373ffffffffffffffffffffffffffffffffffffffff1673ffffffffffffffffffffffffffffffffffffffff168152602001908152602001600020819055505b6110108482611b44565b50505050565b600b60019054906101000a900460ff1681565b60086020528060005260406000206000915054906101000a900460ff1681565b6000600560009054906101000a900473ffffffffffffffffffffffffffffffffffffffff16905090565b601060009054906101000a900473ffffffffffffffffffffffffffffffffffffffff1681565b6110a161158f565b80600b60016101000a81548160ff02191690831515021790555050565b6060600480546110cd90612d66565b80601f01602080910402602001604051908101604052809291908181526020018280546110f990612d66565b80156111465780601f1061111b57610100808354040283529160200191611146565b820191906000526020600020905b81548152906001019060200180831161112957829003601f168201915b5050505050905090565b60008061115b61160d565b9050600061116982866112fe565b9050838110156111ae576040517f08c379a00000000000000000000000000000000000000000000000000000000081526004016111a5906130b0565b60405180910390fd5b6111bb828686840361161c565b60019250505092915050565b6000806111d261160d565b90506111df818585611871565b600191505092915050565b60076020528060005260406000206000915054906101000a900473ffffffffffffffffffffffffffffffffffffffff1681565b600f5481565b600a6020528160005260406000206020528060005260406000206000915091509054906101000a900460ff1681565b600061125c61160d565b9050600860008273ffffffffffffffffffffffffffffffffffffffff1673ffffffffffffffffffffffffffffffffffffffff16815260200190815260200160002060009054906101000a900460ff166112ea576040517f08c379a00000000000000000000000000000000000000000000000000000000081526004016112e190613142565b60405180910390fd5b6112f48183611fa9565b5050565b600c5481565b6000600160008473ffffffffffffffffffffffffffffffffffffffff1673ffffffffffffffffffffffffffffffffffffffff16815260200190815260200160002060008373ffffffffffffffffffffffffffffffffffffffff1673ffffffffffffffffffffffffffffffffffffffff16815260200190815260200160002054905092915050565b600061138f61160d565b90506113df8184848080601f016020809104026020016040519081016040528093929190818152602001838380828437600081840152601f19601f820116905080830192505050505050506109f5565b61141e576040517f08c379a00000000000000000000000000000000000000000000000000000000081526004016114159061301e565b60405180910390fd5b6001600860008373ffffffffffffffffffffffffffffffffffffffff1673ffffffffffffffffffffffffffffffffffffffff16815260200190815260200160002060006101000a81548160ff0219169083151502179055506114808185611fa9565b50505050565b61148e61158f565b600073ffffffffffffffffffffffffffffffffffffffff168173ffffffffffffffffffffffffffffffffffffffff16036114fd576040517f08c379a00000000000000000000000000000000000000000000000000000000081526004016114f4906131d4565b60405180910390fd5b61150681611ee3565b50565b60008060003690509050600061151d61218f565b905061152833610d10565b80156115345750808210155b1561156e57600036828461154891906131f4565b90809261155793929190613232565b9061156291906132b1565b60601c9250505061157b565b61157661157e565b925050505b90565b600033905090565b60006014905090565b61159761160d565b73ffffffffffffffffffffffffffffffffffffffff166115b5611049565b73ffffffffffffffffffffffffffffffffffffffff161461160b576040517f08c379a00000000000000000000000000000000000000000000000000000000081526004016116029061335c565b60405180910390fd5b565b6000611617611509565b905090565b600073ffffffffffffffffffffffffffffffffffffffff168373ffffffffffffffffffffffffffffffffffffffff160361168b576040517f08c379a0000000000000000000000000000000000000000000000000000000008152600401611682906133ee565b60405180910390fd5b600073ffffffffffffffffffffffffffffffffffffffff168273ffffffffffffffffffffffffffffffffffffffff16036116fa576040517f08c379a00000000000000000000000000000000000000000000000000000000081526004016116f190613480565b60405180910390fd5b80600160008573ffffffffffffffffffffffffffffffffffffffff1673ffffffffffffffffffffffffffffffffffffffff16815260200190815260200160002060008473ffffffffffffffffffffffffffffffffffffffff1673ffffffffffffffffffffffffffffffffffffffff168152602001908152602001600020819055508173ffffffffffffffffffffffffffffffffffffffff168373ffffffffffffffffffffffffffffffffffffffff167f8c5be1e5ebec7d5bd14f71427d1e84f3dd0314c0f7b2291e5b200ac8c7c3b925836040516117d891906125b0565b60405180910390a3505050565b60006117f184846112fe565b90507fffffffffffffffffffffffffffffffffffffffffffffffffffffffffffffffff811461186b578181101561185d576040517f08c379a0000000000000000000000000000000000000000000000000000000008152600401611854906134ec565b60405180910390fd5b61186a848484840361161c565b5b50505050565b600073ffffffffffffffffffffffffffffffffffffffff168373ffffffffffffffffffffffffffffffffffffffff16036118e0576040517f08c379a00000000000000000000000000000000000000000000000000000000081526004016118d79061357e565b60405180910390fd5b600073ffffffffffffffffffffffffffffffffffffffff168273ffffffffffffffffffffffffffffffffffffffff160361194f576040517f08c379a000000000000000000000000000000000000000000000000000000000815260040161194690613610565b60405180910390fd5b61195a83838361219e565b60008060008573ffffffffffffffffffffffffffffffffffffffff1673ffffffffffffffffffffffffffffffffffffffff168152602001908152602001600020549050818110156119e0576040517f08c379a00000000000000000000000000000000000000000000000000000000081526004016119d7906136a2565b60405180910390fd5b8181036000808673ffffffffffffffffffffffffffffffffffffffff1673ffffffffffffffffffffffffffffffffffffffff16815260200190815260200160002081905550816000808573ffffffffffffffffffffffffffffffffffffffff1673ffffffffffffffffffffffffffffffffffffffff168152602001908152602001600020600082825401925050819055508273ffffffffffffffffffffffffffffffffffffffff168473ffffffffffffffffffffffffffffffffffffffff167fddf252ad1be2c89b69c2b068fc378daa952ba7f163c4a11628f55a4df523b3ef84604051611ace91906125b0565b60405180910390a3611ae18484846121a3565b50505050565b60007f19457468657265756d205369676e6564204d6573736167653a0a33320000000060005281601c52603c6000209050919050565b6000806000611b2c85856121a8565b91509150611b39816121f9565b819250505092915050565b600b60019054906101000a900460ff1615611b94576040517f08c379a0000000000000000000000000000000000000000000000000000000008152600401611b8b90613734565b60405180910390fd5b600a60008273ffffffffffffffffffffffffffffffffffffffff1673ffffffffffffffffffffffffffffffffffffffff16815260200190815260200160002060008373ffffffffffffffffffffffffffffffffffffffff1673ffffffffffffffffffffffffffffffffffffffff16815260200190815260200160002060009054906101000a900460ff1615611c5e576040517f08c379a0000000000000000000000000000000000000000000000000000000008152600401611c55906137c6565b60405180910390fd5b6000600960008373ffffffffffffffffffffffffffffffffffffffff1673ffffffffffffffffffffffffffffffffffffffff168152602001908152602001600020549050600c54600f5482611cb16109a4565b611cbb9190612f0c565b611cc59190612f0c565b1115611d06576040517f08c379a0000000000000000000000000000000000000000000000000000000008152600401611cfd90613858565b60405180910390fd5b6000600760008473ffffffffffffffffffffffffffffffffffffffff1673ffffffffffffffffffffffffffffffffffffffff16815260200190815260200160002060009054906101000a900473ffffffffffffffffffffffffffffffffffffffff1690506001600a60008573ffffffffffffffffffffffffffffffffffffffff1673ffffffffffffffffffffffffffffffffffffffff16815260200190815260200160002060008673ffffffffffffffffffffffffffffffffffffffff1673ffffffffffffffffffffffffffffffffffffffff16815260200190815260200160002060006101000a81548160ff0219169083151502179055508373ffffffffffffffffffffffffffffffffffffffff168173ffffffffffffffffffffffffffffffffffffffff1614611edd57611e3c848361235f565b600073ffffffffffffffffffffffffffffffffffffffff168173ffffffffffffffffffffffffffffffffffffffff1614611edc57611edb600760008573ffffffffffffffffffffffffffffffffffffffff1673ffffffffffffffffffffffffffffffffffffffff16815260200190815260200160002060009054906101000a900473ffffffffffffffffffffffffffffffffffffffff16600f5461235f565b5b5b50505050565b6000600560009054906101000a900473ffffffffffffffffffffffffffffffffffffffff16905081600560006101000a81548173ffffffffffffffffffffffffffffffffffffffff021916908373ffffffffffffffffffffffffffffffffffffffff1602179055508173ffffffffffffffffffffffffffffffffffffffff168173ffffffffffffffffffffffffffffffffffffffff167f8be0079c531659141344cd1fd0a4f28419497f9722a3daafe3b4186f6b6457e060405160405180910390a35050565b600b60009054906101000a900460ff1615611ff9576040517f08c379a0000000000000000000000000000000000000000000000000000000008152600401611ff0906138c4565b60405180910390fd5b600073ffffffffffffffffffffffffffffffffffffffff16600760008473ffffffffffffffffffffffffffffffffffffffff1673ffffffffffffffffffffffffffffffffffffffff16815260200190815260200160002060009054906101000a900473ffffffffffffffffffffffffffffffffffffffff1673ffffffffffffffffffffffffffffffffffffffff16146120c7576040517f08c379a00000000000000000000000000000000000000000000000000000000081526004016120be90613930565b60405180910390fd5b80600760008473ffffffffffffffffffffffffffffffffffffffff1673ffffffffffffffffffffffffffffffffffffffff16815260200190815260200160002060006101000a81548173ffffffffffffffffffffffffffffffffffffffff021916908373ffffffffffffffffffffffffffffffffffffffff160217905550600e54600960008473ffffffffffffffffffffffffffffffffffffffff1673ffffffffffffffffffffffffffffffffffffffff168152602001908152602001600020819055505050565b6000612199611586565b905090565b505050565b505050565b60008060418351036121e95760008060006020860151925060408601519150606086015160001a90506121dd878285856124b5565b945094505050506121f2565b60006002915091505b9250929050565b6000600481111561220d5761220c613950565b5b8160048111156122205761221f613950565b5b031561235c576001600481111561223a57612239613950565b5b81600481111561224d5761224c613950565b5b0361228d576040517f08c379a0000000000000000000000000000000000000000000000000000000008152600401612284906139cb565b60405180910390fd5b600260048111156122a1576122a0613950565b5b8160048111156122b4576122b3613950565b5b036122f4576040517f08c379a00000000000000000000000000000000000000000000000000000000081526004016122eb90613a37565b60405180910390fd5b6003600481111561230857612307613950565b5b81600481111561231b5761231a613950565b5b0361235b576040517f08c379a000000000000000000000000000000000000000000000000000000000815260040161235290613ac9565b60405180910390fd5b5b50565b600073ffffffffffffffffffffffffffffffffffffffff168273ffffffffffffffffffffffffffffffffffffffff16036123ce576040517f08c379a00000000000000000000000000000000000000000000000000000000081526004016123c590613b35565b60405180910390fd5b6123da6000838361219e565b80600260008282546123ec9190612f0c565b92505081905550806000808473ffffffffffffffffffffffffffffffffffffffff1673ffffffffffffffffffffffffffffffffffffffff168152602001908152602001600020600082825401925050819055508173ffffffffffffffffffffffffffffffffffffffff16600073ffffffffffffffffffffffffffffffffffffffff167fddf252ad1be2c89b69c2b068fc378daa952ba7f163c4a11628f55a4df523b3ef8360405161249d91906125b0565b60405180910390a36124b1600083836121a3565b5050565b6000807f7fffffffffffffffffffffffffffffff5d576e7357a4501ddfe92f46681b20a08360001c11156124f057600060039150915061258e565b6000600187878787604051600081526020016040526040516125159493929190613b55565b6020604051602081039080840390855afa158015612537573d6000803e3d6000fd5b505050602060405103519050600073ffffffffffffffffffffffffffffffffffffffff168173ffffffffffffffffffffffffffffffffffffffff16036125855760006001925092505061258e565b80600092509250505b94509492505050565b6000819050919050565b6125aa81612597565b82525050565b60006020820190506125c560008301846125a1565b92915050565b600081519050919050565b600082825260208201905092915050565b60005b838110156126055780820151818401526020810190506125ea565b60008484015250505050565b6000601f19601f8301169050919050565b600061262d826125cb565b61263781856125d6565b93506126478185602086016125e7565b61265081612611565b840191505092915050565b600060208201905081810360008301526126758184612622565b905092915050565b6000604051905090565b600080fd5b600080fd5b60008115159050919050565b6126a681612691565b81146126b157600080fd5b50565b6000813590506126c38161269d565b92915050565b6000602082840312156126df576126de612687565b5b60006126ed848285016126b4565b91505092915050565b600073ffffffffffffffffffffffffffffffffffffffff82169050919050565b6000612721826126f6565b9050919050565b61273181612716565b811461273c57600080fd5b50565b60008135905061274e81612728565b92915050565b61275d81612597565b811461276857600080fd5b50565b60008135905061277a81612754565b92915050565b6000806040838503121561279757612796612687565b5b60006127a58582860161273f565b92505060206127b68582860161276b565b9150509250929050565b6127c981612691565b82525050565b60006020820190506127e460008301846127c0565b92915050565b600060208284031215612800576127ff612687565b5b600061280e8482850161276b565b91505092915050565b600080fd5b600080fd5b600080fd5b60008083601f84011261283c5761283b612817565b5b8235905067ffffffffffffffff8111156128595761285861281c565b5b60208301915083602082028301111561287557612874612821565b5b9250929050565b6000806020838503121561289357612892612687565b5b600083013567ffffffffffffffff8111156128b1576128b061268c565b5b6128bd85828601612826565b92509250509250929050565b6000602082840312156128df576128de612687565b5b60006128ed8482850161273f565b91505092915050565b60008060006060848603121561290f5761290e612687565b5b600061291d8682870161273f565b935050602061292e8682870161273f565b925050604061293f8682870161276b565b9150509250925092565b600080fd5b7f4e487b7100000000000000000000000000000000000000000000000000000000600052604160045260246000fd5b61298682612611565b810181811067ffffffffffffffff821117156129a5576129a461294e565b5b80604052505050565b60006129b861267d565b90506129c4828261297d565b919050565b600067ffffffffffffffff8211156129e4576129e361294e565b5b6129ed82612611565b9050602081019050919050565b82818337600083830152505050565b6000612a1c612a17846129c9565b6129ae565b905082815260208101848484011115612a3857612a37612949565b5b612a438482856129fa565b509392505050565b600082601f830112612a6057612a5f612817565b5b8135612a70848260208601612a09565b91505092915050565b60008060408385031215612a9057612a8f612687565b5b6000612a9e8582860161273f565b925050602083013567ffffffffffffffff811115612abf57612abe61268c565b5b612acb85828601612a4b565b9150509250929050565b6000819050919050565b612ae881612ad5565b82525050565b6000602082019050612b036000830184612adf565b92915050565b60008083601f840112612b1f57612b1e612817565b5b8235905067ffffffffffffffff811115612b3c57612b3b61281c565b5b602083019150836020820283011115612b5857612b57612821565b5b9250929050565b60008060008060408587031215612b7957612b78612687565b5b600085013567ffffffffffffffff811115612b9757612b9661268c565b5b612ba387828801612826565b9450945050602085013567ffffffffffffffff811115612bc657612bc561268c565b5b612bd287828801612b09565b925092505092959194509250565b600060ff82169050919050565b612bf681612be0565b82525050565b6000602082019050612c116000830184612bed565b92915050565b60008083601f840112612c2d57612c2c612817565b5b8235905067ffffffffffffffff811115612c4a57612c4961281c565b5b602083019150836001820283011115612c6657612c65612821565b5b9250929050565b600080600060408486031215612c8657612c85612687565b5b6000612c948682870161273f565b935050602084013567ffffffffffffffff811115612cb557612cb461268c565b5b612cc186828701612c17565b92509250509250925092565b612cd681612716565b82525050565b6000602082019050612cf16000830184612ccd565b92915050565b60008060408385031215612d0e57612d0d612687565b5b6000612d1c8582860161273f565b9250506020612d2d8582860161273f565b9150509250929050565b7f4e487b7100000000000000000000000000000000000000000000000000000000600052602260045260246000fd5b60006002820490506001821680612d7e57607f821691505b602082108103612d9157612d90612d37565b5b50919050565b7f4e487b7100000000000000000000000000000000000000000000000000000000600052603260045260246000fd5b7f4e487b7100000000000000000000000000000000000000000000000000000000600052601160045260246000fd5b6000612e0082612597565b91507fffffffffffffffffffffffffffffffffffffffffffffffffffffffffffffffff8203612e3257612e31612dc6565b5b600182019050919050565b60008160601b9050919050565b6000612e5582612e3d565b9050919050565b6000612e6782612e4a565b9050919050565b612e7f612e7a82612716565b612e5c565b82525050565b6000612e918284612e6e565b60148201915081905092915050565b7f4d69736d61746368656420617272617973206c656e6774680000000000000000600082015250565b6000612ed66018836125d6565b9150612ee182612ea0565b602082019050919050565b60006020820190508181036000830152612f0581612ec9565b9050919050565b6000612f1782612597565b9150612f2283612597565b9250828201905080821115612f3a57612f39612dc6565b5b92915050565b7f43686970206973206e6f74207365656465643b206d696e74696e67206e6f742060008201527f616c6c6f7765642e000000000000000000000000000000000000000000000000602082015250565b6000612f9c6028836125d6565b9150612fa782612f40565b604082019050919050565b60006020820190508181036000830152612fcb81612f8f565b9050919050565b7f496e76616c6964207369676e6174757265000000000000000000000000000000600082015250565b60006130086011836125d6565b915061301382612fd2565b602082019050919050565b6000602082019050818103600083015261303781612ffb565b9050919050565b7f45524332303a2064656372656173656420616c6c6f77616e63652062656c6f7760008201527f207a65726f000000000000000000000000000000000000000000000000000000602082015250565b600061309a6025836125d6565b91506130a58261303e565b604082019050919050565b600060208201905081810360008301526130c98161308d565b9050919050565b7f43686970206973206e6f74207365656465643b206f776e65727368697020636c60008201527f61696d206e6f7420616c6c6f7765642e00000000000000000000000000000000602082015250565b600061312c6030836125d6565b9150613137826130d0565b604082019050919050565b6000602082019050818103600083015261315b8161311f565b9050919050565b7f4f776e61626c653a206e6577206f776e657220697320746865207a65726f206160008201527f6464726573730000000000000000000000000000000000000000000000000000602082015250565b60006131be6026836125d6565b91506131c982613162565b604082019050919050565b600060208201905081810360008301526131ed816131b1565b9050919050565b60006131ff82612597565b915061320a83612597565b925082820390508181111561322257613221612dc6565b5b92915050565b600080fd5b600080fd5b6000808585111561324657613245613228565b5b838611156132575761325661322d565b5b6001850283019150848603905094509492505050565b600082905092915050565b60007fffffffffffffffffffffffffffffffffffffffff00000000000000000000000082169050919050565b600082821b905092915050565b60006132bd838361326d565b826132c88135613278565b92506014821015613308576133037fffffffffffffffffffffffffffffffffffffffff000000000000000000000000836014036008026132a4565b831692505b505092915050565b7f4f776e61626c653a2063616c6c6572206973206e6f7420746865206f776e6572600082015250565b60006133466020836125d6565b915061335182613310565b602082019050919050565b6000602082019050818103600083015261337581613339565b9050919050565b7f45524332303a20617070726f76652066726f6d20746865207a65726f2061646460008201527f7265737300000000000000000000000000000000000000000000000000000000602082015250565b60006133d86024836125d6565b91506133e38261337c565b604082019050919050565b60006020820190508181036000830152613407816133cb565b9050919050565b7f45524332303a20617070726f766520746f20746865207a65726f20616464726560008201527f7373000000000000000000000000000000000000000000000000000000000000602082015250565b600061346a6022836125d6565b91506134758261340e565b604082019050919050565b600060208201905081810360008301526134998161345d565b9050919050565b7f45524332303a20696e73756666696369656e7420616c6c6f77616e6365000000600082015250565b60006134d6601d836125d6565b91506134e1826134a0565b602082019050919050565b60006020820190508181036000830152613505816134c9565b9050919050565b7f45524332303a207472616e736665722066726f6d20746865207a65726f20616460008201527f6472657373000000000000000000000000000000000000000000000000000000602082015250565b60006135686025836125d6565b91506135738261350c565b604082019050919050565b600060208201905081810360008301526135978161355b565b9050919050565b7f45524332303a207472616e7366657220746f20746865207a65726f206164647260008201527f6573730000000000000000000000000000000000000000000000000000000000602082015250565b60006135fa6023836125d6565b91506136058261359e565b604082019050919050565b60006020820190508181036000830152613629816135ed565b9050919050565b7f45524332303a207472616e7366657220616d6f756e742065786365656473206260008201527f616c616e63650000000000000000000000000000000000000000000000000000602082015250565b600061368c6026836125d6565b915061369782613630565b604082019050919050565b600060208201905081810360008301526136bb8161367f565b9050919050565b7f53656564696e6720616e64206d696e74696e67206172652063757272656e746c60008201527f792064697361626c65642e000000000000000000000000000000000000000000602082015250565b600061371e602b836125d6565b9150613729826136c2565b604082019050919050565b6000602082019050818103600083015261374d81613711565b9050919050565b7f5363616e6e65722068617320616c7265616479206d696e74656420746869732060008201527f6368697049642e00000000000000000000000000000000000000000000000000602082015250565b60006137b06027836125d6565b91506137bb82613754565b604082019050919050565b600060208201905081810360008301526137df816137a3565b9050919050565b7f43616e6e6f74206d696e742c206d61792065786365656420746f6b656e20636160008201527f7000000000000000000000000000000000000000000000000000000000000000602082015250565b60006138426021836125d6565b915061384d826137e6565b604082019050919050565b6000602082019050818103600083015261387181613835565b9050919050565b7f436c61696d696e672069732063757272656e746c792064697361626c65642e00600082015250565b60006138ae601f836125d6565b91506138b982613878565b602082019050919050565b600060208201905081810360008301526138dd816138a1565b9050919050565b7f4f776e65727368697020616c726561647920636c61696d65642e000000000000600082015250565b600061391a601a836125d6565b9150613925826138e4565b602082019050919050565b600060208201905081810360008301526139498161390d565b9050919050565b7f4e487b7100000000000000000000000000000000000000000000000000000000600052602160045260246000fd5b7f45434453413a20696e76616c6964207369676e61747572650000000000000000600082015250565b60006139b56018836125d6565b91506139c08261397f565b602082019050919050565b600060208201905081810360008301526139e4816139a8565b9050919050565b7f45434453413a20696e76616c6964207369676e6174757265206c656e67746800600082015250565b6000613a21601f836125d6565b9150613a2c826139eb565b602082019050919050565b60006020820190508181036000830152613a5081613a14565b9050919050565b7f45434453413a20696e76616c6964207369676e6174757265202773272076616c60008201527f7565000000000000000000000000000000000000000000000000000000000000602082015250565b6000613ab36022836125d6565b9150613abe82613a57565b604082019050919050565b60006020820190508181036000830152613ae281613aa6565b9050919050565b7f45524332303a206d696e7420746f20746865207a65726f206164647265737300600082015250565b6000613b1f601f836125d6565b9150613b2a82613ae9565b602082019050919050565b60006020820190508181036000830152613b4e81613b12565b9050919050565b6000608082019050613b6a6000830187612adf565b613b776020830186612bed565b613b846040830185612adf565b613b916060830184612adf565b9594505050505056fea2646970667358221220a30fcff8346842c60b8ee618fdcc4aaef5b3c37ae2976adcf278d07fab6c203e64736f6c63430008110033",
  "linkReferences": {},
  "deployedLinkReferences": {}
}