{
  "_format": "hh-sol-artifact-1",
  "contractName": "RerroToken",
  "sourceName": "contracts/RerroToken.sol",
  "abi": [
    {
      "inputs": [
        {
          "internalType": "address",
          "name": "trustedForwarder",
          "type": "address"
        }
      ],
      "stateMutability": "nonpayable",
      "type": "constructor"
    },
    {
      "anonymous": false,
      "inputs": [
        {
          "indexed": true,
          "internalType": "address",
          "name": "owner",
          "type": "address"
        },
        {
          "indexed": true,
          "internalType": "address",
          "name": "spender",
          "type": "address"
        },
        {
          "indexed": false,
          "internalType": "uint256",
          "name": "value",
          "type": "uint256"
        }
      ],
      "name": "Approval",
      "type": "event"
    },
    {
      "anonymous": false,
      "inputs": [
        {
          "indexed": true,
          "internalType": "address",
          "name": "previousOwner",
          "type": "address"
        },
        {
          "indexed": true,
          "internalType": "address",
          "name": "newOwner",
          "type": "address"
        }
      ],
      "name": "OwnershipTransferred",
      "type": "event"
    },
    {
      "anonymous": false,
      "inputs": [
        {
          "indexed": true,
          "internalType": "address",
          "name": "from",
          "type": "address"
        },
        {
          "indexed": true,
          "internalType": "address",
          "name": "to",
          "type": "address"
        },
        {
          "indexed": false,
          "internalType": "uint256",
          "name": "value",
          "type": "uint256"
        }
      ],
      "name": "Transfer",
      "type": "event"
    },
    {
      "inputs": [
        {
          "internalType": "address",
          "name": "owner",
          "type": "address"
        },
        {
          "internalType": "address",
          "name": "spender",
          "type": "address"
        }
      ],
      "name": "allowance",
      "outputs": [
        {
          "internalType": "uint256",
          "name": "",
          "type": "uint256"
        }
      ],
      "stateMutability": "view",
      "type": "function"
    },
    {
      "inputs": [
        {
          "internalType": "address",
          "name": "spender",
          "type": "address"
        },
        {
          "internalType": "uint256",
          "name": "amount",
          "type": "uint256"
        }
      ],
      "name": "approve",
      "outputs": [
        {
          "internalType": "bool",
          "name": "",
          "type": "bool"
        }
      ],
      "stateMutability": "nonpayable",
      "type": "function"
    },
    {
      "inputs": [
        {
          "internalType": "address",
          "name": "account",
          "type": "address"
        }
      ],
      "name": "balanceOf",
      "outputs": [
        {
          "internalType": "uint256",
          "name": "",
          "type": "uint256"
        }
      ],
      "stateMutability": "view",
      "type": "function"
    },
    {
      "inputs": [
        {
          "internalType": "address[]",
          "name": "chipIds",
          "type": "address[]"
        }
      ],
      "name": "bulkSeed",
      "outputs": [],
      "stateMutability": "nonpayable",
      "type": "function"
    },
    {
      "inputs": [
        {
          "internalType": "address[]",
          "name": "chipIds",
          "type": "address[]"
        },
        {
          "internalType": "uint256[]",
          "name": "mintAmounts",
          "type": "uint256[]"
        }
      ],
      "name": "bulkSetMintAmount",
      "outputs": [],
      "stateMutability": "nonpayable",
      "type": "function"
    },
    {
      "inputs": [
        {
          "internalType": "address",
          "name": "",
          "type": "address"
        }
      ],
      "name": "chipIdOwner",
      "outputs": [
        {
          "internalType": "address",
          "name": "",
          "type": "address"
        }
      ],
      "stateMutability": "view",
      "type": "function"
    },
    {
      "inputs": [],
      "name": "chipIdOwnerMintAmount",
      "outputs": [
        {
          "internalType": "uint256",
          "name": "",
          "type": "uint256"
        }
      ],
      "stateMutability": "view",
      "type": "function"
    },
    {
      "inputs": [
        {
          "internalType": "address",
          "name": "owner",
          "type": "address"
        }
      ],
      "name": "claimOwnership",
      "outputs": [],
      "stateMutability": "nonpayable",
      "type": "function"
    },
    {
      "inputs": [],
      "name": "claimOwnershipPaused",
      "outputs": [
        {
          "internalType": "bool",
          "name": "",
          "type": "bool"
        }
      ],
      "stateMutability": "view",
      "type": "function"
    },
    {
      "inputs": [],
      "name": "decimals",
      "outputs": [
        {
          "internalType": "uint8",
          "name": "",
          "type": "uint8"
        }
      ],
      "stateMutability": "view",
      "type": "function"
    },
    {
      "inputs": [
        {
          "internalType": "address",
          "name": "spender",
          "type": "address"
        },
        {
          "internalType": "uint256",
          "name": "subtractedValue",
          "type": "uint256"
        }
      ],
      "name": "decreaseAllowance",
      "outputs": [
        {
          "internalType": "bool",
          "name": "",
          "type": "bool"
        }
      ],
      "stateMutability": "nonpayable",
      "type": "function"
    },
    {
      "inputs": [],
      "name": "defaultClaimedMintAmount",
      "outputs": [
        {
          "internalType": "uint256",
          "name": "",
          "type": "uint256"
        }
      ],
      "stateMutability": "view",
      "type": "function"
    },
    {
      "inputs": [],
      "name": "defaultMintAmount",
      "outputs": [
        {
          "internalType": "uint256",
          "name": "",
          "type": "uint256"
        }
      ],
      "stateMutability": "view",
      "type": "function"
    },
    {
      "inputs": [
        {
          "internalType": "address",
          "name": "spender",
          "type": "address"
        },
        {
          "internalType": "uint256",
          "name": "addedValue",
          "type": "uint256"
        }
      ],
      "name": "increaseAllowance",
      "outputs": [
        {
          "internalType": "bool",
          "name": "",
          "type": "bool"
        }
      ],
      "stateMutability": "nonpayable",
      "type": "function"
    },
    {
      "inputs": [
        {
          "internalType": "address",
          "name": "forwarder",
          "type": "address"
        }
      ],
      "name": "isTrustedForwarder",
      "outputs": [
        {
          "internalType": "bool",
          "name": "",
          "type": "bool"
        }
      ],
      "stateMutability": "view",
      "type": "function"
    },
    {
      "inputs": [],
      "name": "merkleRoot",
      "outputs": [
        {
          "internalType": "bytes32",
          "name": "",
          "type": "bytes32"
        }
      ],
      "stateMutability": "view",
      "type": "function"
    },
    {
      "inputs": [
        {
          "internalType": "address",
          "name": "scanner",
          "type": "address"
        }
      ],
      "name": "mint",
      "outputs": [],
      "stateMutability": "nonpayable",
      "type": "function"
    },
    {
      "inputs": [],
      "name": "mintPaused",
      "outputs": [
        {
          "internalType": "bool",
          "name": "",
          "type": "bool"
        }
      ],
      "stateMutability": "view",
      "type": "function"
    },
    {
      "inputs": [],
      "name": "name",
      "outputs": [
        {
          "internalType": "string",
          "name": "",
          "type": "string"
        }
      ],
      "stateMutability": "view",
      "type": "function"
    },
    {
      "inputs": [],
      "name": "owner",
      "outputs": [
        {
          "internalType": "address",
          "name": "",
          "type": "address"
        }
      ],
      "stateMutability": "view",
      "type": "function"
    },
    {
      "inputs": [],
      "name": "renounceOwnership",
      "outputs": [],
      "stateMutability": "nonpayable",
      "type": "function"
    },
    {
      "inputs": [
        {
          "internalType": "address",
          "name": "",
          "type": "address"
        },
        {
          "internalType": "address",
          "name": "",
          "type": "address"
        }
      ],
      "name": "scannerMinted",
      "outputs": [
        {
          "internalType": "bool",
          "name": "",
          "type": "bool"
        }
      ],
      "stateMutability": "view",
      "type": "function"
    },
    {
      "inputs": [
        {
          "internalType": "address",
          "name": "",
          "type": "address"
        }
      ],
      "name": "seededChipAmounts",
      "outputs": [
        {
          "internalType": "uint256",
          "name": "",
          "type": "uint256"
        }
      ],
      "stateMutability": "view",
      "type": "function"
    },
    {
      "inputs": [
        {
          "internalType": "address",
          "name": "",
          "type": "address"
        }
      ],
      "name": "seededChips",
      "outputs": [
        {
          "internalType": "bool",
          "name": "",
          "type": "bool"
        }
      ],
      "stateMutability": "view",
      "type": "function"
    },
    {
      "inputs": [
        {
          "internalType": "uint256",
          "name": "_amount",
          "type": "uint256"
        }
      ],
      "name": "setChipIdOwnerMintAmount",
      "outputs": [],
      "stateMutability": "nonpayable",
      "type": "function"
    },
    {
      "inputs": [
        {
          "internalType": "bool",
          "name": "_state",
          "type": "bool"
        }
      ],
      "name": "setClaimOwnershipPausedState",
      "outputs": [],
      "stateMutability": "nonpayable",
      "type": "function"
    },
    {
      "inputs": [
        {
          "internalType": "address",
          "name": "chipId",
          "type": "address"
        },
        {
          "internalType": "uint256",
          "name": "mintAmount",
          "type": "uint256"
        }
      ],
      "name": "setMintAmount",
      "outputs": [],
      "stateMutability": "nonpayable",
      "type": "function"
    },
    {
      "inputs": [
        {
          "internalType": "bool",
          "name": "_state",
          "type": "bool"
        }
      ],
      "name": "setMintPausedState",
      "outputs": [],
      "stateMutability": "nonpayable",
      "type": "function"
    },
    {
      "inputs": [
        {
          "internalType": "uint256",
          "name": "_newCap",
          "type": "uint256"
        }
      ],
      "name": "setTokenCap",
      "outputs": [],
      "stateMutability": "nonpayable",
      "type": "function"
    },
    {
      "inputs": [],
      "name": "symbol",
      "outputs": [
        {
          "internalType": "string",
          "name": "",
          "type": "string"
        }
      ],
      "stateMutability": "view",
      "type": "function"
    },
    {
      "inputs": [],
      "name": "tokenCap",
      "outputs": [
        {
          "internalType": "uint256",
          "name": "",
          "type": "uint256"
        }
      ],
      "stateMutability": "view",
      "type": "function"
    },
    {
      "inputs": [],
      "name": "totalSupply",
      "outputs": [
        {
          "internalType": "uint256",
          "name": "",
          "type": "uint256"
        }
      ],
      "stateMutability": "view",
      "type": "function"
    },
    {
      "inputs": [
        {
          "internalType": "address",
          "name": "to",
          "type": "address"
        },
        {
          "internalType": "uint256",
          "name": "amount",
          "type": "uint256"
        }
      ],
      "name": "transfer",
      "outputs": [
        {
          "internalType": "bool",
          "name": "",
          "type": "bool"
        }
      ],
      "stateMutability": "nonpayable",
      "type": "function"
    },
    {
      "inputs": [
        {
          "internalType": "address",
          "name": "from",
          "type": "address"
        },
        {
          "internalType": "address",
          "name": "to",
          "type": "address"
        },
        {
          "internalType": "uint256",
          "name": "amount",
          "type": "uint256"
        }
      ],
      "name": "transferFrom",
      "outputs": [
        {
          "internalType": "bool",
          "name": "",
          "type": "bool"
        }
      ],
      "stateMutability": "nonpayable",
      "type": "function"
    },
    {
      "inputs": [
        {
          "internalType": "address",
          "name": "newOwner",
          "type": "address"
        }
      ],
      "name": "transferOwnership",
      "outputs": [],
      "stateMutability": "nonpayable",
      "type": "function"
    },
    {
      "inputs": [
        {
          "internalType": "bytes32",
          "name": "newMerkleRoot",
          "type": "bytes32"
        }
      ],
      "name": "updateMerkleRoot",
      "outputs": [],
      "stateMutability": "nonpayable",
      "type": "function"
    }
  ],
  "bytecode": "0x60a06040526001600b60006101000a81548160ff0219169083151502179055506001600b60016101000a81548160ff0219169083151502179055506a0c67d7d5423dfb7d7c0000600c55670de0b6b3a7640000600d55671bc16d674ec80000600e55670de0b6b3a7640000600f553480156200007a57600080fd5b50604051620035ad380380620035ad8339818101604052810190620000a09190620003dd565b806040518060400160405280600581526020017f526572726f0000000000000000000000000000000000000000000000000000008152506040518060400160405280600581526020017f524552524f00000000000000000000000000000000000000000000000000000081525081600390816200011e919062000689565b50806004908162000130919062000689565b5050508073ffffffffffffffffffffffffffffffffffffffff1660808173ffffffffffffffffffffffffffffffffffffffff168152505050620001886200017c6200018f60201b60201c565b620001ab60201b60201c565b50620008c2565b6000620001a66200027160201b620014471760201c565b905090565b6000600560009054906101000a900473ffffffffffffffffffffffffffffffffffffffff16905081600560006101000a81548173ffffffffffffffffffffffffffffffffffffffff021916908373ffffffffffffffffffffffffffffffffffffffff1602179055508173ffffffffffffffffffffffffffffffffffffffff168173ffffffffffffffffffffffffffffffffffffffff167f8be0079c531659141344cd1fd0a4f28419497f9722a3daafe3b4186f6b6457e060405160405180910390a35050565b6000806000369050905060006200028d6200030c60201b60201c565b9050620002a0336200032860201b60201c565b8015620002ad5750808210155b15620002ef576000368284620002c491906200079f565b908092620002d593929190620007e4565b90620002e291906200085c565b60601c9250505062000309565b620003046200036260201b620014bc1760201c565b925050505b90565b6000620003236200036a60201b620014c41760201c565b905090565b600060805173ffffffffffffffffffffffffffffffffffffffff168273ffffffffffffffffffffffffffffffffffffffff16149050919050565b600033905090565b60006014905090565b600080fd5b600073ffffffffffffffffffffffffffffffffffffffff82169050919050565b6000620003a58262000378565b9050919050565b620003b78162000398565b8114620003c357600080fd5b50565b600081519050620003d781620003ac565b92915050565b600060208284031215620003f657620003f562000373565b5b60006200040684828501620003c6565b91505092915050565b600081519050919050565b7f4e487b7100000000000000000000000000000000000000000000000000000000600052604160045260246000fd5b7f4e487b7100000000000000000000000000000000000000000000000000000000600052602260045260246000fd5b600060028204905060018216806200049157607f821691505b602082108103620004a757620004a662000449565b5b50919050565b60008190508160005260206000209050919050565b60006020601f8301049050919050565b600082821b905092915050565b600060088302620005117fffffffffffffffffffffffffffffffffffffffffffffffffffffffffffffffff82620004d2565b6200051d8683620004d2565b95508019841693508086168417925050509392505050565b6000819050919050565b6000819050919050565b60006200056a620005646200055e8462000535565b6200053f565b62000535565b9050919050565b6000819050919050565b620005868362000549565b6200059e620005958262000571565b848454620004df565b825550505050565b600090565b620005b5620005a6565b620005c28184846200057b565b505050565b5b81811015620005ea57620005de600082620005ab565b600181019050620005c8565b5050565b601f82111562000639576200060381620004ad565b6200060e84620004c2565b810160208510156200061e578190505b620006366200062d85620004c2565b830182620005c7565b50505b505050565b600082821c905092915050565b60006200065e600019846008026200063e565b1980831691505092915050565b60006200067983836200064b565b9150826002028217905092915050565b62000694826200040f565b67ffffffffffffffff811115620006b057620006af6200041a565b5b620006bc825462000478565b620006c9828285620005ee565b600060209050601f831160018114620007015760008415620006ec578287015190505b620006f885826200066b565b86555062000768565b601f1984166200071186620004ad565b60005b828110156200073b5784890151825560018201915060208501945060208101905062000714565b868310156200075b578489015162000757601f8916826200064b565b8355505b6001600288020188555050505b505050505050565b7f4e487b7100000000000000000000000000000000000000000000000000000000600052601160045260246000fd5b6000620007ac8262000535565b9150620007b98362000535565b9250828203905081811115620007d457620007d362000770565b5b92915050565b600080fd5b600080fd5b60008085851115620007fb57620007fa620007da565b5b838611156200080f576200080e620007df565b5b6001850283019150848603905094509492505050565b600082905092915050565b60007fffffffffffffffffffffffffffffffffffffffff00000000000000000000000082169050919050565b60006200086a838362000825565b8262000877813562000830565b92506014821015620008ba57620008b57fffffffffffffffffffffffffffffffffffffffff00000000000000000000000083601403600802620004d2565b831692505b505092915050565b608051612ccf620008de6000396000610b030152612ccf6000f3fe608060405234801561001057600080fd5b506004361061021c5760003560e01c806364c6fef411610125578063a457c2d7116100ad578063cab737a61161007c578063cab737a614610651578063da92d3ae14610681578063dd54291b1461069d578063dd62ed3e146106bb578063f2fde38b146106eb5761021c565b8063a457c2d7146105a3578063a9059cbb146105d3578063ba8ab6ed14610603578063caab9c91146106335761021c565b80637e4831d3116100f45780637e4831d3146104fd578063842e876b1461051b5780638da5cb5b1461054b5780638e587db51461056957806395d89b41146105855761021c565b806364c6fef4146104895780636a627842146104a757806370a08231146104c3578063715018a6146104f35761021c565b80632854bc7e116101a8578063395093511161017757806339509351146103d3578063447d532b146104035780634783f0ef1461042157806350bcb11f1461043d578063572b6c05146104595761021c565b80632854bc7e1461035f5780632eb4a7ab1461037b5780632faac83014610399578063313ce567146103b55761021c565b80630f088488116101ef5780630f088488146102a95780631497d3c1146102c557806318160ddd146102e15780631e3116dd146102ff57806323b872dd1461032f5761021c565b806305b23f2f1461022157806306fdde031461023f578063086591291461025d578063095ea7b314610279575b600080fd5b610229610707565b6040516102369190611c73565b60405180910390f35b61024761070d565b6040516102549190611d1e565b60405180910390f35b61027760048036038101906102729190611d82565b61079f565b005b610293600480360381019061028e9190611e39565b6107c4565b6040516102a09190611e88565b60405180910390f35b6102c360048036038101906102be9190611ea3565b6107e7565b005b6102df60048036038101906102da9190611f35565b6107f9565b005b6102e96108f2565b6040516102f69190611c73565b60405180910390f35b61031960048036038101906103149190611f82565b6108fc565b6040516103269190611c73565b60405180910390f35b61034960048036038101906103449190611faf565b610914565b6040516103569190611e88565b60405180910390f35b61037960048036038101906103749190611ea3565b610943565b005b610383610955565b604051610390919061201b565b60405180910390f35b6103b360048036038101906103ae919061208c565b61095b565b005b6103bd610a57565b6040516103ca9190612129565b60405180910390f35b6103ed60048036038101906103e89190611e39565b610a60565b6040516103fa9190611e88565b60405180910390f35b61040b610a97565b6040516104189190611c73565b60405180910390f35b61043b60048036038101906104369190612170565b610a9d565b005b61045760048036038101906104529190611e39565b610aaf565b005b610473600480360381019061046e9190611f82565b610aff565b6040516104809190611e88565b60405180910390f35b610491610b57565b60405161049e9190611e88565b60405180910390f35b6104c160048036038101906104bc9190611f82565b610b6a565b005b6104dd60048036038101906104d89190611f82565b610fa1565b6040516104ea9190611c73565b60405180910390f35b6104fb610fe9565b005b610505610ffd565b6040516105129190611e88565b60405180910390f35b61053560048036038101906105309190611f82565b611010565b6040516105429190611e88565b60405180910390f35b610553611030565b60405161056091906121ac565b60405180910390f35b610583600480360381019061057e9190611d82565b61105a565b005b61058d61107f565b60405161059a9190611d1e565b60405180910390f35b6105bd60048036038101906105b89190611e39565b611111565b6040516105ca9190611e88565b60405180910390f35b6105ed60048036038101906105e89190611e39565b611188565b6040516105fa9190611e88565b60405180910390f35b61061d60048036038101906106189190611f82565b6111ab565b60405161062a91906121ac565b60405180910390f35b61063b6111de565b6040516106489190611c73565b60405180910390f35b61066b600480360381019061066691906121c7565b6111e4565b6040516106789190611e88565b60405180910390f35b61069b60048036038101906106969190611f82565b611213565b005b6106a5611337565b6040516106b29190611c73565b60405180910390f35b6106d560048036038101906106d091906121c7565b61133d565b6040516106e29190611c73565b60405180910390f35b61070560048036038101906107009190611f82565b6113c4565b005b600d5481565b60606003805461071c90612236565b80601f016020809104026020016040519081016040528092919081815260200182805461074890612236565b80156107955780601f1061076a57610100808354040283529160200191610795565b820191906000526020600020905b81548152906001019060200180831161077857829003601f168201915b5050505050905090565b6107a76114cd565b80600b60006101000a81548160ff02191690831515021790555050565b6000806107cf61154b565b90506107dc81858561155a565b600191505092915050565b6107ef6114cd565b80600f8190555050565b6108016114cd565b60005b828290508110156108ed57600083838381811061082457610823612267565b5b90506020020160208101906108399190611f82565b90506001600860008373ffffffffffffffffffffffffffffffffffffffff1673ffffffffffffffffffffffffffffffffffffffff16815260200190815260200160002060006101000a81548160ff021916908315150217905550600d54600960008373ffffffffffffffffffffffffffffffffffffffff1673ffffffffffffffffffffffffffffffffffffffff168152602001908152602001600020819055505080806108e5906122c5565b915050610804565b505050565b6000600254905090565b60096020528060005260406000206000915090505481565b60008061091f61154b565b905061092c858285611723565b6109378585856117af565b60019150509392505050565b61094b6114cd565b80600c8190555050565b60065481565b6109636114cd565b8181905084849050146109ab576040517f08c379a00000000000000000000000000000000000000000000000000000000081526004016109a290612359565b60405180910390fd5b60005b84849050811015610a50578282828181106109cc576109cb612267565b5b90506020020135600960008787858181106109ea576109e9612267565b5b90506020020160208101906109ff9190611f82565b73ffffffffffffffffffffffffffffffffffffffff1673ffffffffffffffffffffffffffffffffffffffff168152602001908152602001600020819055508080610a48906122c5565b9150506109ae565b5050505050565b60006012905090565b600080610a6b61154b565b9050610a8c818585610a7d858961133d565b610a879190612379565b61155a565b600191505092915050565b600e5481565b610aa56114cd565b8060068190555050565b610ab76114cd565b80600960008473ffffffffffffffffffffffffffffffffffffffff1673ffffffffffffffffffffffffffffffffffffffff168152602001908152602001600020819055505050565b60007f000000000000000000000000000000000000000000000000000000000000000073ffffffffffffffffffffffffffffffffffffffff168273ffffffffffffffffffffffffffffffffffffffff16149050919050565b600b60009054906101000a900460ff1681565b6000610b7461154b565b9050600b60019054906101000a900460ff1615610bc6576040517f08c379a0000000000000000000000000000000000000000000000000000000008152600401610bbd9061241f565b60405180910390fd5b600860008273ffffffffffffffffffffffffffffffffffffffff1673ffffffffffffffffffffffffffffffffffffffff16815260200190815260200160002060009054906101000a900460ff16610c52576040517f08c379a0000000000000000000000000000000000000000000000000000000008152600401610c499061248b565b60405180910390fd5b600a60008273ffffffffffffffffffffffffffffffffffffffff1673ffffffffffffffffffffffffffffffffffffffff16815260200190815260200160002060008373ffffffffffffffffffffffffffffffffffffffff1673ffffffffffffffffffffffffffffffffffffffff16815260200190815260200160002060009054906101000a900460ff1615610d1c576040517f08c379a0000000000000000000000000000000000000000000000000000000008152600401610d139061251d565b60405180910390fd5b6000600960008373ffffffffffffffffffffffffffffffffffffffff1673ffffffffffffffffffffffffffffffffffffffff168152602001908152602001600020549050600c54600f5482610d6f6108f2565b610d799190612379565b610d839190612379565b1115610dc4576040517f08c379a0000000000000000000000000000000000000000000000000000000008152600401610dbb906125af565b60405180910390fd5b6000600760008473ffffffffffffffffffffffffffffffffffffffff1673ffffffffffffffffffffffffffffffffffffffff16815260200190815260200160002060009054906101000a900473ffffffffffffffffffffffffffffffffffffffff1690506001600a60008573ffffffffffffffffffffffffffffffffffffffff1673ffffffffffffffffffffffffffffffffffffffff16815260200190815260200160002060008673ffffffffffffffffffffffffffffffffffffffff1673ffffffffffffffffffffffffffffffffffffffff16815260200190815260200160002060006101000a81548160ff0219169083151502179055508373ffffffffffffffffffffffffffffffffffffffff168173ffffffffffffffffffffffffffffffffffffffff1614610f9b57610efa8483611a25565b600073ffffffffffffffffffffffffffffffffffffffff168173ffffffffffffffffffffffffffffffffffffffff1614610f9a57610f99600760008573ffffffffffffffffffffffffffffffffffffffff1673ffffffffffffffffffffffffffffffffffffffff16815260200190815260200160002060009054906101000a900473ffffffffffffffffffffffffffffffffffffffff16600f54611a25565b5b5b50505050565b60008060008373ffffffffffffffffffffffffffffffffffffffff1673ffffffffffffffffffffffffffffffffffffffff168152602001908152602001600020549050919050565b610ff16114cd565b610ffb6000611b7b565b565b600b60019054906101000a900460ff1681565b60086020528060005260406000206000915054906101000a900460ff1681565b6000600560009054906101000a900473ffffffffffffffffffffffffffffffffffffffff16905090565b6110626114cd565b80600b60016101000a81548160ff02191690831515021790555050565b60606004805461108e90612236565b80601f01602080910402602001604051908101604052809291908181526020018280546110ba90612236565b80156111075780601f106110dc57610100808354040283529160200191611107565b820191906000526020600020905b8154815290600101906020018083116110ea57829003601f168201915b5050505050905090565b60008061111c61154b565b9050600061112a828661133d565b90508381101561116f576040517f08c379a000000000000000000000000000000000000000000000000000000000815260040161116690612641565b60405180910390fd5b61117c828686840361155a565b60019250505092915050565b60008061119361154b565b90506111a08185856117af565b600191505092915050565b60076020528060005260406000206000915054906101000a900473ffffffffffffffffffffffffffffffffffffffff1681565b600f5481565b600a6020528160005260406000206020528060005260406000206000915091509054906101000a900460ff1681565b600061121d61154b565b9050600b60009054906101000a900460ff161561126f576040517f08c379a0000000000000000000000000000000000000000000000000000000008152600401611266906126ad565b60405180910390fd5b81600760008373ffffffffffffffffffffffffffffffffffffffff1673ffffffffffffffffffffffffffffffffffffffff16815260200190815260200160002060006101000a81548173ffffffffffffffffffffffffffffffffffffffff021916908373ffffffffffffffffffffffffffffffffffffffff160217905550600e54600960008373ffffffffffffffffffffffffffffffffffffffff1673ffffffffffffffffffffffffffffffffffffffff168152602001908152602001600020819055505050565b600c5481565b6000600160008473ffffffffffffffffffffffffffffffffffffffff1673ffffffffffffffffffffffffffffffffffffffff16815260200190815260200160002060008373ffffffffffffffffffffffffffffffffffffffff1673ffffffffffffffffffffffffffffffffffffffff16815260200190815260200160002054905092915050565b6113cc6114cd565b600073ffffffffffffffffffffffffffffffffffffffff168173ffffffffffffffffffffffffffffffffffffffff160361143b576040517f08c379a00000000000000000000000000000000000000000000000000000000081526004016114329061273f565b60405180910390fd5b61144481611b7b565b50565b60008060003690509050600061145b611c41565b905061146633610aff565b80156114725750808210155b156114ac576000368284611486919061275f565b9080926114959392919061279d565b906114a0919061281c565b60601c925050506114b9565b6114b46114bc565b925050505b90565b600033905090565b60006014905090565b6114d561154b565b73ffffffffffffffffffffffffffffffffffffffff166114f3611030565b73ffffffffffffffffffffffffffffffffffffffff1614611549576040517f08c379a0000000000000000000000000000000000000000000000000000000008152600401611540906128c7565b60405180910390fd5b565b6000611555611447565b905090565b600073ffffffffffffffffffffffffffffffffffffffff168373ffffffffffffffffffffffffffffffffffffffff16036115c9576040517f08c379a00000000000000000000000000000000000000000000000000000000081526004016115c090612959565b60405180910390fd5b600073ffffffffffffffffffffffffffffffffffffffff168273ffffffffffffffffffffffffffffffffffffffff1603611638576040517f08c379a000000000000000000000000000000000000000000000000000000000815260040161162f906129eb565b60405180910390fd5b80600160008573ffffffffffffffffffffffffffffffffffffffff1673ffffffffffffffffffffffffffffffffffffffff16815260200190815260200160002060008473ffffffffffffffffffffffffffffffffffffffff1673ffffffffffffffffffffffffffffffffffffffff168152602001908152602001600020819055508173ffffffffffffffffffffffffffffffffffffffff168373ffffffffffffffffffffffffffffffffffffffff167f8c5be1e5ebec7d5bd14f71427d1e84f3dd0314c0f7b2291e5b200ac8c7c3b925836040516117169190611c73565b60405180910390a3505050565b600061172f848461133d565b90507fffffffffffffffffffffffffffffffffffffffffffffffffffffffffffffffff81146117a9578181101561179b576040517f08c379a000000000000000000000000000000000000000000000000000000000815260040161179290612a57565b60405180910390fd5b6117a8848484840361155a565b5b50505050565b600073ffffffffffffffffffffffffffffffffffffffff168373ffffffffffffffffffffffffffffffffffffffff160361181e576040517f08c379a000000000000000000000000000000000000000000000000000000000815260040161181590612ae9565b60405180910390fd5b600073ffffffffffffffffffffffffffffffffffffffff168273ffffffffffffffffffffffffffffffffffffffff160361188d576040517f08c379a000000000000000000000000000000000000000000000000000000000815260040161188490612b7b565b60405180910390fd5b611898838383611c50565b60008060008573ffffffffffffffffffffffffffffffffffffffff1673ffffffffffffffffffffffffffffffffffffffff1681526020019081526020016000205490508181101561191e576040517f08c379a000000000000000000000000000000000000000000000000000000000815260040161191590612c0d565b60405180910390fd5b8181036000808673ffffffffffffffffffffffffffffffffffffffff1673ffffffffffffffffffffffffffffffffffffffff16815260200190815260200160002081905550816000808573ffffffffffffffffffffffffffffffffffffffff1673ffffffffffffffffffffffffffffffffffffffff168152602001908152602001600020600082825401925050819055508273ffffffffffffffffffffffffffffffffffffffff168473ffffffffffffffffffffffffffffffffffffffff167fddf252ad1be2c89b69c2b068fc378daa952ba7f163c4a11628f55a4df523b3ef84604051611a0c9190611c73565b60405180910390a3611a1f848484611c55565b50505050565b600073ffffffffffffffffffffffffffffffffffffffff168273ffffffffffffffffffffffffffffffffffffffff1603611a94576040517f08c379a0000000000000000000000000000000000000000000000000000000008152600401611a8b90612c79565b60405180910390fd5b611aa060008383611c50565b8060026000828254611ab29190612379565b92505081905550806000808473ffffffffffffffffffffffffffffffffffffffff1673ffffffffffffffffffffffffffffffffffffffff168152602001908152602001600020600082825401925050819055508173ffffffffffffffffffffffffffffffffffffffff16600073ffffffffffffffffffffffffffffffffffffffff167fddf252ad1be2c89b69c2b068fc378daa952ba7f163c4a11628f55a4df523b3ef83604051611b639190611c73565b60405180910390a3611b7760008383611c55565b5050565b6000600560009054906101000a900473ffffffffffffffffffffffffffffffffffffffff16905081600560006101000a81548173ffffffffffffffffffffffffffffffffffffffff021916908373ffffffffffffffffffffffffffffffffffffffff1602179055508173ffffffffffffffffffffffffffffffffffffffff168173ffffffffffffffffffffffffffffffffffffffff167f8be0079c531659141344cd1fd0a4f28419497f9722a3daafe3b4186f6b6457e060405160405180910390a35050565b6000611c4b6114c4565b905090565b505050565b505050565b6000819050919050565b611c6d81611c5a565b82525050565b6000602082019050611c886000830184611c64565b92915050565b600081519050919050565b600082825260208201905092915050565b60005b83811015611cc8578082015181840152602081019050611cad565b60008484015250505050565b6000601f19601f8301169050919050565b6000611cf082611c8e565b611cfa8185611c99565b9350611d0a818560208601611caa565b611d1381611cd4565b840191505092915050565b60006020820190508181036000830152611d388184611ce5565b905092915050565b600080fd5b600080fd5b60008115159050919050565b611d5f81611d4a565b8114611d6a57600080fd5b50565b600081359050611d7c81611d56565b92915050565b600060208284031215611d9857611d97611d40565b5b6000611da684828501611d6d565b91505092915050565b600073ffffffffffffffffffffffffffffffffffffffff82169050919050565b6000611dda82611daf565b9050919050565b611dea81611dcf565b8114611df557600080fd5b50565b600081359050611e0781611de1565b92915050565b611e1681611c5a565b8114611e2157600080fd5b50565b600081359050611e3381611e0d565b92915050565b60008060408385031215611e5057611e4f611d40565b5b6000611e5e85828601611df8565b9250506020611e6f85828601611e24565b9150509250929050565b611e8281611d4a565b82525050565b6000602082019050611e9d6000830184611e79565b92915050565b600060208284031215611eb957611eb8611d40565b5b6000611ec784828501611e24565b91505092915050565b600080fd5b600080fd5b600080fd5b60008083601f840112611ef557611ef4611ed0565b5b8235905067ffffffffffffffff811115611f1257611f11611ed5565b5b602083019150836020820283011115611f2e57611f2d611eda565b5b9250929050565b60008060208385031215611f4c57611f4b611d40565b5b600083013567ffffffffffffffff811115611f6a57611f69611d45565b5b611f7685828601611edf565b92509250509250929050565b600060208284031215611f9857611f97611d40565b5b6000611fa684828501611df8565b91505092915050565b600080600060608486031215611fc857611fc7611d40565b5b6000611fd686828701611df8565b9350506020611fe786828701611df8565b9250506040611ff886828701611e24565b9150509250925092565b6000819050919050565b61201581612002565b82525050565b6000602082019050612030600083018461200c565b92915050565b60008083601f84011261204c5761204b611ed0565b5b8235905067ffffffffffffffff81111561206957612068611ed5565b5b60208301915083602082028301111561208557612084611eda565b5b9250929050565b600080600080604085870312156120a6576120a5611d40565b5b600085013567ffffffffffffffff8111156120c4576120c3611d45565b5b6120d087828801611edf565b9450945050602085013567ffffffffffffffff8111156120f3576120f2611d45565b5b6120ff87828801612036565b925092505092959194509250565b600060ff82169050919050565b6121238161210d565b82525050565b600060208201905061213e600083018461211a565b92915050565b61214d81612002565b811461215857600080fd5b50565b60008135905061216a81612144565b92915050565b60006020828403121561218657612185611d40565b5b60006121948482850161215b565b91505092915050565b6121a681611dcf565b82525050565b60006020820190506121c1600083018461219d565b92915050565b600080604083850312156121de576121dd611d40565b5b60006121ec85828601611df8565b92505060206121fd85828601611df8565b9150509250929050565b7f4e487b7100000000000000000000000000000000000000000000000000000000600052602260045260246000fd5b6000600282049050600182168061224e57607f821691505b60208210810361226157612260612207565b5b50919050565b7f4e487b7100000000000000000000000000000000000000000000000000000000600052603260045260246000fd5b7f4e487b7100000000000000000000000000000000000000000000000000000000600052601160045260246000fd5b60006122d082611c5a565b91507fffffffffffffffffffffffffffffffffffffffffffffffffffffffffffffffff820361230257612301612296565b5b600182019050919050565b7f4d69736d61746368656420617272617973206c656e6774680000000000000000600082015250565b6000612343601883611c99565b915061234e8261230d565b602082019050919050565b6000602082019050818103600083015261237281612336565b9050919050565b600061238482611c5a565b915061238f83611c5a565b92508282019050808211156123a7576123a6612296565b5b92915050565b7f53656564696e6720616e64206d696e74696e67206172652063757272656e746c60008201527f792064697361626c65642e000000000000000000000000000000000000000000602082015250565b6000612409602b83611c99565b9150612414826123ad565b604082019050919050565b60006020820190508181036000830152612438816123fc565b9050919050565b7f556e6b6e6f776e206368697049642e0000000000000000000000000000000000600082015250565b6000612475600f83611c99565b91506124808261243f565b602082019050919050565b600060208201905081810360008301526124a481612468565b9050919050565b7f5363616e6e65722068617320616c7265616479206d696e74656420746869732060008201527f6368697049642e00000000000000000000000000000000000000000000000000602082015250565b6000612507602783611c99565b9150612512826124ab565b604082019050919050565b60006020820190508181036000830152612536816124fa565b9050919050565b7f43616e6e6f74206d696e742c206d61792065786365656420746f6b656e20636160008201527f7000000000000000000000000000000000000000000000000000000000000000602082015250565b6000612599602183611c99565b91506125a48261253d565b604082019050919050565b600060208201905081810360008301526125c88161258c565b9050919050565b7f45524332303a2064656372656173656420616c6c6f77616e63652062656c6f7760008201527f207a65726f000000000000000000000000000000000000000000000000000000602082015250565b600061262b602583611c99565b9150612636826125cf565b604082019050919050565b6000602082019050818103600083015261265a8161261e565b9050919050565b7f436c61696d696e672069732063757272656e746c792064697361626c65642e00600082015250565b6000612697601f83611c99565b91506126a282612661565b602082019050919050565b600060208201905081810360008301526126c68161268a565b9050919050565b7f4f776e61626c653a206e6577206f776e657220697320746865207a65726f206160008201527f6464726573730000000000000000000000000000000000000000000000000000602082015250565b6000612729602683611c99565b9150612734826126cd565b604082019050919050565b600060208201905081810360008301526127588161271c565b9050919050565b600061276a82611c5a565b915061277583611c5a565b925082820390508181111561278d5761278c612296565b5b92915050565b600080fd5b600080fd5b600080858511156127b1576127b0612793565b5b838611156127c2576127c1612798565b5b6001850283019150848603905094509492505050565b600082905092915050565b60007fffffffffffffffffffffffffffffffffffffffff00000000000000000000000082169050919050565b600082821b905092915050565b600061282883836127d8565b8261283381356127e3565b925060148210156128735761286e7fffffffffffffffffffffffffffffffffffffffff0000000000000000000000008360140360080261280f565b831692505b505092915050565b7f4f776e61626c653a2063616c6c6572206973206e6f7420746865206f776e6572600082015250565b60006128b1602083611c99565b91506128bc8261287b565b602082019050919050565b600060208201905081810360008301526128e0816128a4565b9050919050565b7f45524332303a20617070726f76652066726f6d20746865207a65726f2061646460008201527f7265737300000000000000000000000000000000000000000000000000000000602082015250565b6000612943602483611c99565b915061294e826128e7565b604082019050919050565b6000602082019050818103600083015261297281612936565b9050919050565b7f45524332303a20617070726f766520746f20746865207a65726f20616464726560008201527f7373000000000000000000000000000000000000000000000000000000000000602082015250565b60006129d5602283611c99565b91506129e082612979565b604082019050919050565b60006020820190508181036000830152612a04816129c8565b9050919050565b7f45524332303a20696e73756666696369656e7420616c6c6f77616e6365000000600082015250565b6000612a41601d83611c99565b9150612a4c82612a0b565b602082019050919050565b60006020820190508181036000830152612a7081612a34565b9050919050565b7f45524332303a207472616e736665722066726f6d20746865207a65726f20616460008201527f6472657373000000000000000000000000000000000000000000000000000000602082015250565b6000612ad3602583611c99565b9150612ade82612a77565b604082019050919050565b60006020820190508181036000830152612b0281612ac6565b9050919050565b7f45524332303a207472616e7366657220746f20746865207a65726f206164647260008201527f6573730000000000000000000000000000000000000000000000000000000000602082015250565b6000612b65602383611c99565b9150612b7082612b09565b604082019050919050565b60006020820190508181036000830152612b9481612b58565b9050919050565b7f45524332303a207472616e7366657220616d6f756e742065786365656473206260008201527f616c616e63650000000000000000000000000000000000000000000000000000602082015250565b6000612bf7602683611c99565b9150612c0282612b9b565b604082019050919050565b60006020820190508181036000830152612c2681612bea565b9050919050565b7f45524332303a206d696e7420746f20746865207a65726f206164647265737300600082015250565b6000612c63601f83611c99565b9150612c6e82612c2d565b602082019050919050565b60006020820190508181036000830152612c9281612c56565b905091905056fea26469706673582212205ec1a147bbb245d5c7221d08cec4e4b67981b60dfa7b428f0867678cd147956064736f6c63430008110033",
  "linkReferences": {},
  "deployedLinkReferences": {}
}